{
  "contractName": "PensionServiceProvider",
  "abi": [
    {
      "inputs": [
        {
          "internalType": "address",
          "name": "_xend",
          "type": "address"
        },
        {
          "internalType": "address",
          "name": "_xendFinanceIndividual_Yearn_V1",
          "type": "address"
        },
        {
          "internalType": "address",
          "name": "_comptroller",
          "type": "address"
        },
        {
          "internalType": "address",
          "name": "_priceOracle",
          "type": "address"
        }
      ],
      "stateMutability": "nonpayable",
      "type": "constructor"
    },
    {
      "anonymous": false,
      "inputs": [
        {
          "indexed": false,
          "internalType": "address",
          "name": "user",
          "type": "address"
        },
        {
          "indexed": false,
          "internalType": "uint256",
          "name": "amount",
          "type": "uint256"
        }
      ],
      "name": "Deposit",
      "type": "event"
    },
    {
      "anonymous": false,
      "inputs": [
        {
          "indexed": false,
          "internalType": "string",
          "name": "",
          "type": "string"
        },
        {
          "indexed": false,
          "internalType": "uint256",
          "name": "",
          "type": "uint256"
        }
      ],
      "name": "MyLog",
      "type": "event"
    },
    {
      "anonymous": false,
      "inputs": [
        {
          "indexed": false,
          "internalType": "address",
          "name": "applicant",
          "type": "address"
        },
        {
          "indexed": false,
          "internalType": "string",
          "name": "applicantDetails",
          "type": "string"
        },
        {
          "indexed": false,
          "internalType": "uint256",
          "name": "approvedAmountByApplicant",
          "type": "uint256"
        },
        {
          "indexed": false,
          "internalType": "uint256",
          "name": "lockTime",
          "type": "uint256"
        }
      ],
      "name": "Register",
      "type": "event"
    },
    {
      "anonymous": false,
      "inputs": [
        {
          "indexed": false,
          "internalType": "address",
          "name": "sender",
          "type": "address"
        },
        {
          "indexed": false,
          "internalType": "bool",
          "name": "upkeep",
          "type": "bool"
        }
      ],
      "name": "Upkeep",
      "type": "event"
    },
    {
      "anonymous": false,
      "inputs": [
        {
          "indexed": false,
          "internalType": "address",
          "name": "from",
          "type": "address"
        },
        {
          "indexed": false,
          "internalType": "address",
          "name": "to",
          "type": "address"
        },
        {
          "indexed": false,
          "internalType": "uint256",
          "name": "amount",
          "type": "uint256"
        }
      ],
      "name": "Withdraw",
      "type": "event"
    },
    {
      "inputs": [],
      "name": "comptroller",
      "outputs": [
        {
          "internalType": "contract ComptrollerInterface",
          "name": "",
          "type": "address"
        }
      ],
      "stateMutability": "view",
      "type": "function"
    },
    {
      "inputs": [
        {
          "internalType": "address",
          "name": "",
          "type": "address"
        }
      ],
      "name": "isRegistered",
      "outputs": [
        {
          "internalType": "bool",
          "name": "",
          "type": "bool"
        }
      ],
      "stateMutability": "view",
      "type": "function"
    },
    {
      "inputs": [
        {
          "internalType": "address",
          "name": "",
          "type": "address"
        }
      ],
      "name": "pensionServiceApplicant",
      "outputs": [
        {
          "internalType": "uint256",
          "name": "id",
          "type": "uint256"
        },
        {
          "internalType": "address",
          "name": "underlyingAsset",
          "type": "address"
        },
        {
          "internalType": "address payable",
          "name": "userAddress",
          "type": "address"
        },
        {
          "internalType": "string",
          "name": "userDetails",
          "type": "string"
        },
        {
          "internalType": "uint256",
          "name": "depositedAmount",
          "type": "uint256"
        },
        {
          "internalType": "uint256",
          "name": "amountToSpend",
          "type": "uint256"
        },
        {
          "internalType": "uint256",
          "name": "startTime",
          "type": "uint256"
        },
        {
          "internalType": "uint256",
          "name": "timeDurationOfdeposit",
          "type": "uint256"
        },
        {
          "internalType": "uint256",
          "name": "lockTime",
          "type": "uint256"
        }
      ],
      "stateMutability": "view",
      "type": "function"
    },
    {
      "inputs": [],
      "name": "priceOracle",
      "outputs": [
        {
          "internalType": "contract PriceOracleInterface",
          "name": "",
          "type": "address"
        }
      ],
      "stateMutability": "view",
      "type": "function"
    },
    {
      "inputs": [
        {
          "internalType": "uint256",
          "name": "",
          "type": "uint256"
        }
      ],
      "name": "users",
      "outputs": [
        {
          "internalType": "uint256",
          "name": "id",
          "type": "uint256"
        },
        {
          "internalType": "address",
          "name": "underlyingAsset",
          "type": "address"
        },
        {
          "internalType": "address payable",
          "name": "userAddress",
          "type": "address"
        },
        {
          "internalType": "string",
          "name": "userDetails",
          "type": "string"
        },
        {
          "internalType": "uint256",
          "name": "depositedAmount",
          "type": "uint256"
        },
        {
          "internalType": "uint256",
          "name": "amountToSpend",
          "type": "uint256"
        },
        {
          "internalType": "uint256",
          "name": "startTime",
          "type": "uint256"
        },
        {
          "internalType": "uint256",
          "name": "timeDurationOfdeposit",
          "type": "uint256"
        },
        {
          "internalType": "uint256",
          "name": "lockTime",
          "type": "uint256"
        }
      ],
      "stateMutability": "view",
      "type": "function"
    },
    {
      "inputs": [],
      "name": "xend",
      "outputs": [
        {
          "internalType": "contract IERC20",
          "name": "",
          "type": "address"
        }
      ],
      "stateMutability": "view",
      "type": "function"
    },
    {
      "inputs": [],
      "name": "xendFinance",
      "outputs": [
        {
          "internalType": "contract XendFinanceInterface",
          "name": "",
          "type": "address"
        }
      ],
      "stateMutability": "view",
      "type": "function"
    },
    {
      "inputs": [
        {
          "internalType": "address",
          "name": "_underlyingAsset",
          "type": "address"
        },
        {
          "internalType": "string",
          "name": "_userDetails",
          "type": "string"
        },
        {
          "internalType": "uint256",
          "name": "_amountToSpend",
          "type": "uint256"
        },
        {
          "internalType": "uint256",
          "name": "_timeDurationOfDeposit",
          "type": "uint256"
        }
      ],
      "name": "register",
      "outputs": [],
      "stateMutability": "nonpayable",
      "type": "function"
    },
    {
      "inputs": [
        {
          "internalType": "uint256",
          "name": "_amount",
          "type": "uint256"
        }
      ],
      "name": "deposit",
      "outputs": [],
      "stateMutability": "payable",
      "type": "function"
    },
    {
      "inputs": [
        {
          "internalType": "bytes",
          "name": "",
          "type": "bytes"
        }
      ],
      "name": "checkUpkeep",
      "outputs": [
        {
          "internalType": "bool",
          "name": "upkeep",
          "type": "bool"
        },
        {
          "internalType": "bytes",
          "name": "upKeepData",
          "type": "bytes"
        }
      ],
      "stateMutability": "view",
      "type": "function"
    },
    {
      "inputs": [
        {
          "internalType": "bytes",
          "name": "upKeepData",
          "type": "bytes"
        }
      ],
      "name": "performUpkeep",
      "outputs": [],
      "stateMutability": "nonpayable",
      "type": "function"
    },
    {
      "inputs": [],
      "name": "withdraw",
      "outputs": [],
      "stateMutability": "nonpayable",
      "type": "function"
    },
    {
      "inputs": [],
      "name": "updateTimeDurationOfDeposit",
      "outputs": [],
      "stateMutability": "nonpayable",
      "type": "function"
    },
    {
      "inputs": [
        {
          "internalType": "uint256",
          "name": "_lockTime",
          "type": "uint256"
        }
      ],
      "name": "setLockTime",
      "outputs": [],
      "stateMutability": "nonpayable",
      "type": "function"
    },
    {
      "inputs": [
        {
          "internalType": "address",
          "name": "_user",
          "type": "address"
        }
      ],
      "name": "getXendPendingRewards",
      "outputs": [
        {
          "internalType": "uint256",
          "name": "",
          "type": "uint256"
        }
      ],
      "stateMutability": "view",
      "type": "function"
    },
    {
      "inputs": [
        {
          "internalType": "uint256",
          "name": "_amount",
          "type": "uint256"
        }
      ],
      "name": "depositToXendFinance",
      "outputs": [],
      "stateMutability": "nonpayable",
      "type": "function"
    },
    {
      "inputs": [],
      "name": "withdrawFromXendFinance",
      "outputs": [],
      "stateMutability": "nonpayable",
      "type": "function"
    }
  ],
  "bytecode": "0x60806040523480156200001157600080fd5b506040516200398438038062003984833981810160405281019062000037919062000188565b83600560006101000a81548173ffffffffffffffffffffffffffffffffffffffff021916908373ffffffffffffffffffffffffffffffffffffffff160217905550816000806101000a81548173ffffffffffffffffffffffffffffffffffffffff021916908373ffffffffffffffffffffffffffffffffffffffff16021790555080600160006101000a81548173ffffffffffffffffffffffffffffffffffffffff021916908373ffffffffffffffffffffffffffffffffffffffff16021790555082600460006101000a81548173ffffffffffffffffffffffffffffffffffffffff021916908373ffffffffffffffffffffffffffffffffffffffff1602179055506200015160026200015b60201b62001e4f1760201c565b5050505062000242565b6001816000016000828254019250508190555050565b600081519050620001828162000228565b92915050565b600080600080608085870312156200019f57600080fd5b6000620001af8782880162000171565b9450506020620001c28782880162000171565b9350506040620001d58782880162000171565b9250506060620001e88782880162000171565b91505092959194509250565b6000620002018262000208565b9050919050565b600073ffffffffffffffffffffffffffffffffffffffff82169050919050565b6200023381620001f4565b81146200023f57600080fd5b50565b61373280620002526000396000f3fe6080604052600436106100fe5760003560e01c80635daa4bfa11610095578063ae04d45d11610064578063ae04d45d1461030c578063b6b55f2514610335578063c3c5a54714610351578063c742ee051461038e578063f5dd6065146103cb576100fe565b80635daa4bfa146102515780635fe3b5671461027a5780636e04ff0d146102a55780639d45ee47146102e3576100fe565b80634585e33b116100d15780634585e33b146101b557806356dc5d8e146101de57806359098330146101f55780635bc9d2bf1461020c576100fe565b80632630c12f146101035780633245f2281461012e578063365b98b2146101595780633ccfd60b1461019e575b600080fd5b34801561010f57600080fd5b506101186103f6565b6040516101259190612f0a565b60405180910390f35b34801561013a57600080fd5b5061014361041c565b6040516101509190612eef565b60405180910390f35b34801561016557600080fd5b50610180600480360381019061017b919061264f565b610442565b6040516101959998979695949392919061311d565b60405180910390f35b3480156101aa57600080fd5b506101b3610568565b005b3480156101c157600080fd5b506101dc60048036038101906101d791906125c9565b610be2565b005b3480156101ea57600080fd5b506101f3610f94565b005b34801561020157600080fd5b5061020a610fe4565b005b34801561021857600080fd5b50610233600480360381019061022e91906124d3565b611328565b6040516102489998979695949392919061311d565b60405180910390f35b34801561025d57600080fd5b506102786004803603810190610273919061264f565b61143e565b005b34801561028657600080fd5b5061028f6115ef565b60405161029c9190612ed4565b60405180910390f35b3480156102b157600080fd5b506102cc60048036038101906102c791906125c9565b611613565b6040516102da929190612ea4565b60405180910390f35b3480156102ef57600080fd5b5061030a60048036038101906103059190612525565b6116d5565b005b34801561031857600080fd5b50610333600480360381019061032e919061264f565b611adc565b005b61034f600480360381019061034a919061264f565b611c0a565b005b34801561035d57600080fd5b50610378600480360381019061037391906124d3565b611cda565b6040516103859190612e89565b60405180910390f35b34801561039a57600080fd5b506103b560048036038101906103b091906124d3565b611cfa565b6040516103c29190613102565b60405180910390f35b3480156103d757600080fd5b506103e0611e29565b6040516103ed9190612f25565b60405180910390f35b600160009054906101000a900473ffffffffffffffffffffffffffffffffffffffff1681565b600560009054906101000a900473ffffffffffffffffffffffffffffffffffffffff1681565b6008818154811061045257600080fd5b90600052602060002090600902016000915090508060000154908060010160009054906101000a900473ffffffffffffffffffffffffffffffffffffffff16908060020160009054906101000a900473ffffffffffffffffffffffffffffffffffffffff16908060030180546104c7906134fd565b80601f01602080910402602001604051908101604052809291908181526020018280546104f3906134fd565b80156105405780601f1061051557610100808354040283529160200191610540565b820191906000526020600020905b81548152906001019060200180831161052357829003601f168201915b5050505050908060040154908060050154908060060154908060070154908060080154905089565b600760003373ffffffffffffffffffffffffffffffffffffffff1673ffffffffffffffffffffffffffffffffffffffff16815260200190815260200160002060009054906101000a900460ff166105f4576040517f08c379a00000000000000000000000000000000000000000000000000000000081526004016105eb90613020565b60405180910390fd5b6000600660003373ffffffffffffffffffffffffffffffffffffffff1673ffffffffffffffffffffffffffffffffffffffff1681526020019081526020016000206004015411610679576040517f08c379a000000000000000000000000000000000000000000000000000000000815260040161067090613080565b60405180910390fd5b6000600660003373ffffffffffffffffffffffffffffffffffffffff1673ffffffffffffffffffffffffffffffffffffffff1681526020019081526020016000209050806008015442101561095f57600081600401541161070f576040517f08c379a000000000000000000000000000000000000000000000000000000000815260040161070690613060565b60405180910390fd5b6107418160010160009054906101000a900473ffffffffffffffffffffffffffffffffffffffff168260040154611e65565b6000600760003373ffffffffffffffffffffffffffffffffffffffff1673ffffffffffffffffffffffffffffffffffffffff16815260200190815260200160002060006101000a81548160ff02191690831515021790555060006107b360028360040154611f4290919063ffffffff16565b905060008260010160009054906101000a900473ffffffffffffffffffffffffffffffffffffffff16905060008173ffffffffffffffffffffffffffffffffffffffff16636f307dc36040518163ffffffff1660e01b815260040160206040518083038186803b15801561082657600080fd5b505afa15801561083a573d6000803e3d6000fd5b505050506040513d601f19601f8201168201806040525081019061085e91906124fc565b90508073ffffffffffffffffffffffffffffffffffffffff1663a9059cbb8560020160009054906101000a900473ffffffffffffffffffffffffffffffffffffffff16856040518363ffffffff1660e01b81526004016108bf929190612d7d565b602060405180830381600087803b1580156108d957600080fd5b505af11580156108ed573d6000803e3d6000fd5b505050506040513d601f19601f8201168201806040525081019061091191906125a0565b50600084600401819055507f9b1bfa7fa9ee420a16e124f794c35ac9f90472acc99140eb2f6447c714cad8eb30338560405161094f93929190612ddd565b60405180910390a1505050610bdf565b60008160040154116109a6576040517f08c379a000000000000000000000000000000000000000000000000000000000815260040161099d90613060565b60405180910390fd5b6109d88160010160009054906101000a900473ffffffffffffffffffffffffffffffffffffffff168260040154611e65565b6000600760003373ffffffffffffffffffffffffffffffffffffffff1673ffffffffffffffffffffffffffffffffffffffff16815260200190815260200160002060006101000a81548160ff02191690831515021790555060008160040154905060008260010160009054906101000a900473ffffffffffffffffffffffffffffffffffffffff16905060008173ffffffffffffffffffffffffffffffffffffffff16636f307dc36040518163ffffffff1660e01b815260040160206040518083038186803b158015610aaa57600080fd5b505afa158015610abe573d6000803e3d6000fd5b505050506040513d601f19601f82011682018060405250810190610ae291906124fc565b90508073ffffffffffffffffffffffffffffffffffffffff1663a9059cbb8560020160009054906101000a900473ffffffffffffffffffffffffffffffffffffffff16856040518363ffffffff1660e01b8152600401610b43929190612d7d565b602060405180830381600087803b158015610b5d57600080fd5b505af1158015610b71573d6000803e3d6000fd5b505050506040513d601f19601f82011682018060405250810190610b9591906125a0565b50600084600401819055507f9b1bfa7fa9ee420a16e124f794c35ac9f90472acc99140eb2f6447c714cad8eb303385604051610bd393929190612ddd565b60405180910390a15050505b50565b60008282810190610bf3919061260e565b9050600060066000836040015173ffffffffffffffffffffffffffffffffffffffff1673ffffffffffffffffffffffffffffffffffffffff16815260200190815260200160002090508060080154421115610f8e57600760008260020160009054906101000a900473ffffffffffffffffffffffffffffffffffffffff1673ffffffffffffffffffffffffffffffffffffffff1673ffffffffffffffffffffffffffffffffffffffff16815260200190815260200160002060009054906101000a900460ff16610cf8576040517f08c379a0000000000000000000000000000000000000000000000000000000008152600401610cef906130c0565b60405180910390fd5b6000816004015411610d3f576040517f08c379a0000000000000000000000000000000000000000000000000000000008152600401610d3690612fc0565b60405180910390fd5b6000600760008360020160009054906101000a900473ffffffffffffffffffffffffffffffffffffffff1673ffffffffffffffffffffffffffffffffffffffff1673ffffffffffffffffffffffffffffffffffffffff16815260200190815260200160002060006101000a81548160ff02191690831515021790555060008160010160009054906101000a900473ffffffffffffffffffffffffffffffffffffffff16905060008260040154905060008273ffffffffffffffffffffffffffffffffffffffff16636f307dc36040518163ffffffff1660e01b815260040160206040518083038186803b158015610e3557600080fd5b505afa158015610e49573d6000803e3d6000fd5b505050506040513d601f19601f82011682018060405250810190610e6d91906124fc565b90508073ffffffffffffffffffffffffffffffffffffffff1663a9059cbb8560020160009054906101000a900473ffffffffffffffffffffffffffffffffffffffff16846040518363ffffffff1660e01b8152600401610ece929190612d7d565b602060405180830381600087803b158015610ee857600080fd5b505af1158015610efc573d6000803e3d6000fd5b505050506040513d601f19601f82011682018060405250810190610f2091906125a0565b50600084600401819055507f9b1bfa7fa9ee420a16e124f794c35ac9f90472acc99140eb2f6447c714cad8eb308560020160009054906101000a900473ffffffffffffffffffffffffffffffffffffffff1684604051610f8293929190612da6565b60405180910390a15050505b50505050565b6000600660003373ffffffffffffffffffffffffffffffffffffffff1673ffffffffffffffffffffffffffffffffffffffff16815260200190815260200160002090506000816008018190555050565b600760003373ffffffffffffffffffffffffffffffffffffffff1673ffffffffffffffffffffffffffffffffffffffff16815260200190815260200160002060009054906101000a900460ff16611070576040517f08c379a000000000000000000000000000000000000000000000000000000000815260040161106790612f60565b60405180910390fd5b6000600660003373ffffffffffffffffffffffffffffffffffffffff1673ffffffffffffffffffffffffffffffffffffffff1681526020019081526020016000209050600460009054906101000a900473ffffffffffffffffffffffffffffffffffffffff1673ffffffffffffffffffffffffffffffffffffffff16632e1a7d4d82600401546040518263ffffffff1660e01b81526004016111129190613102565b600060405180830381600087803b15801561112c57600080fd5b505af1158015611140573d6000803e3d6000fd5b505050506000600560009054906101000a900473ffffffffffffffffffffffffffffffffffffffff1673ffffffffffffffffffffffffffffffffffffffff166370a08231306040518263ffffffff1660e01b81526004016111a19190612d62565b60206040518083038186803b1580156111b957600080fd5b505afa1580156111cd573d6000803e3d6000fd5b505050506040513d601f19601f820116820180604052508101906111f19190612678565b905081600401548111611239576040517f08c379a000000000000000000000000000000000000000000000000000000000815260040161123090613000565b60405180910390fd5b8060038190555060006112716305f5e1006112636003548660040154611f5890919063ffffffff16565b611f4290919063ffffffff16565b9050600560009054906101000a900473ffffffffffffffffffffffffffffffffffffffff1673ffffffffffffffffffffffffffffffffffffffff1663a9059cbb33836040518363ffffffff1660e01b81526004016112d0929190612e60565b602060405180830381600087803b1580156112ea57600080fd5b505af11580156112fe573d6000803e3d6000fd5b505050506040513d601f19601f8201168201806040525081019061132291906125a0565b50505050565b60066020528060005260406000206000915090508060000154908060010160009054906101000a900473ffffffffffffffffffffffffffffffffffffffff16908060020160009054906101000a900473ffffffffffffffffffffffffffffffffffffffff169080600301805461139d906134fd565b80601f01602080910402602001604051908101604052809291908181526020018280546113c9906134fd565b80156114165780601f106113eb57610100808354040283529160200191611416565b820191906000526020600020905b8154815290600101906020018083116113f957829003601f168201915b5050505050908060040154908060050154908060060154908060070154908060080154905089565b600760003373ffffffffffffffffffffffffffffffffffffffff1673ffffffffffffffffffffffffffffffffffffffff16815260200190815260200160002060009054906101000a900460ff166114ca576040517f08c379a00000000000000000000000000000000000000000000000000000000081526004016114c190612f60565b60405180910390fd5b6000600660003373ffffffffffffffffffffffffffffffffffffffff1673ffffffffffffffffffffffffffffffffffffffff1681526020019081526020016000209050600460009054906101000a900473ffffffffffffffffffffffffffffffffffffffff1673ffffffffffffffffffffffffffffffffffffffff1663d0e30db06040518163ffffffff1660e01b8152600401600060405180830381600087803b15801561157757600080fd5b505af115801561158b573d6000803e3d6000fd5b505050506115a6828260040154611f6e90919063ffffffff16565b81600401819055507fe1fffcc4923d04b559f4d29a8bfc6cda04eb5b0d3c460751c2402c5c5cc9109c3382600401546040516115e3929190612e60565b60405180910390a15050565b60008054906101000a900473ffffffffffffffffffffffffffffffffffffffff1681565b6000606060005b6008805490508110156116cc57600060088281548110611663577f4e487b7100000000000000000000000000000000000000000000000000000000600052603260045260246000fd5b9060005260206000209060090201905080600801544211156116b85760008160405160200161169291906130e0565b6040516020818303038152906040529050600060019050808295509550505050506116ce565b5080806116c49061357d565b91505061161a565b505b9250929050565b600760003373ffffffffffffffffffffffffffffffffffffffff1673ffffffffffffffffffffffffffffffffffffffff16815260200190815260200160002060009054906101000a900460ff1615611762576040517f08c379a000000000000000000000000000000000000000000000000000000000815260040161175990612fa0565b60405180910390fd5b600060405180610120016040528061177a6002611f84565b81526020018673ffffffffffffffffffffffffffffffffffffffff1681526020013373ffffffffffffffffffffffffffffffffffffffff1681526020018581526020016000815260200184815260200142815260200183426117dc9190613270565b81526020016000815250905080600660003373ffffffffffffffffffffffffffffffffffffffff1673ffffffffffffffffffffffffffffffffffffffff1681526020019081526020016000206000820151816000015560208201518160010160006101000a81548173ffffffffffffffffffffffffffffffffffffffff021916908373ffffffffffffffffffffffffffffffffffffffff16021790555060408201518160020160006101000a81548173ffffffffffffffffffffffffffffffffffffffff021916908373ffffffffffffffffffffffffffffffffffffffff16021790555060608201518160030190805190602001906118dc92919061220c565b506080820151816004015560a0820151816005015560c0820151816006015560e08201518160070155610100820151816008015590505060088190806001815401808255809150506001900390600052602060002090600902016000909190919091506000820151816000015560208201518160010160006101000a81548173ffffffffffffffffffffffffffffffffffffffff021916908373ffffffffffffffffffffffffffffffffffffffff16021790555060408201518160020160006101000a81548173ffffffffffffffffffffffffffffffffffffffff021916908373ffffffffffffffffffffffffffffffffffffffff16021790555060608201518160030190805190602001906119f392919061220c565b506080820151816004015560a0820151816005015560c0820151816006015560e08201518160070155610100820151816008015550506001600760003373ffffffffffffffffffffffffffffffffffffffff1673ffffffffffffffffffffffffffffffffffffffff16815260200190815260200160002060006101000a81548160ff021916908315150217905550611a8b6002611e4f565b7fc250e1da9a7004c4db73398b2f2c8cb322f44a17402ea2f24fbbcfd612ee182e3382606001518360a00151846101000151604051611acd9493929190612e14565b60405180910390a15050505050565b600760003373ffffffffffffffffffffffffffffffffffffffff1673ffffffffffffffffffffffffffffffffffffffff16815260200190815260200160002060009054906101000a900460ff16611b68576040517f08c379a0000000000000000000000000000000000000000000000000000000008152600401611b5f90613040565b60405180910390fd5b6000600660003373ffffffffffffffffffffffffffffffffffffffff1673ffffffffffffffffffffffffffffffffffffffff16815260200190815260200160002090506000816008015414611bf2576040517f08c379a0000000000000000000000000000000000000000000000000000000008152600401611be990612fe0565b60405180910390fd5b8142611bfe9190613270565b81600801819055505050565b6000600660003373ffffffffffffffffffffffffffffffffffffffff1673ffffffffffffffffffffffffffffffffffffffff168152602001908152602001600020905060008160010160009054906101000a900473ffffffffffffffffffffffffffffffffffffffff169050611c808184611f92565b828260040154611c909190613270565b82600401819055507fe1fffcc4923d04b559f4d29a8bfc6cda04eb5b0d3c460751c2402c5c5cc9109c338360040154604051611ccd929190612e60565b60405180910390a1505050565b60076020528060005260406000206000915054906101000a900460ff1681565b600080600660008473ffffffffffffffffffffffffffffffffffffffff1673ffffffffffffffffffffffffffffffffffffffff16815260200190815260200160002090506000600460009054906101000a900473ffffffffffffffffffffffffffffffffffffffff1673ffffffffffffffffffffffffffffffffffffffff1663eec562c3306040518263ffffffff1660e01b8152600401611d9b9190612d62565b60206040518083038186803b158015611db357600080fd5b505afa158015611dc7573d6000803e3d6000fd5b505050506040513d601f19601f82011682018060405250810190611deb9190612678565b90506000611e1c6305f5e100611e0e848660040154611f5890919063ffffffff16565b611f4290919063ffffffff16565b9050809350505050919050565b600460009054906101000a900473ffffffffffffffffffffffffffffffffffffffff1681565b6001816000016000828254019250508190555050565b600082905060008173ffffffffffffffffffffffffffffffffffffffff1663852a12e3846040518263ffffffff1660e01b8152600401611ea59190613102565b602060405180830381600087803b158015611ebf57600080fd5b505af1158015611ed3573d6000803e3d6000fd5b505050506040513d601f19601f82011682018060405250810190611ef79190612678565b905060008114611f3c576040517f08c379a0000000000000000000000000000000000000000000000000000000008152600401611f33906130a0565b60405180910390fd5b50505050565b60008183611f5091906132c6565b905092915050565b60008183611f6691906132f7565b905092915050565b60008183611f7c9190613270565b905092915050565b600081600001549050919050565b600760003373ffffffffffffffffffffffffffffffffffffffff1673ffffffffffffffffffffffffffffffffffffffff16815260200190815260200160002060009054906101000a900460ff1661201e576040517f08c379a000000000000000000000000000000000000000000000000000000000815260040161201590612f40565b60405180910390fd5b600082905060008173ffffffffffffffffffffffffffffffffffffffff16636f307dc36040518163ffffffff1660e01b815260040160206040518083038186803b15801561206b57600080fd5b505afa15801561207f573d6000803e3d6000fd5b505050506040513d601f19601f820116820180604052508101906120a391906124fc565b90508073ffffffffffffffffffffffffffffffffffffffff1663095ea7b385856040518363ffffffff1660e01b81526004016120e0929190612e60565b602060405180830381600087803b1580156120fa57600080fd5b505af115801561210e573d6000803e3d6000fd5b505050506040513d601f19601f8201168201806040525081019061213291906125a0565b5060008273ffffffffffffffffffffffffffffffffffffffff1663a0712d68856040518263ffffffff1660e01b815260040161216e9190613102565b602060405180830381600087803b15801561218857600080fd5b505af115801561219c573d6000803e3d6000fd5b505050506040513d601f19601f820116820180604052508101906121c09190612678565b905060008114612205576040517f08c379a00000000000000000000000000000000000000000000000000000000081526004016121fc90612f80565b60405180910390fd5b5050505050565b828054612218906134fd565b90600052602060002090601f01602090048101928261223a5760008555612281565b82601f1061225357805160ff1916838001178555612281565b82800160010185558215612281579182015b82811115612280578251825591602001919060010190612265565b5b50905061228e9190612292565b5090565b5b808211156122ab576000816000905550600101612293565b5090565b60006122c26122bd846131e2565b6131b1565b9050828152602081018484840111156122da57600080fd5b6122e58482856134bb565b509392505050565b6000813590506122fc816136a0565b92915050565b600081519050612311816136a0565b92915050565b600081359050612326816136b7565b92915050565b60008151905061233b816136ce565b92915050565b60008083601f84011261235357600080fd5b8235905067ffffffffffffffff81111561236c57600080fd5b60208301915083600182028301111561238457600080fd5b9250929050565b600082601f83011261239c57600080fd5b81356123ac8482602086016122af565b91505092915050565b600061012082840312156123c857600080fd5b6123d36101206131b1565b905060006123e3848285016124a9565b60008301525060206123f7848285016122ed565b602083015250604061240b84828501612317565b604083015250606082013567ffffffffffffffff81111561242b57600080fd5b6124378482850161238b565b606083015250608061244b848285016124a9565b60808301525060a061245f848285016124a9565b60a08301525060c0612473848285016124a9565b60c08301525060e0612487848285016124a9565b60e08301525061010061249c848285016124a9565b6101008301525092915050565b6000813590506124b8816136e5565b92915050565b6000815190506124cd816136e5565b92915050565b6000602082840312156124e557600080fd5b60006124f3848285016122ed565b91505092915050565b60006020828403121561250e57600080fd5b600061251c84828501612302565b91505092915050565b6000806000806080858703121561253b57600080fd5b6000612549878288016122ed565b945050602085013567ffffffffffffffff81111561256657600080fd5b6125728782880161238b565b9350506040612583878288016124a9565b9250506060612594878288016124a9565b91505092959194509250565b6000602082840312156125b257600080fd5b60006125c08482850161232c565b91505092915050565b600080602083850312156125dc57600080fd5b600083013567ffffffffffffffff8111156125f657600080fd5b61260285828601612341565b92509250509250929050565b60006020828403121561262057600080fd5b600082013567ffffffffffffffff81111561263a57600080fd5b612646848285016123b5565b91505092915050565b60006020828403121561266157600080fd5b600061266f848285016124a9565b91505092915050565b60006020828403121561268a57600080fd5b6000612698848285016124be565b91505092915050565b6126aa816133f5565b82525050565b6126b9816133ad565b82525050565b6126c8816133ad565b82525050565b6126d78161339b565b82525050565b6126e68161339b565b82525050565b6126f5816133bf565b82525050565b600061270682613227565b612710818561323d565b93506127208185602086016134ca565b61272981613682565b840191505092915050565b61273d81613407565b82525050565b61274c8161342b565b82525050565b61275b8161344f565b82525050565b61276a81613473565b82525050565b600061277b82613232565b612785818561325f565b93506127958185602086016134ca565b61279e81613682565b840191505092915050565b600081546127b6816134fd565b6127c0818661324e565b945060018216600081146127db57600181146127ed57612820565b60ff1983168652602086019350612820565b6127f685613212565b60005b83811015612818578154818901526001820191506020810190506127f9565b808801955050505b50505092915050565b600061283660188361325f565b91507f63616c6c6572206973206e6f74207265676973746572656400000000000000006000830152602082019050919050565b600061287660158361325f565b91507f43616c6c6572206e6f74205265676973746572656400000000000000000000006000830152602082019050919050565b60006128b660348361325f565b91507f63546f6b656e236d696e742829206661696c65642e2073656520436f6d706f7560008301527f6e64204572726f725265706f727465722e736f6c0000000000000000000000006020830152604082019050919050565b600061291c601d8361325f565b91507f43616c6c6572206164647265737320616c7265616479206578697374730000006000830152602082019050919050565b600061295c602a8361325f565b91507f496e73756666696369656e742062616c616e63652063616e6e6f74207065726660008301527f6f726d2075706b656570000000000000000000000000000000000000000000006020830152604082019050919050565b60006129c260228361325f565b91507f43616c6c657220616c7265616479206861732061206c6f636b2054696d65205360008301527f65740000000000000000000000000000000000000000000000000000000000006020830152604082019050919050565b6000612a2860238361325f565b91507f5769746864726177696e67206d6f7265207468616e20796f75206465706f736960008301527f74656400000000000000000000000000000000000000000000000000000000006020830152604082019050919050565b6000612a8e60158361325f565b91507f43616c6c6572206e6f74207265676973746572656400000000000000000000006000830152602082019050919050565b6000612ace601b8361325f565b91507f43616c6c65722068617320746f206265205265676973746572656400000000006000830152602082019050919050565b6000612b0e60148361325f565b91507f696e73756666696369656e742062616c616e63650000000000000000000000006000830152602082019050919050565b6000612b4e60148361325f565b91507f496e73756666696369656e742042616c616e63650000000000000000000000006000830152602082019050919050565b6000612b8e60368361325f565b91507f63546f6b656e2372656465656d2829206661696c65642e2073656520436f6d7060008301527f6f756e64204572726f725265706f727465722e736f6c000000000000000000006020830152604082019050919050565b6000612bf460168361325f565b91507f41646472657373206e6f742072656769737465726564000000000000000000006000830152602082019050919050565b600061012083016000808401549050612c3f81613563565b612c4c6000870182612d44565b5060018401549050612c5d8161352f565b612c6a60208701826126ce565b5060028401549050612c7b81613549565b612c8860408701826126b0565b50600384018583036060870152612c9f83826127a9565b92505060048401549050612cb281613563565b612cbf6080870182612d44565b5060058401549050612cd081613563565b612cdd60a0870182612d44565b5060068401549050612cee81613563565b612cfb60c0870182612d44565b5060078401549050612d0c81613563565b612d1960e0870182612d44565b5060088401549050612d2a81613563565b612d38610100870182612d44565b50819250505092915050565b612d4d816133eb565b82525050565b612d5c816133eb565b82525050565b6000602082019050612d7760008301846126dd565b92915050565b6000604082019050612d9260008301856126a1565b612d9f6020830184612d53565b9392505050565b6000606082019050612dbb60008301866126dd565b612dc860208301856126a1565b612dd56040830184612d53565b949350505050565b6000606082019050612df260008301866126dd565b612dff60208301856126dd565b612e0c6040830184612d53565b949350505050565b6000608082019050612e2960008301876126dd565b8181036020830152612e3b8186612770565b9050612e4a6040830185612d53565b612e576060830184612d53565b95945050505050565b6000604082019050612e7560008301856126dd565b612e826020830184612d53565b9392505050565b6000602082019050612e9e60008301846126ec565b92915050565b6000604082019050612eb960008301856126ec565b8181036020830152612ecb81846126fb565b90509392505050565b6000602082019050612ee96000830184612734565b92915050565b6000602082019050612f046000830184612743565b92915050565b6000602082019050612f1f6000830184612752565b92915050565b6000602082019050612f3a6000830184612761565b92915050565b60006020820190508181036000830152612f5981612829565b9050919050565b60006020820190508181036000830152612f7981612869565b9050919050565b60006020820190508181036000830152612f99816128a9565b9050919050565b60006020820190508181036000830152612fb98161290f565b9050919050565b60006020820190508181036000830152612fd98161294f565b9050919050565b60006020820190508181036000830152612ff9816129b5565b9050919050565b6000602082019050818103600083015261301981612a1b565b9050919050565b6000602082019050818103600083015261303981612a81565b9050919050565b6000602082019050818103600083015261305981612ac1565b9050919050565b6000602082019050818103600083015261307981612b01565b9050919050565b6000602082019050818103600083015261309981612b41565b9050919050565b600060208201905081810360008301526130b981612b81565b9050919050565b600060208201905081810360008301526130d981612be7565b9050919050565b600060208201905081810360008301526130fa8184612c27565b905092915050565b60006020820190506131176000830184612d53565b92915050565b600061012082019050613133600083018c612d53565b613140602083018b6126dd565b61314d604083018a6126bf565b818103606083015261315f8189612770565b905061316e6080830188612d53565b61317b60a0830187612d53565b61318860c0830186612d53565b61319560e0830185612d53565b6131a3610100830184612d53565b9a9950505050505050505050565b6000604051905081810181811067ffffffffffffffff821117156131d8576131d7613653565b5b8060405250919050565b600067ffffffffffffffff8211156131fd576131fc613653565b5b601f19601f8301169050602081019050919050565b60008190508160005260206000209050919050565b600081519050919050565b600081519050919050565b600082825260208201905092915050565b600082825260208201905092915050565b600082825260208201905092915050565b600061327b826133eb565b9150613286836133eb565b9250827fffffffffffffffffffffffffffffffffffffffffffffffffffffffffffffffff038211156132bb576132ba6135c6565b5b828201905092915050565b60006132d1826133eb565b91506132dc836133eb565b9250826132ec576132eb6135f5565b5b828204905092915050565b6000613302826133eb565b915061330d836133eb565b9250817fffffffffffffffffffffffffffffffffffffffffffffffffffffffffffffffff0483118215151615613346576133456135c6565b5b828202905092915050565b600073ffffffffffffffffffffffffffffffffffffffff82169050919050565b600073ffffffffffffffffffffffffffffffffffffffff82169050919050565b6000819050919050565b60006133a6826133cb565b9050919050565b60006133b8826133cb565b9050919050565b60008115159050919050565b600073ffffffffffffffffffffffffffffffffffffffff82169050919050565b6000819050919050565b600061340082613497565b9050919050565b600061341282613419565b9050919050565b6000613424826133cb565b9050919050565b60006134368261343d565b9050919050565b6000613448826133cb565b9050919050565b600061345a82613461565b9050919050565b600061346c826133cb565b9050919050565b600061347e82613485565b9050919050565b6000613490826133cb565b9050919050565b60006134a2826134a9565b9050919050565b60006134b4826133cb565b9050919050565b82818337600083830152505050565b60005b838110156134e85780820151818401526020810190506134cd565b838111156134f7576000848401525b50505050565b6000600282049050600182168061351557607f821691505b6020821081141561352957613528613624565b5b50919050565b600061354261353d83613693565b613351565b9050919050565b600061355c61355783613693565b613371565b9050919050565b600061357661357183613693565b613391565b9050919050565b6000613588826133eb565b91507fffffffffffffffffffffffffffffffffffffffffffffffffffffffffffffffff8214156135bb576135ba6135c6565b5b600182019050919050565b7f4e487b7100000000000000000000000000000000000000000000000000000000600052601160045260246000fd5b7f4e487b7100000000000000000000000000000000000000000000000000000000600052601260045260246000fd5b7f4e487b7100000000000000000000000000000000000000000000000000000000600052602260045260246000fd5b7f4e487b7100000000000000000000000000000000000000000000000000000000600052604160045260246000fd5b6000601f19601f8301169050919050565b60008160001c9050919050565b6136a98161339b565b81146136b457600080fd5b50565b6136c0816133ad565b81146136cb57600080fd5b50565b6136d7816133bf565b81146136e257600080fd5b50565b6136ee816133eb565b81146136f957600080fd5b5056fea2646970667358221220b01d1d8cb4e4cf1c488fe5fb88d1bc6a652aec2e8a22fe6726413fdd17e03cbf64736f6c63430008000033",
  "immutableReferences": {},
  "source": "//SPDX-License-Identifier: Unlicense\r\npragma solidity ^0.8.0;\r\n\r\nimport \"@openzeppelin/contracts/utils/math/SafeMath.sol\";\r\nimport \"@openzeppelin/contracts/utils/Counters.sol\";\r\nimport '@openzeppelin/contracts/token/ERC20/IERC20.sol';\r\nimport \"@chainlink/contracts/src/v0.8/interfaces/KeeperCompatibleInterface.sol\";\r\nimport './CTokenInterface.sol';\r\nimport './ComptrollerInterface.sol';\r\nimport './PriceOracleInterface.sol';\r\nimport \"./XendFinanceInterface.sol\";\r\n\r\n\r\n\r\n\r\ncontract PensionServiceProvider is KeeperCompatibleInterface {\r\n    using SafeMath for uint;\r\n    using Counters for Counters.Counter;\r\n\r\n    // variables\r\n    ComptrollerInterface public comptroller;\r\n\tPriceOracleInterface public priceOracle;\r\n    Counters.Counter private id;\r\n\r\n    uint accXendTokens;\r\n    XendFinanceInterface public xendFinance;\r\n    IERC20 public xend;\r\n\r\n\r\n    \r\n    bool up;\r\n\r\n\r\n\r\n    // A user Object\r\n    struct User {\r\n        uint256 id;\r\n        address underlyingAsset;\r\n        address payable userAddress;\r\n        string  userDetails;\r\n        uint256 depositedAmount;\r\n        uint256 amountToSpend;\r\n        uint256 startTime;\r\n        uint256 timeDurationOfdeposit;\r\n        uint256 lockTime;\r\n    }\r\n\r\n    event Register(address applicant, string applicantDetails, uint approvedAmountByApplicant, uint lockTime);\r\n    event Withdraw(address from, address to, uint amount);\r\n    event Deposit(address user, uint amount);\r\n    event Upkeep(address sender, bool upkeep);\r\n    event MyLog(string, uint256);\r\n\r\n    mapping(address => User) public pensionServiceApplicant;\r\n\r\n    // keep track of registered users\r\n    mapping(address => bool) public isRegistered;\r\n\r\n    User[] public users;\r\n\r\n\r\n    constructor(address _xend, address _xendFinanceIndividual_Yearn_V1,  address _comptroller, address _priceOracle )  {\r\n        xend = IERC20(_xend);\r\n        comptroller = ComptrollerInterface(_comptroller);\r\n\t\tpriceOracle = PriceOracleInterface(_priceOracle);\r\n        xendFinance = XendFinanceInterface(_xendFinanceIndividual_Yearn_V1);\r\n\r\n        id.increment();\r\n        \r\n    }\r\n\r\n    function register(\r\n        address _underlyingAsset,\r\n        string memory _userDetails, \r\n        uint256 _amountToSpend,\r\n        uint256 _timeDurationOfDeposit\r\n        ) \r\n        public {\r\n        require(!isRegistered[msg.sender], \"Caller address already exists\");\r\n\r\n        User memory user = User({\r\n            id: id.current(),\r\n            userAddress: payable(msg.sender),\r\n            underlyingAsset: _underlyingAsset,\r\n            userDetails: _userDetails,\r\n            depositedAmount: 0,\r\n            amountToSpend: _amountToSpend,\r\n            startTime: block.timestamp,\r\n            timeDurationOfdeposit: block.timestamp + _timeDurationOfDeposit,\r\n            lockTime: 0\r\n        });\r\n\r\n        pensionServiceApplicant[msg.sender] = user;\r\n        users.push(user);\r\n        isRegistered[msg.sender] = true;\r\n\r\n        id.increment();\r\n\r\n        emit Register(msg.sender, user.userDetails, user.amountToSpend, user.lockTime);\r\n    }\r\n\r\n\r\n\r\n    function deposit(uint256 _amount) public payable {\r\n        User storage user = pensionServiceApplicant[msg.sender];\r\n        address cTokenaddress = user.underlyingAsset;\r\n        _supply(cTokenaddress, _amount);\r\n        user.depositedAmount = user.depositedAmount + _amount;\r\n        emit Deposit(msg.sender, user.depositedAmount);\r\n\r\n    }\r\n\r\n\r\n\r\n    function _enterMarket(address _cTokenaddress) internal {\r\n\t\taddress[] memory markets = new address[](1);\r\n\t\tmarkets[0] = _cTokenaddress;\r\n\t\tuint[] memory results = comptroller.enterMarkets(markets);\r\n\t\trequire( results[0] == 0, 'comptroller#enterMarkets() failed. see Compound ErrorReporter.sol');\r\n\t}\r\n\r\n\r\n    // function supplyErc20ToCompound(\r\n    //     address _erc20Contract,\r\n    //     address _cErc20Contract,\r\n    //     uint256 _numTokensToSupply\r\n    // ) public returns (uint) {\r\n    //     // Create a reference to the underlying asset contract, like DAI.\r\n    //     IERC20 underlying = IERC20(_erc20Contract);\r\n\r\n    //     // Create a reference to the corresponding cToken contract, like cDAI\r\n    //     CTokenInterface cToken = CTokenInterface(_cErc20Contract);\r\n\r\n    //     // Amount of current exchange rate from cToken to underlying\r\n    //     // uint256 exchangeRateMantissa = cToken.exchangeRateCurrent();\r\n    //     // emit MyLog(\"Exchange Rate (scaled up): \", exchangeRateMantissa);\r\n\r\n    //     // Amount added to you supply balance this block\r\n    //     // uint256 supplyRateMantissa = cToken.supplyRatePerBlock();\r\n    //     // emit MyLog(\"Supply Rate: (scaled up)\", supplyRateMantissa);\r\n\r\n    //     // Approve transfer on the ERC20 contract\r\n    //     underlying.approve(_cErc20Contract, _numTokensToSupply);\r\n\r\n    //     // Mint cTokens\r\n    //     uint mintResult = cToken.mint(_numTokensToSupply);\r\n    //     return mintResult;\r\n    // }\r\n\r\n\r\n\r\n    function _supply(address cTokenaddress, uint underlyingAmount) internal {\r\n        require(isRegistered[msg.sender], \"caller is not registered\");\r\n        // _enterMarket(cTokenaddress);\r\n\t\tCTokenInterface cToken = CTokenInterface(cTokenaddress);\r\n\t\taddress underlyingAddress = cToken.underlying();\r\n\t\tIERC20(underlyingAddress).approve(cTokenaddress, underlyingAmount);\r\n\r\n\t\tuint result = cToken.mint(underlyingAmount);\r\n\t\trequire(result == 0, 'cToken#mint() failed. see Compound ErrorReporter.sol');\r\n\t}\r\n\r\n\r\n    // chainlink keeper function call\r\n    function checkUpkeep(bytes calldata) external view override returns(bool upkeep, bytes memory upKeepData)   {\r\n\r\n        for(uint256 i = 0; i < users.length; i++ ) {\r\n            User storage user = users[i];\r\n            if(block.timestamp > user.lockTime) {\r\n                bytes memory upKeepData = abi.encode(user);\r\n                bool upKeep = true;\r\n                // performUpkeep(upKeepData);\r\n                // users[i].startTime = block.timestamp;\r\n                return (upKeep, upKeepData);\r\n            }\r\n        }\r\n        // upKeep = true; \r\n        // upKeepData = \"0x\";\r\n        // emit Upkeep(msg.sender, upKeep);\r\n\r\n    }\r\n\r\n\r\n    // fallback function for chainlink keepers\r\n    function performUpkeep(bytes calldata upKeepData) external override  {\r\n        (User memory userData) = abi.decode(upKeepData, (User));\r\n\r\n        User storage user = pensionServiceApplicant[userData.userAddress];\r\n        if(block.timestamp > user.lockTime) {\r\n            // do something with the user\r\n            require(isRegistered[user.userAddress], \"Address not registered\");\r\n            require(user.depositedAmount > 0, \"Insufficient balance cannot perform upkeep\");\r\n            isRegistered[user.userAddress] = false;\r\n            CTokenInterface cToken = CTokenInterface(user.underlyingAsset);\r\n\r\n            uint amountToSend = user.depositedAmount;\r\n            address underlyingAsset = cToken.underlying();\r\n            IERC20(underlyingAsset).transfer(user.userAddress, amountToSend);\r\n            user.depositedAmount = 0;\r\n\r\n            emit Withdraw(address(this), user.userAddress, amountToSend);\r\n            \r\n            // busd.transferFrom(payable(user.userAddress), address(this), user.amountToSpend);\r\n            // (bool success,) = payable(user.userAddress).transfer(address(this), user.amountToSpend)(\"\");\r\n            // require(success, \"Transfer to contract not successful\");\r\n            // do something with Xend protocol. or compound finance\r\n\r\n\r\n            // user.approvedAmountToSpend = user.approvedAmountToSpend - user.amountToSpend;\r\n            // user.depositedAmount = user.depositedAmount + user.amountToSpend;\r\n            // user.startTime = block.timestamp;\r\n\r\n            // emit Deposit(user.id, user.userDetails, user.lockTime, user.approvedAmountToSpend);\r\n\r\n        }\r\n\r\n    }\r\n\r\n\r\n\r\n    function withdraw() public {\r\n        require(isRegistered[msg.sender], \"Caller not registered\");\r\n        require(pensionServiceApplicant[msg.sender].depositedAmount > 0, \"Insufficient Balance\");\r\n\r\n        // Point to the User in Storage\r\n        User storage user = pensionServiceApplicant[msg.sender];\r\n\r\n        if(block.timestamp < user.lockTime) {\r\n            require(user.depositedAmount > 0, \"insufficient balance\");\r\n            _redeem(user.underlyingAsset, user.depositedAmount);\r\n            isRegistered[msg.sender] = false;\r\n            uint amountToSend = user.depositedAmount.div(2);\r\n            CTokenInterface cToken = CTokenInterface(user.underlyingAsset);\r\n            address underlyingAsset = cToken.underlying();\r\n            IERC20(underlyingAsset).transfer(user.userAddress, amountToSend);\r\n            user.depositedAmount = 0;\r\n            emit Withdraw(address(this), msg.sender, amountToSend);\r\n        } else {\r\n            require(user.depositedAmount > 0, \"insufficient balance\");\r\n            _redeem(user.underlyingAsset, user.depositedAmount);\r\n            isRegistered[msg.sender] = false;\r\n            uint amountToSend = user.depositedAmount;\r\n            CTokenInterface cToken = CTokenInterface(user.underlyingAsset);\r\n            address underlyingAsset = cToken.underlying();\r\n            IERC20(underlyingAsset).transfer(user.userAddress, amountToSend);\r\n            user.depositedAmount = 0;\r\n\r\n            emit Withdraw(address(this), msg.sender, amountToSend);\r\n        }\r\n\r\n        // require(block.timestamp > user.lockTime, \"Early withdrawal will cost you 50% of your initial deposit\");\r\n\r\n\r\n    }\r\n\r\n\r\n    function _redeem(address cTokenaddress, uint tokenAmount) internal {\r\n\t\tCTokenInterface cToken = CTokenInterface(cTokenaddress);\r\n\t\tuint result = cToken.redeemUnderlying(tokenAmount);\r\n\t\trequire(result == 0, 'cToken#redeem() failed. see Compound ErrorReporter.sol');\r\n\t}\r\n\r\n    function updateTimeDurationOfDeposit() public {\r\n        User storage user = pensionServiceApplicant[msg.sender];\r\n        user.lockTime = 0;\r\n    } \r\n\r\n    function setLockTime(uint _lockTime) public {\r\n        require(isRegistered[msg.sender], \"Caller has to be Registered\");\r\n        User storage user = pensionServiceApplicant[msg.sender];\r\n        require(user.lockTime == 0, \"Caller already has a lock Time Set\");\r\n        user.lockTime = block.timestamp + _lockTime;\r\n    }\r\n\r\n\r\n\r\n    // for Xend\r\n\r\n    function getXendPendingRewards(address _user) public view returns(uint) {\r\n        User storage user = pensionServiceApplicant[_user];\r\n        uint256 accXendRewards = xendFinance.GetMemberXendTokenReward(address(this));\r\n        uint256 userPendingRewards = user.depositedAmount.mul(accXendRewards).div(1e8);\r\n\r\n        return userPendingRewards;\r\n    }\r\n\r\n\r\n\r\n    function depositToXendFinance(uint _amount) public {\r\n        require(isRegistered[msg.sender], \"Caller not Registered\");\r\n        User storage user = pensionServiceApplicant[msg.sender];\r\n        xendFinance.deposit();\r\n        user.depositedAmount = user.depositedAmount.add(_amount);\r\n\r\n        emit Deposit(msg.sender, user.depositedAmount);\r\n        \r\n    }\r\n\r\n\r\n\r\n    function withdrawFromXendFinance() public {\r\n        require(isRegistered[msg.sender], \"Caller not Registered\");\r\n        User storage user = pensionServiceApplicant[msg.sender];\r\n        xendFinance.withdraw(user.depositedAmount);\r\n        uint256 xendBalance = xend.balanceOf(address(this));\r\n        require(xendBalance > user.depositedAmount, \"Withdrawing more than you deposited\");\r\n        accXendTokens = xendBalance;\r\n        uint256 accXendTokensforUser = user.depositedAmount.mul(accXendTokens).div(1e8);\r\n        xend.transfer(msg.sender, accXendTokensforUser);\r\n\r\n    }\r\n}",
  "sourcePath": "/mnt/c/Users/chuks/Desktop/Project/beima_project/beima_core/contracts/PensionServiceProvider.sol",
  "compiler": {
    "name": "solc",
    "version": "0.8.0+commit.c7dfd78e.Emscripten.clang"
  },
  "schemaVersion": "3.4.0",
  "updatedAt": "2021-11-25T11:32:12.452Z",
  "devdoc": {
    "kind": "dev",
    "methods": {},
    "version": 1
  },
  "userdoc": {
    "kind": "user",
    "methods": {},
    "version": 1
  }
}