{
  "contractName": "PensionServiceProvider",
  "abi": [
    {
      "inputs": [
        {
          "internalType": "address",
          "name": "_xend",
          "type": "address"
        },
        {
          "internalType": "address",
          "name": "_xendFinanceIndividual_Yearn_V1",
          "type": "address"
        },
        {
          "internalType": "address",
          "name": "_comptroller",
          "type": "address"
        },
        {
          "internalType": "address",
          "name": "_priceOracle",
          "type": "address"
        },
        {
          "internalType": "uint256",
          "name": "_upKeepInterval",
          "type": "uint256"
        }
      ],
      "stateMutability": "nonpayable",
      "type": "constructor"
    },
    {
      "anonymous": false,
      "inputs": [
        {
          "indexed": true,
          "internalType": "address",
          "name": "sender",
          "type": "address"
        },
        {
          "indexed": false,
          "internalType": "address",
          "name": "receiver",
          "type": "address"
        },
        {
          "indexed": true,
          "internalType": "uint256",
          "name": "amountSpent",
          "type": "uint256"
        }
      ],
      "name": "Deposit",
      "type": "event"
    },
    {
      "anonymous": false,
      "inputs": [
        {
          "indexed": false,
          "internalType": "address",
          "name": "user",
          "type": "address"
        },
        {
          "indexed": false,
          "internalType": "string",
          "name": "planDetails",
          "type": "string"
        },
        {
          "indexed": false,
          "internalType": "uint256",
          "name": "lockTime",
          "type": "uint256"
        }
      ],
      "name": "Plan",
      "type": "event"
    },
    {
      "anonymous": false,
      "inputs": [
        {
          "indexed": true,
          "internalType": "address",
          "name": "applicant",
          "type": "address"
        },
        {
          "indexed": true,
          "internalType": "string",
          "name": "applicantDetails",
          "type": "string"
        }
      ],
      "name": "Register",
      "type": "event"
    },
    {
      "anonymous": false,
      "inputs": [
        {
          "indexed": true,
          "internalType": "address",
          "name": "sender",
          "type": "address"
        },
        {
          "indexed": false,
          "internalType": "uint256",
          "name": "amount",
          "type": "uint256"
        },
        {
          "indexed": true,
          "internalType": "address",
          "name": "receiver",
          "type": "address"
        }
      ],
      "name": "Transfer",
      "type": "event"
    },
    {
      "anonymous": false,
      "inputs": [
        {
          "indexed": false,
          "internalType": "uint256",
          "name": "timeDuration",
          "type": "uint256"
        }
      ],
      "name": "Update",
      "type": "event"
    },
    {
      "anonymous": false,
      "inputs": [
        {
          "indexed": false,
          "internalType": "address",
          "name": "sender",
          "type": "address"
        },
        {
          "indexed": false,
          "internalType": "bool",
          "name": "upkeep",
          "type": "bool"
        }
      ],
      "name": "Upkeep",
      "type": "event"
    },
    {
      "anonymous": false,
      "inputs": [
        {
          "indexed": false,
          "internalType": "address",
          "name": "from",
          "type": "address"
        },
        {
          "indexed": false,
          "internalType": "address",
          "name": "to",
          "type": "address"
        },
        {
          "indexed": false,
          "internalType": "uint256",
          "name": "amount",
          "type": "uint256"
        }
      ],
      "name": "Withdraw",
      "type": "event"
    },
    {
      "inputs": [],
      "name": "comptroller",
      "outputs": [
        {
          "internalType": "contract ComptrollerInterface",
          "name": "",
          "type": "address"
        }
      ],
      "stateMutability": "view",
      "type": "function",
      "constant": true
    },
    {
      "inputs": [
        {
          "internalType": "address",
          "name": "",
          "type": "address"
        }
      ],
      "name": "isRegistered",
      "outputs": [
        {
          "internalType": "bool",
          "name": "",
          "type": "bool"
        }
      ],
      "stateMutability": "view",
      "type": "function",
      "constant": true
    },
    {
      "inputs": [],
      "name": "lastTimeStamp",
      "outputs": [
        {
          "internalType": "uint256",
          "name": "",
          "type": "uint256"
        }
      ],
      "stateMutability": "view",
      "type": "function",
      "constant": true
    },
    {
      "inputs": [
        {
          "internalType": "address",
          "name": "",
          "type": "address"
        }
      ],
      "name": "pensionServiceApplicant",
      "outputs": [
        {
          "internalType": "uint256",
          "name": "id",
          "type": "uint256"
        },
        {
          "internalType": "address payable",
          "name": "userAddress",
          "type": "address"
        },
        {
          "internalType": "string",
          "name": "userDetails",
          "type": "string"
        },
        {
          "components": [
            {
              "internalType": "address",
              "name": "underlyingAsset",
              "type": "address"
            },
            {
              "internalType": "uint256",
              "name": "depositedAmount",
              "type": "uint256"
            },
            {
              "internalType": "uint256",
              "name": "amountToSpend",
              "type": "uint256"
            },
            {
              "internalType": "uint256",
              "name": "approvedAmountToSpend",
              "type": "uint256"
            },
            {
              "internalType": "uint256",
              "name": "startTime",
              "type": "uint256"
            },
            {
              "internalType": "uint256",
              "name": "timeDurationOfdeposit",
              "type": "uint256"
            },
            {
              "internalType": "uint256",
              "name": "lockTime",
              "type": "uint256"
            },
            {
              "internalType": "string",
              "name": "ipfsHashOfUserPensionDetails",
              "type": "string"
            },
            {
              "internalType": "uint256",
              "name": "userLastRewardBlock",
              "type": "uint256"
            },
            {
              "internalType": "bool",
              "name": "hasPlan",
              "type": "bool"
            }
          ],
          "internalType": "struct PensionServiceProvider.Client",
          "name": "client",
          "type": "tuple"
        }
      ],
      "stateMutability": "view",
      "type": "function",
      "constant": true
    },
    {
      "inputs": [],
      "name": "priceOracle",
      "outputs": [
        {
          "internalType": "contract PriceOracleInterface",
          "name": "",
          "type": "address"
        }
      ],
      "stateMutability": "view",
      "type": "function",
      "constant": true
    },
    {
      "inputs": [],
      "name": "upKeepInterval",
      "outputs": [
        {
          "internalType": "uint256",
          "name": "",
          "type": "uint256"
        }
      ],
      "stateMutability": "view",
      "type": "function",
      "constant": true
    },
    {
      "inputs": [
        {
          "internalType": "uint256",
          "name": "",
          "type": "uint256"
        }
      ],
      "name": "users",
      "outputs": [
        {
          "internalType": "uint256",
          "name": "id",
          "type": "uint256"
        },
        {
          "internalType": "address payable",
          "name": "userAddress",
          "type": "address"
        },
        {
          "internalType": "string",
          "name": "userDetails",
          "type": "string"
        },
        {
          "components": [
            {
              "internalType": "address",
              "name": "underlyingAsset",
              "type": "address"
            },
            {
              "internalType": "uint256",
              "name": "depositedAmount",
              "type": "uint256"
            },
            {
              "internalType": "uint256",
              "name": "amountToSpend",
              "type": "uint256"
            },
            {
              "internalType": "uint256",
              "name": "approvedAmountToSpend",
              "type": "uint256"
            },
            {
              "internalType": "uint256",
              "name": "startTime",
              "type": "uint256"
            },
            {
              "internalType": "uint256",
              "name": "timeDurationOfdeposit",
              "type": "uint256"
            },
            {
              "internalType": "uint256",
              "name": "lockTime",
              "type": "uint256"
            },
            {
              "internalType": "string",
              "name": "ipfsHashOfUserPensionDetails",
              "type": "string"
            },
            {
              "internalType": "uint256",
              "name": "userLastRewardBlock",
              "type": "uint256"
            },
            {
              "internalType": "bool",
              "name": "hasPlan",
              "type": "bool"
            }
          ],
          "internalType": "struct PensionServiceProvider.Client",
          "name": "client",
          "type": "tuple"
        }
      ],
      "stateMutability": "view",
      "type": "function",
      "constant": true
    },
    {
      "inputs": [],
      "name": "xend",
      "outputs": [
        {
          "internalType": "contract IERC20",
          "name": "",
          "type": "address"
        }
      ],
      "stateMutability": "view",
      "type": "function",
      "constant": true
    },
    {
      "inputs": [],
      "name": "xendFinance",
      "outputs": [
        {
          "internalType": "contract XendFinanceInterface",
          "name": "",
          "type": "address"
        }
      ],
      "stateMutability": "view",
      "type": "function",
      "constant": true
    },
    {
      "inputs": [
        {
          "internalType": "string",
          "name": "_userDetails",
          "type": "string"
        }
      ],
      "name": "register",
      "outputs": [],
      "stateMutability": "nonpayable",
      "type": "function"
    },
    {
      "inputs": [
        {
          "internalType": "address",
          "name": "_asset",
          "type": "address"
        },
        {
          "internalType": "uint256",
          "name": "_amount",
          "type": "uint256"
        }
      ],
      "name": "deposit",
      "outputs": [],
      "stateMutability": "payable",
      "type": "function",
      "payable": true
    },
    {
      "inputs": [],
      "name": "withdraw",
      "outputs": [],
      "stateMutability": "nonpayable",
      "type": "function"
    },
    {
      "inputs": [],
      "name": "updateTimeDurationOfDeposit",
      "outputs": [],
      "stateMutability": "nonpayable",
      "type": "function"
    },
    {
      "inputs": [
        {
          "internalType": "address",
          "name": "_underlyingAsset",
          "type": "address"
        },
        {
          "internalType": "string",
          "name": "_ipfsHashOfUserPensionDetails",
          "type": "string"
        },
        {
          "internalType": "uint256",
          "name": "_approvedAmountToSpend",
          "type": "uint256"
        },
        {
          "internalType": "uint256",
          "name": "_amountToSpend",
          "type": "uint256"
        },
        {
          "internalType": "uint256",
          "name": "_timeDurationOfDeposit",
          "type": "uint256"
        },
        {
          "internalType": "uint256",
          "name": "_lockTime",
          "type": "uint256"
        }
      ],
      "name": "setPlan",
      "outputs": [],
      "stateMutability": "nonpayable",
      "type": "function"
    },
    {
      "inputs": [
        {
          "internalType": "address",
          "name": "_user",
          "type": "address"
        }
      ],
      "name": "getXendPendingRewards",
      "outputs": [
        {
          "internalType": "uint256",
          "name": "",
          "type": "uint256"
        }
      ],
      "stateMutability": "view",
      "type": "function",
      "constant": true
    },
    {
      "inputs": [
        {
          "internalType": "uint256",
          "name": "_amount",
          "type": "uint256"
        }
      ],
      "name": "depositToXendFinance",
      "outputs": [],
      "stateMutability": "nonpayable",
      "type": "function"
    },
    {
      "inputs": [],
      "name": "withdrawFromXendFinance",
      "outputs": [],
      "stateMutability": "nonpayable",
      "type": "function"
    },
    {
      "inputs": [],
      "name": "getAccruedInterest",
      "outputs": [
        {
          "internalType": "uint256",
          "name": "",
          "type": "uint256"
        }
      ],
      "stateMutability": "view",
      "type": "function",
      "constant": true
    }
  ],
  "bytecode": "0x60806040523480156200001157600080fd5b5060405162004104380380620041048339818101604052810190620000379190620001ef565b84600660006101000a81548173ffffffffffffffffffffffffffffffffffffffff021916908373ffffffffffffffffffffffffffffffffffffffff160217905550826000806101000a81548173ffffffffffffffffffffffffffffffffffffffff021916908373ffffffffffffffffffffffffffffffffffffffff16021790555081600160006101000a81548173ffffffffffffffffffffffffffffffffffffffff021916908373ffffffffffffffffffffffffffffffffffffffff16021790555083600560006101000a81548173ffffffffffffffffffffffffffffffffffffffff021916908373ffffffffffffffffffffffffffffffffffffffff1602179055506200015d600a6729a2241af62c00006200019360201b620026821790919060201c565b6004819055504260078190555080600881905550620001886002620001ab60201b620026981760201c565b50505050506200034a565b60008183620001a3919062000271565b905092915050565b6001816000016000828254019250508190555050565b600081519050620001d28162000316565b92915050565b600081519050620001e98162000330565b92915050565b600080600080600060a086880312156200020857600080fd5b60006200021888828901620001c1565b95505060206200022b88828901620001c1565b94505060406200023e88828901620001c1565b93505060606200025188828901620001c1565b92505060806200026488828901620001d8565b9150509295509295909350565b60006200027e82620002dd565b91506200028b83620002dd565b9250826200029e576200029d620002e7565b5b828204905092915050565b6000620002b682620002bd565b9050919050565b600073ffffffffffffffffffffffffffffffffffffffff82169050919050565b6000819050919050565b7f4e487b7100000000000000000000000000000000000000000000000000000000600052601260045260246000fd5b6200032181620002a9565b81146200032d57600080fd5b50565b6200033b81620002dd565b81146200034757600080fd5b50565b613daa806200035a6000396000f3fe6080604052600436106101095760003560e01c80635909833011610095578063c3c5a54711610064578063c3c5a5471461031a578063c742ee0514610357578063de15f0da14610394578063f2c298be146103bd578063f5dd6065146103e657610109565b8063590983301461026f5780635bc9d2bf146102865780635daa4bfa146102c65780635fe3b567146102ef57610109565b80633ccfd60b116100dc5780633ccfd60b146101cf5780633f3b3b27146101e657806347e7ef2414610211578063564afa3a1461022d57806356dc5d8e1461025857610109565b80631a15687b1461010e5780632630c12f146101395780633245f22814610164578063365b98b21461018f575b600080fd5b34801561011a57600080fd5b50610123610411565b604051610130919061389d565b60405180910390f35b34801561014557600080fd5b5061014e610417565b60405161015b9190613667565b60405180910390f35b34801561017057600080fd5b5061017961043d565b604051610186919061364c565b60405180910390f35b34801561019b57600080fd5b506101b660048036038101906101b19190612d5c565b610463565b6040516101c694939291906138b8565b60405180910390f35b3480156101db57600080fd5b506101e461069f565b005b3480156101f257600080fd5b506101fb610f1e565b604051610208919061389d565b60405180910390f35b61022b60048036038101906102269190612cb6565b610f24565b005b34801561023957600080fd5b5061024261130c565b60405161024f919061389d565b60405180910390f35b34801561026457600080fd5b5061026d611500565b005b34801561027b57600080fd5b50610284611641565b005b34801561029257600080fd5b506102ad60048036038101906102a89190612bc3565b61198e565b6040516102bd94939291906138b8565b60405180910390f35b3480156102d257600080fd5b506102ed60048036038101906102e89190612d5c565b611bba565b005b3480156102fb57600080fd5b50610304611d20565b6040516103119190613631565b60405180910390f35b34801561032657600080fd5b50610341600480360381019061033c9190612bc3565b611d44565b60405161034e9190613616565b60405180910390f35b34801561036357600080fd5b5061037e60048036038101906103799190612bc3565b611d64565b60405161038b919061389d565b60405180910390f35b3480156103a057600080fd5b506103bb60048036038101906103b69190612c15565b611e96565b005b3480156103c957600080fd5b506103e460048036038101906103df9190612d1b565b612154565b005b3480156103f257600080fd5b506103fb61265c565b6040516104089190613682565b60405180910390f35b60085481565b600160009054906101000a900473ffffffffffffffffffffffffffffffffffffffff1681565b600660009054906101000a900473ffffffffffffffffffffffffffffffffffffffff1681565b600b818154811061047357600080fd5b90600052602060002090600d02016000915090508060000154908060010160009054906101000a900473ffffffffffffffffffffffffffffffffffffffff16908060020180546104c290613c30565b80601f01602080910402602001604051908101604052809291908181526020018280546104ee90613c30565b801561053b5780601f106105105761010080835404028352916020019161053b565b820191906000526020600020905b81548152906001019060200180831161051e57829003601f168201915b50505050509080600301604051806101400160405290816000820160009054906101000a900473ffffffffffffffffffffffffffffffffffffffff1673ffffffffffffffffffffffffffffffffffffffff1673ffffffffffffffffffffffffffffffffffffffff1681526020016001820154815260200160028201548152602001600382015481526020016004820154815260200160058201548152602001600682015481526020016007820180546105f390613c30565b80601f016020809104026020016040519081016040528092919081815260200182805461061f90613c30565b801561066c5780601f106106415761010080835404028352916020019161066c565b820191906000526020600020905b81548152906001019060200180831161064f57829003601f168201915b50505050508152602001600882015481526020016009820160009054906101000a900460ff161515151581525050905084565b600a60003373ffffffffffffffffffffffffffffffffffffffff1673ffffffffffffffffffffffffffffffffffffffff16815260200190815260200160002060009054906101000a900460ff1661072b576040517f08c379a0000000000000000000000000000000000000000000000000000000008152600401610722906137dd565b60405180910390fd5b6000600960003373ffffffffffffffffffffffffffffffffffffffff1673ffffffffffffffffffffffffffffffffffffffff168152602001908152602001600020604051806080016040529081600082015481526020016001820160009054906101000a900473ffffffffffffffffffffffffffffffffffffffff1673ffffffffffffffffffffffffffffffffffffffff1673ffffffffffffffffffffffffffffffffffffffff1681526020016002820180546107e790613c30565b80601f016020809104026020016040519081016040528092919081815260200182805461081390613c30565b80156108605780601f1061083557610100808354040283529160200191610860565b820191906000526020600020905b81548152906001019060200180831161084357829003601f168201915b5050505050815260200160038201604051806101400160405290816000820160009054906101000a900473ffffffffffffffffffffffffffffffffffffffff1673ffffffffffffffffffffffffffffffffffffffff1673ffffffffffffffffffffffffffffffffffffffff16815260200160018201548152602001600282015481526020016003820154815260200160048201548152602001600582015481526020016006820154815260200160078201805461091c90613c30565b80601f016020809104026020016040519081016040528092919081815260200182805461094890613c30565b80156109955780601f1061096a57610100808354040283529160200191610995565b820191906000526020600020905b81548152906001019060200180831161097857829003601f168201915b50505050508152602001600882015481526020016009820160009054906101000a900460ff161515151581525050815250509050806060015160c00151421015610c9e576000816060015160000151905060008173ffffffffffffffffffffffffffffffffffffffff16636f307dc36040518163ffffffff1660e01b815260040160206040518083038186803b158015610a2e57600080fd5b505afa158015610a42573d6000803e3d6000fd5b505050506040513d601f19601f82011682018060405250810190610a669190612bec565b9050610a828360600151600001518460600151602001516126ae565b60008173ffffffffffffffffffffffffffffffffffffffff166370a08231306040518263ffffffff1660e01b8152600401610abd9190613534565b60206040518083038186803b158015610ad557600080fd5b505afa158015610ae9573d6000803e3d6000fd5b505050506040513d601f19601f82011682018060405250810190610b0d9190612d85565b90508360600151602001518114610b59576040517f08c379a0000000000000000000000000000000000000000000000000000000008152600401610b509061369d565b60405180910390fd5b6000610b77600286606001516020015161268290919063ffffffff16565b90508273ffffffffffffffffffffffffffffffffffffffff1663a9059cbb8660200151836040518363ffffffff1660e01b8152600401610bb892919061354f565b602060405180830381600087803b158015610bd257600080fd5b505af1158015610be6573d6000803e3d6000fd5b505050506040513d601f19601f82011682018060405250810190610c0a9190612cf2565b50600085606001516020018181525050438560600151610100018181525050610c546305f5e100610c46436004546127ce90919063ffffffff16565b61268290919063ffffffff16565b6004819055507f9b1bfa7fa9ee420a16e124f794c35ac9f90472acc99140eb2f6447c714cad8eb303383604051610c8d93929190613578565b60405180910390a150505050610f1b565b6000816060015160000151905060008173ffffffffffffffffffffffffffffffffffffffff16636f307dc36040518163ffffffff1660e01b815260040160206040518083038186803b158015610cf357600080fd5b505afa158015610d07573d6000803e3d6000fd5b505050506040513d601f19601f82011682018060405250810190610d2b9190612bec565b9050610d478360600151600001518460600151602001516126ae565b60008173ffffffffffffffffffffffffffffffffffffffff166370a08231306040518263ffffffff1660e01b8152600401610d829190613534565b60206040518083038186803b158015610d9a57600080fd5b505afa158015610dae573d6000803e3d6000fd5b505050506040513d601f19601f82011682018060405250810190610dd29190612d85565b90508360600151602001518114610e1e576040517f08c379a0000000000000000000000000000000000000000000000000000000008152600401610e159061369d565b60405180910390fd5b600084606001516020015190508273ffffffffffffffffffffffffffffffffffffffff1663a9059cbb8660200151836040518363ffffffff1660e01b8152600401610e6a92919061354f565b602060405180830381600087803b158015610e8457600080fd5b505af1158015610e98573d6000803e3d6000fd5b505050506040513d601f19601f82011682018060405250810190610ebc9190612cf2565b506000856060015160200181815250504385606001516101000181815250507f9b1bfa7fa9ee420a16e124f794c35ac9f90472acc99140eb2f6447c714cad8eb303383604051610f0e93929190613578565b60405180910390a1505050505b50565b60075481565b600a60003373ffffffffffffffffffffffffffffffffffffffff1673ffffffffffffffffffffffffffffffffffffffff16815260200190815260200160002060009054906101000a900460ff16610fb0576040517f08c379a0000000000000000000000000000000000000000000000000000000008152600401610fa7906136bd565b60405180910390fd5b6000600960003373ffffffffffffffffffffffffffffffffffffffff1673ffffffffffffffffffffffffffffffffffffffff1681526020019081526020016000209050600083905060008173ffffffffffffffffffffffffffffffffffffffff16636f307dc36040518163ffffffff1660e01b815260040160206040518083038186803b15801561104057600080fd5b505afa158015611054573d6000803e3d6000fd5b505050506040513d601f19601f820116820180604052508101906110789190612bec565b90508073ffffffffffffffffffffffffffffffffffffffff166323b872dd3330876040518463ffffffff1660e01b81526004016110b793929190613578565b602060405180830381600087803b1580156110d157600080fd5b505af11580156110e5573d6000803e3d6000fd5b505050506040513d601f19601f820116820180604052508101906111099190612cf2565b5060008173ffffffffffffffffffffffffffffffffffffffff166370a08231306040518263ffffffff1660e01b81526004016111459190613534565b60206040518083038186803b15801561115d57600080fd5b505afa158015611171573d6000803e3d6000fd5b505050506040513d601f19601f820116820180604052508101906111959190612d85565b9050848110156111da576040517f08c379a00000000000000000000000000000000000000000000000000000000081526004016111d1906136dd565b60405180910390fd5b60008460030160000160009054906101000a900473ffffffffffffffffffffffffffffffffffffffff16905061121081876127e4565b61122a8686600301600101546127ce90919063ffffffff16565b856003016001018190555061125685600301600201548660030160030154612a1590919063ffffffff16565b85600301600301819055504285600301600401819055506112874386600301600801546127ce90919063ffffffff16565b85600301600801819055506112a743600454612a2b90919063ffffffff16565b60048190555042600781905550853073ffffffffffffffffffffffffffffffffffffffff167f5548c837ab068cf56a2c2479df0882a4922fd203edb7517321831d95078c5f62856040516112fb9190613534565b60405180910390a350505050505050565b600080600960003373ffffffffffffffffffffffffffffffffffffffff1673ffffffffffffffffffffffffffffffffffffffff1681526020019081526020016000209050600a60008260010160009054906101000a900473ffffffffffffffffffffffffffffffffffffffff1673ffffffffffffffffffffffffffffffffffffffff1673ffffffffffffffffffffffffffffffffffffffff16815260200190815260200160002060009054906101000a900460ff16611400576040517f08c379a00000000000000000000000000000000000000000000000000000000081526004016113f7906137dd565b60405180910390fd5b60008160030160000160009054906101000a900473ffffffffffffffffffffffffffffffffffffffff16905060008173ffffffffffffffffffffffffffffffffffffffff1663ae9d70b06040518163ffffffff1660e01b815260040160206040518083038186803b15801561147457600080fd5b505afa158015611488573d6000803e3d6000fd5b505050506040513d601f19601f820116820180604052508101906114ac9190612d85565b905060006114f46305f5e1006114e66004546114d8868960030160010154612a2b90919063ffffffff16565b61268290919063ffffffff16565b61268290919063ffffffff16565b90508094505050505090565b6000600960003373ffffffffffffffffffffffffffffffffffffffff1673ffffffffffffffffffffffffffffffffffffffff1681526020019081526020016000209050600a60008260010160009054906101000a900473ffffffffffffffffffffffffffffffffffffffff1673ffffffffffffffffffffffffffffffffffffffff1673ffffffffffffffffffffffffffffffffffffffff16815260200190815260200160002060009054906101000a900460ff166115f3576040517f08c379a00000000000000000000000000000000000000000000000000000000081526004016115ea9061371d565b60405180910390fd5b600081600301600501819055507f164f7b2ab803097dab5e39f06d2e4f3c3ddc5d4171abbdcc3e76443b8359c7f58160030160050154604051611636919061389d565b60405180910390a150565b600a60003373ffffffffffffffffffffffffffffffffffffffff1673ffffffffffffffffffffffffffffffffffffffff16815260200190815260200160002060009054906101000a900460ff166116cd576040517f08c379a00000000000000000000000000000000000000000000000000000000081526004016116c4906136fd565b60405180910390fd5b6000600960003373ffffffffffffffffffffffffffffffffffffffff1673ffffffffffffffffffffffffffffffffffffffff1681526020019081526020016000209050600560009054906101000a900473ffffffffffffffffffffffffffffffffffffffff1673ffffffffffffffffffffffffffffffffffffffff16632e1a7d4d82600301600101546040518263ffffffff1660e01b8152600401611772919061389d565b600060405180830381600087803b15801561178c57600080fd5b505af11580156117a0573d6000803e3d6000fd5b505050506000600660009054906101000a900473ffffffffffffffffffffffffffffffffffffffff1673ffffffffffffffffffffffffffffffffffffffff166370a08231306040518263ffffffff1660e01b81526004016118019190613534565b60206040518083038186803b15801561181957600080fd5b505afa15801561182d573d6000803e3d6000fd5b505050506040513d601f19601f820116820180604052508101906118519190612d85565b90508160030160010154811161189c576040517f08c379a0000000000000000000000000000000000000000000000000000000008152600401611893906137bd565b60405180910390fd5b8060038190555060006118d76305f5e1006118c96003548660030160010154612a2b90919063ffffffff16565b61268290919063ffffffff16565b9050600660009054906101000a900473ffffffffffffffffffffffffffffffffffffffff1673ffffffffffffffffffffffffffffffffffffffff1663a9059cbb33836040518363ffffffff1660e01b81526004016119369291906135ed565b602060405180830381600087803b15801561195057600080fd5b505af1158015611964573d6000803e3d6000fd5b505050506040513d601f19601f820116820180604052508101906119889190612cf2565b50505050565b60096020528060005260406000206000915090508060000154908060010160009054906101000a900473ffffffffffffffffffffffffffffffffffffffff16908060020180546119dd90613c30565b80601f0160208091040260200160405190810160405280929190818152602001828054611a0990613c30565b8015611a565780601f10611a2b57610100808354040283529160200191611a56565b820191906000526020600020905b815481529060010190602001808311611a3957829003601f168201915b50505050509080600301604051806101400160405290816000820160009054906101000a900473ffffffffffffffffffffffffffffffffffffffff1673ffffffffffffffffffffffffffffffffffffffff1673ffffffffffffffffffffffffffffffffffffffff168152602001600182015481526020016002820154815260200160038201548152602001600482015481526020016005820154815260200160068201548152602001600782018054611b0e90613c30565b80601f0160208091040260200160405190810160405280929190818152602001828054611b3a90613c30565b8015611b875780601f10611b5c57610100808354040283529160200191611b87565b820191906000526020600020905b815481529060010190602001808311611b6a57829003601f168201915b50505050508152602001600882015481526020016009820160009054906101000a900460ff161515151581525050905084565b6000600960003373ffffffffffffffffffffffffffffffffffffffff1673ffffffffffffffffffffffffffffffffffffffff1681526020019081526020016000209050600560009054906101000a900473ffffffffffffffffffffffffffffffffffffffff1673ffffffffffffffffffffffffffffffffffffffff1663d0e30db06040518163ffffffff1660e01b8152600401600060405180830381600087803b158015611c6757600080fd5b505af1158015611c7b573d6000803e3d6000fd5b50505050611c998282600301600101546127ce90919063ffffffff16565b816003016001018190555080600301600101543373ffffffffffffffffffffffffffffffffffffffff167f5548c837ab068cf56a2c2479df0882a4922fd203edb7517321831d95078c5f62600660009054906101000a900473ffffffffffffffffffffffffffffffffffffffff16604051611d149190613534565b60405180910390a35050565b60008054906101000a900473ffffffffffffffffffffffffffffffffffffffff1681565b600a6020528060005260406000206000915054906101000a900460ff1681565b600080600960008473ffffffffffffffffffffffffffffffffffffffff1673ffffffffffffffffffffffffffffffffffffffff16815260200190815260200160002090506000600560009054906101000a900473ffffffffffffffffffffffffffffffffffffffff1673ffffffffffffffffffffffffffffffffffffffff1663eec562c3306040518263ffffffff1660e01b8152600401611e059190613534565b60206040518083038186803b158015611e1d57600080fd5b505afa158015611e31573d6000803e3d6000fd5b505050506040513d601f19601f82011682018060405250810190611e559190612d85565b90506000611e896305f5e100611e7b848660030160010154612a2b90919063ffffffff16565b61268290919063ffffffff16565b9050809350505050919050565b828411611ed8576040517f08c379a0000000000000000000000000000000000000000000000000000000008152600401611ecf9061387d565b60405180910390fd5b60008311611f1b576040517f08c379a0000000000000000000000000000000000000000000000000000000008152600401611f129061383d565b60405180910390fd5b600a60003373ffffffffffffffffffffffffffffffffffffffff1673ffffffffffffffffffffffffffffffffffffffff16815260200190815260200160002060009054906101000a900460ff16611fa7576040517f08c379a0000000000000000000000000000000000000000000000000000000008152600401611f9e906137fd565b60405180910390fd5b6000600960003373ffffffffffffffffffffffffffffffffffffffff1673ffffffffffffffffffffffffffffffffffffffff16815260200190815260200160002090506000816003016006015414612034576040517f08c379a000000000000000000000000000000000000000000000000000000000815260040161202b9061379d565b60405180910390fd5b868160030160000160006101000a81548173ffffffffffffffffffffffffffffffffffffffff021916908373ffffffffffffffffffffffffffffffffffffffff160217905550814261208691906139b9565b81600301600601819055506120a483426127ce90919063ffffffff16565b8160030160050181905550858160030160070190805190602001906120ca929190612a4f565b5084816003016003018190555083816003016002018190555060018160030160090160006101000a81548160ff0219169083151502179055507f0a342f2e207c3c328a10158ad0b71a9e64a10e319c5d635be24f8c7e418ea6e433826003016007018360030160060154604051612143939291906135af565b60405180910390a150505050505050565b600a60003373ffffffffffffffffffffffffffffffffffffffff1673ffffffffffffffffffffffffffffffffffffffff16815260200190815260200160002060009054906101000a900460ff16156121e1576040517f08c379a00000000000000000000000000000000000000000000000000000000081526004016121d89061377d565b60405180910390fd5b6000604051806101400160405280600073ffffffffffffffffffffffffffffffffffffffff1681526020016000815260200160008152602001600081526020014281526020016000815260200160008152602001604051806020016040528060008152508152602001438152602001600015158152509050600060405180608001604052806122706002612a41565b81526020013373ffffffffffffffffffffffffffffffffffffffff16815260200184815260200183815250905080600960003373ffffffffffffffffffffffffffffffffffffffff1673ffffffffffffffffffffffffffffffffffffffff1681526020019081526020016000206000820151816000015560208201518160010160006101000a81548173ffffffffffffffffffffffffffffffffffffffff021916908373ffffffffffffffffffffffffffffffffffffffff160217905550604082015181600201908051906020019061234a929190612a4f565b5060608201518160030160008201518160000160006101000a81548173ffffffffffffffffffffffffffffffffffffffff021916908373ffffffffffffffffffffffffffffffffffffffff1602179055506020820151816001015560408201518160020155606082015181600301556080820151816004015560a0820151816005015560c0820151816006015560e08201518160070190805190602001906123f3929190612a4f565b5061010082015181600801556101208201518160090160006101000a81548160ff0219169083151502179055505050905050600b8190806001815401808255809150506001900390600052602060002090600d02016000909190919091506000820151816000015560208201518160010160006101000a81548173ffffffffffffffffffffffffffffffffffffffff021916908373ffffffffffffffffffffffffffffffffffffffff16021790555060408201518160020190805190602001906124be929190612a4f565b5060608201518160030160008201518160000160006101000a81548173ffffffffffffffffffffffffffffffffffffffff021916908373ffffffffffffffffffffffffffffffffffffffff1602179055506020820151816001015560408201518160020155606082015181600301556080820151816004015560a0820151816005015560c0820151816006015560e0820151816007019080519060200190612567929190612a4f565b5061010082015181600801556101208201518160090160006101000a81548160ff021916908315150217905550505050506001600a60003373ffffffffffffffffffffffffffffffffffffffff1673ffffffffffffffffffffffffffffffffffffffff16815260200190815260200160002060006101000a81548160ff0219169083151502179055506125fa6002612698565b806040015160405161260c919061351d565b60405180910390203373ffffffffffffffffffffffffffffffffffffffff167f6ba0831d2f62ae5cbf7214bcc1d79c5da1d705f12811efda0beaa840006f874e60405160405180910390a3505050565b600560009054906101000a900473ffffffffffffffffffffffffffffffffffffffff1681565b600081836126909190613a0f565b905092915050565b6001816000016000828254019250508190555050565b600081116126f1576040517f08c379a00000000000000000000000000000000000000000000000000000000081526004016126e89061381d565b60405180910390fd5b600082905060008173ffffffffffffffffffffffffffffffffffffffff1663852a12e3846040518263ffffffff1660e01b8152600401612731919061389d565b602060405180830381600087803b15801561274b57600080fd5b505af115801561275f573d6000803e3d6000fd5b505050506040513d601f19601f820116820180604052508101906127839190612d85565b9050600081146127c8576040517f08c379a00000000000000000000000000000000000000000000000000000000081526004016127bf9061385d565b60405180910390fd5b50505050565b600081836127dc91906139b9565b905092915050565b60008111612827576040517f08c379a000000000000000000000000000000000000000000000000000000000815260040161281e9061375d565b60405180910390fd5b600082905060008173ffffffffffffffffffffffffffffffffffffffff16636f307dc36040518163ffffffff1660e01b815260040160206040518083038186803b15801561287457600080fd5b505afa158015612888573d6000803e3d6000fd5b505050506040513d601f19601f820116820180604052508101906128ac9190612bec565b90508073ffffffffffffffffffffffffffffffffffffffff1663095ea7b385856040518363ffffffff1660e01b81526004016128e99291906135ed565b602060405180830381600087803b15801561290357600080fd5b505af1158015612917573d6000803e3d6000fd5b505050506040513d601f19601f8201168201806040525081019061293b9190612cf2565b5060008273ffffffffffffffffffffffffffffffffffffffff1663a0712d68856040518263ffffffff1660e01b8152600401612977919061389d565b602060405180830381600087803b15801561299157600080fd5b505af11580156129a5573d6000803e3d6000fd5b505050506040513d601f19601f820116820180604052508101906129c99190612d85565b905060008114612a0e576040517f08c379a0000000000000000000000000000000000000000000000000000000008152600401612a059061373d565b60405180910390fd5b5050505050565b60008183612a239190613a9a565b905092915050565b60008183612a399190613a40565b905092915050565b600081600001549050919050565b828054612a5b90613c30565b90600052602060002090601f016020900481019282612a7d5760008555612ac4565b82601f10612a9657805160ff1916838001178555612ac4565b82800160010185558215612ac4579182015b82811115612ac3578251825591602001919060010190612aa8565b5b509050612ad19190612ad5565b5090565b5b80821115612aee576000816000905550600101612ad6565b5090565b6000612b05612b008461393c565b61390b565b905082815260208101848484011115612b1d57600080fd5b612b28848285613bee565b509392505050565b600081359050612b3f81613d2f565b92915050565b600081519050612b5481613d2f565b92915050565b600081519050612b6981613d46565b92915050565b600082601f830112612b8057600080fd5b8135612b90848260208601612af2565b91505092915050565b600081359050612ba881613d5d565b92915050565b600081519050612bbd81613d5d565b92915050565b600060208284031215612bd557600080fd5b6000612be384828501612b30565b91505092915050565b600060208284031215612bfe57600080fd5b6000612c0c84828501612b45565b91505092915050565b60008060008060008060c08789031215612c2e57600080fd5b6000612c3c89828a01612b30565b965050602087013567ffffffffffffffff811115612c5957600080fd5b612c6589828a01612b6f565b9550506040612c7689828a01612b99565b9450506060612c8789828a01612b99565b9350506080612c9889828a01612b99565b92505060a0612ca989828a01612b99565b9150509295509295509295565b60008060408385031215612cc957600080fd5b6000612cd785828601612b30565b9250506020612ce885828601612b99565b9150509250929050565b600060208284031215612d0457600080fd5b6000612d1284828501612b5a565b91505092915050565b600060208284031215612d2d57600080fd5b600082013567ffffffffffffffff811115612d4757600080fd5b612d5384828501612b6f565b91505092915050565b600060208284031215612d6e57600080fd5b6000612d7c84828501612b99565b91505092915050565b600060208284031215612d9757600080fd5b6000612da584828501612bae565b91505092915050565b612db781613b28565b82525050565b612dc681613ae0565b82525050565b612dd581613ace565b82525050565b612de481613ace565b82525050565b612df381613af2565b82525050565b612e0281613af2565b82525050565b612e1181613b3a565b82525050565b612e2081613b5e565b82525050565b612e2f81613b82565b82525050565b612e3e81613ba6565b82525050565b6000612e4f82613981565b612e59818561398c565b9350612e69818560208601613bfd565b612e7281613d1e565b840191505092915050565b6000612e8882613981565b612e92818561399d565b9350612ea2818560208601613bfd565b612eab81613d1e565b840191505092915050565b6000612ec182613981565b612ecb81856139ae565b9350612edb818560208601613bfd565b80840191505092915050565b60008154612ef481613c30565b612efe818661399d565b94506001821660008114612f195760018114612f2b57612f5e565b60ff1983168652602086019350612f5e565b612f348561396c565b60005b83811015612f5657815481890152600182019150602081019050612f37565b808801955050505b50505092915050565b6000612f74600f8361399d565b91507f42616c616e636520746f6f206c6f7700000000000000000000000000000000006000830152602082019050919050565b6000612fb460188361399d565b91507f43616c6c6572206973206e6f74205265676973746572656400000000000000006000830152602082019050919050565b6000612ff4600f8361399d565b91507f5472616e73666572206661696c656400000000000000000000000000000000006000830152602082019050919050565b600061303460158361399d565b91507f43616c6c6572206e6f74205265676973746572656400000000000000000000006000830152602082019050919050565b600061307460188361399d565b91507f43616c6c6572206973206e6f74207265676973746572656400000000000000006000830152602082019050919050565b60006130b460348361399d565b91507f63546f6b656e236d696e742829206661696c65642e2073656520436f6d706f7560008301527f6e64204572726f725265706f727465722e736f6c0000000000000000000000006020830152604082019050919050565b600061311a60128361399d565b91507f416d6f756e742043616e6e6f74206265203000000000000000000000000000006000830152602082019050919050565b600061315a601d8361399d565b91507f43616c6c6572206164647265737320616c7265616479206578697374730000006000830152602082019050919050565b600061319a60228361399d565b91507f43616c6c657220616c7265616479206861732061206c6f636b2054696d65205360008301527f65740000000000000000000000000000000000000000000000000000000000006020830152604082019050919050565b600061320060238361399d565b91507f5769746864726177696e67206d6f7265207468616e20796f75206465706f736960008301527f74656400000000000000000000000000000000000000000000000000000000006020830152604082019050919050565b600061326660158361399d565b91507f43616c6c6572206e6f74207265676973746572656400000000000000000000006000830152602082019050919050565b60006132a6601b8361399d565b91507f43616c6c65722068617320746f206265205265676973746572656400000000006000830152602082019050919050565b60006132e660128361399d565b91507f416d6f756e742063616e6e6f74206265203000000000000000000000000000006000830152602082019050919050565b600061332660208361399d565b91507f617070726f766520616e20616d6f756e742067726561746572207468616e20306000830152602082019050919050565b600061336660368361399d565b91507f63546f6b656e2372656465656d2829206661696c65642e2073656520436f6d7060008301527f6f756e64204572726f725265706f727465722e736f6c000000000000000000006020830152604082019050919050565b60006133cc602f8361399d565b91507f53657420616e20616d6f756e742067726561746572207468616e20746865207260008301527f6563757272696e6720616d6f756e7400000000000000000000000000000000006020830152604082019050919050565b60006101408301600083015161343e6000860182612dcc565b50602083015161345160208601826134ff565b50604083015161346460408601826134ff565b50606083015161347760608601826134ff565b50608083015161348a60808601826134ff565b5060a083015161349d60a08601826134ff565b5060c08301516134b060c08601826134ff565b5060e083015184820360e08601526134c88282612e44565b9150506101008301516134df6101008601826134ff565b506101208301516134f4610120860182612dea565b508091505092915050565b61350881613b1e565b82525050565b61351781613b1e565b82525050565b60006135298284612eb6565b915081905092915050565b60006020820190506135496000830184612ddb565b92915050565b60006040820190506135646000830185612dae565b613571602083018461350e565b9392505050565b600060608201905061358d6000830186612ddb565b61359a6020830185612ddb565b6135a7604083018461350e565b949350505050565b60006060820190506135c46000830186612ddb565b81810360208301526135d68185612ee7565b90506135e5604083018461350e565b949350505050565b60006040820190506136026000830185612ddb565b61360f602083018461350e565b9392505050565b600060208201905061362b6000830184612df9565b92915050565b60006020820190506136466000830184612e08565b92915050565b60006020820190506136616000830184612e17565b92915050565b600060208201905061367c6000830184612e26565b92915050565b60006020820190506136976000830184612e35565b92915050565b600060208201905081810360008301526136b681612f67565b9050919050565b600060208201905081810360008301526136d681612fa7565b9050919050565b600060208201905081810360008301526136f681612fe7565b9050919050565b6000602082019050818103600083015261371681613027565b9050919050565b6000602082019050818103600083015261373681613067565b9050919050565b60006020820190508181036000830152613756816130a7565b9050919050565b600060208201905081810360008301526137768161310d565b9050919050565b600060208201905081810360008301526137968161314d565b9050919050565b600060208201905081810360008301526137b68161318d565b9050919050565b600060208201905081810360008301526137d6816131f3565b9050919050565b600060208201905081810360008301526137f681613259565b9050919050565b6000602082019050818103600083015261381681613299565b9050919050565b60006020820190508181036000830152613836816132d9565b9050919050565b6000602082019050818103600083015261385681613319565b9050919050565b6000602082019050818103600083015261387681613359565b9050919050565b60006020820190508181036000830152613896816133bf565b9050919050565b60006020820190506138b2600083018461350e565b92915050565b60006080820190506138cd600083018761350e565b6138da6020830186612dbd565b81810360408301526138ec8185612e7d565b905081810360608301526139008184613425565b905095945050505050565b6000604051905081810181811067ffffffffffffffff8211171561393257613931613cef565b5b8060405250919050565b600067ffffffffffffffff82111561395757613956613cef565b5b601f19601f8301169050602081019050919050565b60008190508160005260206000209050919050565b600081519050919050565b600082825260208201905092915050565b600082825260208201905092915050565b600081905092915050565b60006139c482613b1e565b91506139cf83613b1e565b9250827fffffffffffffffffffffffffffffffffffffffffffffffffffffffffffffffff03821115613a0457613a03613c62565b5b828201905092915050565b6000613a1a82613b1e565b9150613a2583613b1e565b925082613a3557613a34613c91565b5b828204905092915050565b6000613a4b82613b1e565b9150613a5683613b1e565b9250817fffffffffffffffffffffffffffffffffffffffffffffffffffffffffffffffff0483118215151615613a8f57613a8e613c62565b5b828202905092915050565b6000613aa582613b1e565b9150613ab083613b1e565b925082821015613ac357613ac2613c62565b5b828203905092915050565b6000613ad982613afe565b9050919050565b6000613aeb82613afe565b9050919050565b60008115159050919050565b600073ffffffffffffffffffffffffffffffffffffffff82169050919050565b6000819050919050565b6000613b3382613bca565b9050919050565b6000613b4582613b4c565b9050919050565b6000613b5782613afe565b9050919050565b6000613b6982613b70565b9050919050565b6000613b7b82613afe565b9050919050565b6000613b8d82613b94565b9050919050565b6000613b9f82613afe565b9050919050565b6000613bb182613bb8565b9050919050565b6000613bc382613afe565b9050919050565b6000613bd582613bdc565b9050919050565b6000613be782613afe565b9050919050565b82818337600083830152505050565b60005b83811015613c1b578082015181840152602081019050613c00565b83811115613c2a576000848401525b50505050565b60006002820490506001821680613c4857607f821691505b60208210811415613c5c57613c5b613cc0565b5b50919050565b7f4e487b7100000000000000000000000000000000000000000000000000000000600052601160045260246000fd5b7f4e487b7100000000000000000000000000000000000000000000000000000000600052601260045260246000fd5b7f4e487b7100000000000000000000000000000000000000000000000000000000600052602260045260246000fd5b7f4e487b7100000000000000000000000000000000000000000000000000000000600052604160045260246000fd5b6000601f19601f8301169050919050565b613d3881613ace565b8114613d4357600080fd5b50565b613d4f81613af2565b8114613d5a57600080fd5b50565b613d6681613b1e565b8114613d7157600080fd5b5056fea2646970667358221220f465da43f840fd9f0b0ac3ef13fe8f6da8cb7d4c4ff76e1202eb201b5d07da0f64736f6c63430008000033",
  "immutableReferences": {},
  "source": "//SPDX-License-Identifier: Unlicense\r\npragma solidity ^0.8.0;\r\n\r\nimport \"@openzeppelin/contracts/utils/math/SafeMath.sol\";\r\nimport \"@openzeppelin/contracts/security/Pausable.sol\";\r\nimport \"@openzeppelin/contracts/security/ReentrancyGuard.sol\";\r\nimport \"@openzeppelin/contracts/access/Ownable.sol\";\r\nimport \"@openzeppelin/contracts/utils/Counters.sol\";\r\nimport '@openzeppelin/contracts/token/ERC20/IERC20.sol';\r\nimport \"@chainlink/contracts/src/v0.8/interfaces/KeeperCompatibleInterface.sol\";\r\nimport './CTokenInterface.sol';\r\nimport './ComptrollerInterface.sol';\r\nimport './PriceOracleInterface.sol';\r\nimport \"./XendFinanceInterface.sol\";\r\n\r\n\r\n// approve the user's underlying asset to be able to use the chainklink keepers\r\n\r\ncontract PensionServiceProvider {\r\n    using SafeMath for uint;\r\n    using Counters for Counters.Counter;\r\n\r\n    // variables\r\n    ComptrollerInterface public comptroller;\r\n\tPriceOracleInterface public priceOracle;\r\n    Counters.Counter private id;\r\n\r\n    uint accXendTokens;\r\n    uint256 ccInterest;\r\n    XendFinanceInterface public xendFinance;\r\n    IERC20 public xend;\r\n\r\n    uint public lastTimeStamp;\r\n    uint public upKeepInterval;\r\n\r\n\r\n\r\n    \r\n\r\n\r\n\r\n    struct Client {\r\n        address underlyingAsset;\r\n        uint256 depositedAmount;\r\n        uint256 amountToSpend;\r\n        uint256 approvedAmountToSpend;\r\n        uint256 startTime;\r\n        uint256 timeDurationOfdeposit;\r\n        uint256 lockTime;\r\n        string ipfsHashOfUserPensionDetails;\r\n        uint256 userLastRewardBlock;\r\n        bool hasPlan;\r\n    }\r\n\r\n\r\n    // A user Object\r\n    struct User {\r\n        uint256 id;\r\n        address payable userAddress;\r\n        string  userDetails;\r\n        Client client;\r\n\r\n    }\r\n\r\n\r\n\r\n    \r\n\r\n    \r\n\r\n\r\n    event Register(address indexed applicant, string indexed applicantDetails);\r\n    event Withdraw(address from, address to, uint amount);\r\n    event Deposit(address indexed sender, address receiver, uint indexed amountSpent);\r\n    event Upkeep(address sender, bool upkeep);\r\n    event Plan(address user, string planDetails, uint lockTime);\r\n    event Update(uint256 timeDuration);\r\n    event Transfer(address indexed sender, uint amount, address indexed receiver);\r\n\r\n    mapping(address => User) public pensionServiceApplicant;\r\n\r\n    // keep track of registered users\r\n    mapping(address => bool) public isRegistered;\r\n\r\n    User[] public users;\r\n\r\n\r\n    constructor(address _xend, address _xendFinanceIndividual_Yearn_V1,  address _comptroller, address _priceOracle, uint _upKeepInterval)  {\r\n        xend = IERC20(_xend);\r\n        comptroller = ComptrollerInterface(_comptroller);\r\n\t\tpriceOracle = PriceOracleInterface(_priceOracle);\r\n        xendFinance = XendFinanceInterface(_xendFinanceIndividual_Yearn_V1);\r\n        ccInterest = uint256(3 ether).div(10); // .3% \r\n        lastTimeStamp = block.timestamp;\r\n        upKeepInterval = _upKeepInterval;\r\n\r\n        id.increment();\r\n        \r\n    }\r\n\r\n    function register(\r\n        string memory _userDetails\r\n        ) \r\n        public  {\r\n        require(!isRegistered[msg.sender], \"Caller address already exists\");\r\n\r\n        Client memory client = Client({\r\n            underlyingAsset: address(0),\r\n            depositedAmount: 0,\r\n            amountToSpend: 0,\r\n            approvedAmountToSpend: 0,\r\n            startTime: block.timestamp,\r\n            timeDurationOfdeposit: 0,\r\n            lockTime: 0,\r\n            ipfsHashOfUserPensionDetails: \"\",\r\n            userLastRewardBlock: block.number,\r\n            hasPlan: false\r\n        });\r\n\r\n        User memory user = User({\r\n            id: id.current(),\r\n            userAddress: payable(msg.sender),\r\n            userDetails: _userDetails,\r\n            client: client\r\n        });\r\n\r\n       \r\n\r\n        pensionServiceApplicant[msg.sender] = user;\r\n        users.push(user);\r\n        isRegistered[msg.sender] = true;\r\n\r\n        id.increment();\r\n\r\n        emit Register(msg.sender, user.userDetails);\r\n    }\r\n\r\n\r\n\r\n    function deposit(address _asset ,uint256 _amount) public payable  {\r\n        require(isRegistered[msg.sender], \"Caller is not Registered\");\r\n        User storage user = pensionServiceApplicant[msg.sender];\r\n        CTokenInterface cToken = CTokenInterface(_asset);\r\n\t\taddress underlyingAsset = cToken.underlying();\r\n        IERC20(underlyingAsset).transferFrom(msg.sender, address(this), _amount);\r\n        uint balance = IERC20(underlyingAsset).balanceOf(address(this));\r\n        require(balance >= _amount, \"Transfer failed\");\r\n        address cTokenaddress = user.client.underlyingAsset;\r\n        _supply(cTokenaddress, _amount);\r\n        user.client.depositedAmount = user.client.depositedAmount.add(_amount);\r\n        // user.client.depositedAmount = user.client.depositedAmount.add(_amount);\r\n        user.client.approvedAmountToSpend = user.client.approvedAmountToSpend.sub(user.client.amountToSpend);\r\n        user.client.startTime = block.timestamp;\r\n        user.client.userLastRewardBlock = user.client.userLastRewardBlock.add(block.number);\r\n        ccInterest = ccInterest.mul(block.number);\r\n        lastTimeStamp = block.timestamp;\r\n        emit Deposit(address(this), underlyingAsset, _amount);\r\n\r\n    }\r\n\r\n\r\n\r\n//     function _enterMarket(address _cTokenaddress) internal {\r\n// \t\taddress[] memory markets = new address[](1);\r\n// \t\tmarkets[0] = _cTokenaddress;\r\n// \t\tuint[] memory results = comptroller.enterMarkets(markets);\r\n// \t\trequire( results[0] == 0, 'comptroller#enterMarkets() failed. see Compound ErrorReporter.sol');\r\n// \t}\r\n\r\n\r\n\r\n\r\n\r\n\r\n    function _supply(address cTokenaddress, uint underlyingAmount) internal {\r\n        require(underlyingAmount > 0, \"Amount Cannot be 0\");\r\n        // _enterMarket(cTokenaddress);\r\n\t\tCTokenInterface cToken = CTokenInterface(cTokenaddress);\r\n\t\taddress underlyingAddress = cToken.underlying();\r\n\t\tIERC20(underlyingAddress).approve(cTokenaddress, underlyingAmount);\r\n\r\n\t\tuint result = cToken.mint(underlyingAmount);\r\n\t\trequire(result == 0, 'cToken#mint() failed. see Compound ErrorReporter.sol');\r\n\t}\r\n\r\n\r\n//     // chainlink keeper function call\r\n    // function checkUpkeep(bytes calldata /* checkData */) external view override returns(bool, bytes memory)   {\r\n        \r\n    //     return (block.timestamp.sub(lastTimeStamp) > upKeepInterval, bytes(abi.encode(users)));\r\n    //     // (block.timestamp.sub(lastTimeStamp) > upKeepInterval);\r\n        \r\n    // }\r\n\r\n\r\n\r\n\r\n    // function performUpkeep(bytes calldata performData ) external override  {\r\n    //     // User[] memory usersArray = abi.decode(performData, (User[]));\r\n    //     // for(uint256 i = 0; i < usersArray.length - 1; i++ ) {\r\n    //             User memory  user = pensionServiceApplicant[msg.sender];\r\n    //             require(isRegistered[user.userAddress], \"Address not registered\");\r\n    //             require(user.client.approvedAmountToSpend > 0, \"Insufficient balance cannot perform upkeep\");\r\n    //             require(user.client.hasPlan, \"Client has no plan\");\r\n    //              CTokenInterface cToken = CTokenInterface(user.client.underlyingAsset);\r\n\r\n    //             uint amountToDeposit = user.client.amountToSpend;\r\n    //             address underlyingAsset = cToken.underlying();\r\n    //             user.client.depositedAmount = user.client.depositedAmount.add(amountToDeposit);\r\n    //             IERC20(underlyingAsset).transferFrom(user.userAddress, address(this),  amountToDeposit);\r\n    //             uint balance = IERC20(underlyingAsset).balanceOf(address(this));\r\n    //             require(balance == amountToDeposit, \"Transfer failed\");\r\n    //             _deposit(user.client.underlyingAsset, balance);\r\n    //             // address cLink = 0xFAce851a4921ce59e912d19329929CE6da6EB0c7;\r\n    //             // emit Transfer(user.userAddress, user.client.depositedAmount, address(this));\r\n    //             // _supply(user.client.underlyingAsset, user.client.amountToSpend);\r\n    //             user.client.depositedAmount = user.client.depositedAmount.add(amountToDeposit);\r\n    //             user.client.approvedAmountToSpend = user.client.approvedAmountToSpend.sub(user.client.amountToSpend);\r\n    //             user.client.startTime = block.timestamp;\r\n    //             user.client.userLastRewardBlock = user.client.userLastRewardBlock.add(block.number);\r\n    //             ccInterest = ccInterest.mul(block.number);\r\n    //             lastTimeStamp = block.timestamp;\r\n\r\n    //             emit Deposit(user.userAddress, address(this), user.client.depositedAmount);\r\n    //     // }\r\n            \r\n    //     // emit Update(pensionServiceApplicant[msg.sender].depositedAmount);\r\n\r\n    // }\r\n\r\n\r\n\r\n    function withdraw() public {\r\n        require(isRegistered[msg.sender], \"Caller not registered\");\r\n\r\n        // Point to the User in Storage\r\n        User memory user = pensionServiceApplicant[msg.sender];\r\n        // require(user.client.depositedAmount > 0, \"Insufficient Balance\");\r\n        // require(user.client.hasPlan, \"Caller has no plan\");\r\n\r\n        if(block.timestamp < user.client.lockTime) {\r\n            // require(user.client.depositedAmount > 0, \"insufficient balance\");\r\n            CTokenInterface cToken = CTokenInterface(user.client.underlyingAsset);\r\n            address underlyingAsset = cToken.underlying();\r\n            _redeem(user.client.underlyingAsset, user.client.depositedAmount);\r\n            uint balance = IERC20(underlyingAsset).balanceOf(address(this));\r\n            require(balance == user.client.depositedAmount, 'Balance too low');\r\n            // isRegistered[msg.sender] = false;\r\n            uint amountToSend = user.client.depositedAmount.div(2);\r\n            IERC20(underlyingAsset).transfer(user.userAddress, amountToSend);\r\n            user.client.depositedAmount = 0;\r\n            user.client.userLastRewardBlock = block.number;\r\n            ccInterest = ccInterest.add(block.number).div(1e8);\r\n            emit Withdraw(address(this), msg.sender, amountToSend);\r\n        } else {\r\n            CTokenInterface cToken = CTokenInterface(user.client.underlyingAsset);\r\n            address underlyingAsset = cToken.underlying();\r\n            _redeem(user.client.underlyingAsset, user.client.depositedAmount);\r\n            uint balance = IERC20(underlyingAsset).balanceOf(address(this));\r\n            require(balance == user.client.depositedAmount, 'Balance too low');\r\n            // isRegistered[msg.sender] = false;\r\n            uint amountToSend = user.client.depositedAmount;\r\n            IERC20(underlyingAsset).transfer(user.userAddress, amountToSend);\r\n            user.client.depositedAmount = 0;\r\n            user.client.userLastRewardBlock = block.number;\r\n\r\n            emit Withdraw(address(this), msg.sender, amountToSend);\r\n        }\r\n\r\n//         // require(block.timestamp > user.lockTime, \"Early withdrawal will cost you 50% of your initial deposit\");\r\n\r\n\r\n}\r\n\r\n\r\n    function _redeem(address cTokenaddress, uint tokenAmount) internal {\r\n        require(tokenAmount > 0, 'Amount cannot be 0');\r\n\t\tCTokenInterface cToken = CTokenInterface(cTokenaddress);\r\n\t\tuint result = cToken.redeemUnderlying(tokenAmount);\r\n\t\trequire(result == 0, 'cToken#redeem() failed. see Compound ErrorReporter.sol');\r\n\t}\r\n\r\n    // helper function for testing keepers\r\n    function updateTimeDurationOfDeposit() public  {\r\n        User storage user = pensionServiceApplicant[msg.sender];\r\n        require(isRegistered[user.userAddress], \"Caller is not registered\");\r\n        user.client.timeDurationOfdeposit = 0;\r\n        emit Update(user.client.timeDurationOfdeposit);\r\n    } \r\n\r\n    function setPlan(\r\n        address _underlyingAsset, \r\n        string memory _ipfsHashOfUserPensionDetails, \r\n        uint _approvedAmountToSpend, uint _amountToSpend, \r\n        uint _timeDurationOfDeposit, uint _lockTime) \r\n        public {\r\n        require(_approvedAmountToSpend > _amountToSpend, \"Set an amount greater than the recurring amount\");\r\n        require(_amountToSpend > 0, \"approve an amount greater than 0\");\r\n        require(isRegistered[msg.sender], \"Caller has to be Registered\");\r\n        User storage user = pensionServiceApplicant[msg.sender];\r\n        require(user.client.lockTime == 0, \"Caller already has a lock Time Set\");\r\n        user.client.underlyingAsset = _underlyingAsset;\r\n        user.client.lockTime = block.timestamp + _lockTime;\r\n        user.client.timeDurationOfdeposit = block.timestamp.add(_timeDurationOfDeposit);\r\n        user.client.ipfsHashOfUserPensionDetails = _ipfsHashOfUserPensionDetails;\r\n        user.client.approvedAmountToSpend = _approvedAmountToSpend;\r\n        user.client.amountToSpend = _amountToSpend;\r\n        user.client.hasPlan = true;\r\n\r\n        emit Plan(msg.sender, user.client.ipfsHashOfUserPensionDetails, user.client.lockTime);\r\n    }\r\n\r\n\r\n\r\n//     // for Xend\r\n\r\n    function getXendPendingRewards(address _user) public view returns(uint) {\r\n        User storage user = pensionServiceApplicant[_user];\r\n        uint256 accXendRewards = xendFinance.GetMemberXendTokenReward(address(this));\r\n        uint256 userPendingRewards = user.client.depositedAmount.mul(accXendRewards).div(1e8);\r\n\r\n        return userPendingRewards;\r\n    }\r\n\r\n\r\n\r\n    function depositToXendFinance(uint _amount) public  {\r\n        // require(isRegistered[msg.sender], \"Caller not Registered\");\r\n        User storage user = pensionServiceApplicant[msg.sender];\r\n        xendFinance.deposit();\r\n        user.client.depositedAmount = user.client.depositedAmount.add(_amount);\r\n\r\n        emit Deposit(msg.sender, address(xend), user.client.depositedAmount);\r\n        \r\n    }\r\n\r\n\r\n\r\n    function withdrawFromXendFinance() public {\r\n        require(isRegistered[msg.sender], \"Caller not Registered\");\r\n        User storage user = pensionServiceApplicant[msg.sender];\r\n        xendFinance.withdraw(user.client.depositedAmount);\r\n        uint256 xendBalance = xend.balanceOf(address(this));\r\n        require(xendBalance > user.client.depositedAmount, \"Withdrawing more than you deposited\");\r\n        accXendTokens = xendBalance;\r\n        uint256 accXendTokensforUser = user.client.depositedAmount.mul(accXendTokens).div(1e8);\r\n        xend.transfer(msg.sender, accXendTokensforUser);\r\n\r\n    }\r\n\r\n    function getAccruedInterest() public view returns(uint) {\r\n        User storage user = pensionServiceApplicant[msg.sender];\r\n        require(isRegistered[user.userAddress], \"Caller not registered\");\r\n        CTokenInterface ctoken = CTokenInterface(user.client.underlyingAsset);\r\n        uint supplyRatePerBlock = ctoken.supplyRatePerBlock();\r\n        uint accInterest = user.client.depositedAmount.mul(supplyRatePerBlock).div(ccInterest).div(1e8);\r\n        return accInterest;\r\n    }\r\n}",
  "sourcePath": "C:\\Users\\CHIDIEBERE-PC\\Desktop\\projects\\Blockchain\\beima_app-master\\contracts\\PensionServiceProvider.sol",
  "compiler": {
    "name": "solc",
    "version": "0.8.0+commit.c7dfd78e.Emscripten.clang"
  },
  "schemaVersion": "3.4.3",
  "updatedAt": "2021-12-04T23:09:38.643Z",
  "networkType": "ethereum",
  "devdoc": {
    "kind": "dev",
    "methods": {},
    "version": 1
  },
  "userdoc": {
    "kind": "user",
    "methods": {},
    "version": 1
  }
}