{
  "contractName": "Beima",
  "abi": [
    {
      "inputs": [
        {
          "internalType": "address",
          "name": "_xend",
          "type": "address"
        },
        {
          "internalType": "address",
          "name": "_xendFinanceIndividual_Yearn_V1",
          "type": "address"
        },
        {
          "internalType": "address",
          "name": "_comptroller",
          "type": "address"
        },
        {
          "internalType": "address",
          "name": "_priceOracle",
          "type": "address"
        },
        {
          "internalType": "uint256",
          "name": "_upKeepInterval",
          "type": "uint256"
        }
      ],
      "stateMutability": "nonpayable",
      "type": "constructor"
    },
    {
      "anonymous": false,
      "inputs": [
        {
          "indexed": true,
          "internalType": "address",
          "name": "sender",
          "type": "address"
        },
        {
          "indexed": false,
          "internalType": "address",
          "name": "receiver",
          "type": "address"
        },
        {
          "indexed": true,
          "internalType": "uint256",
          "name": "amountSpent",
          "type": "uint256"
        }
      ],
      "name": "Deposit",
      "type": "event"
    },
    {
      "anonymous": false,
      "inputs": [
        {
          "indexed": false,
          "internalType": "string",
          "name": "",
          "type": "string"
        },
        {
          "indexed": false,
          "internalType": "uint256",
          "name": "",
          "type": "uint256"
        }
      ],
      "name": "MyLog",
      "type": "event"
    },
    {
      "anonymous": false,
      "inputs": [
        {
          "indexed": false,
          "internalType": "address",
          "name": "user",
          "type": "address"
        },
        {
          "indexed": false,
          "internalType": "string",
          "name": "planDetails",
          "type": "string"
        },
        {
          "indexed": false,
          "internalType": "uint256",
          "name": "lockTime",
          "type": "uint256"
        }
      ],
      "name": "Plan",
      "type": "event"
    },
    {
      "anonymous": false,
      "inputs": [
        {
          "indexed": true,
          "internalType": "address",
          "name": "applicant",
          "type": "address"
        },
        {
          "indexed": true,
          "internalType": "string",
          "name": "applicantDetails",
          "type": "string"
        }
      ],
      "name": "Register",
      "type": "event"
    },
    {
      "anonymous": false,
      "inputs": [
        {
          "indexed": false,
          "internalType": "address",
          "name": "sender",
          "type": "address"
        },
        {
          "indexed": false,
          "internalType": "uint256",
          "name": "amount",
          "type": "uint256"
        }
      ],
      "name": "Supply",
      "type": "event"
    },
    {
      "anonymous": false,
      "inputs": [
        {
          "indexed": true,
          "internalType": "address",
          "name": "sender",
          "type": "address"
        },
        {
          "indexed": false,
          "internalType": "uint256",
          "name": "amount",
          "type": "uint256"
        },
        {
          "indexed": true,
          "internalType": "address",
          "name": "receiver",
          "type": "address"
        }
      ],
      "name": "Transfer",
      "type": "event"
    },
    {
      "anonymous": false,
      "inputs": [
        {
          "indexed": false,
          "internalType": "uint256",
          "name": "timeDuration",
          "type": "uint256"
        }
      ],
      "name": "Update",
      "type": "event"
    },
    {
      "anonymous": false,
      "inputs": [
        {
          "indexed": false,
          "internalType": "address",
          "name": "sender",
          "type": "address"
        },
        {
          "indexed": false,
          "internalType": "bool",
          "name": "upkeep",
          "type": "bool"
        }
      ],
      "name": "Upkeep",
      "type": "event"
    },
    {
      "anonymous": false,
      "inputs": [
        {
          "indexed": false,
          "internalType": "address",
          "name": "from",
          "type": "address"
        },
        {
          "indexed": false,
          "internalType": "address",
          "name": "to",
          "type": "address"
        },
        {
          "indexed": false,
          "internalType": "uint256",
          "name": "amount",
          "type": "uint256"
        }
      ],
      "name": "Withdraw",
      "type": "event"
    },
    {
      "inputs": [
        {
          "internalType": "address",
          "name": "",
          "type": "address"
        }
      ],
      "name": "amountSupplied",
      "outputs": [
        {
          "internalType": "uint256",
          "name": "",
          "type": "uint256"
        }
      ],
      "stateMutability": "view",
      "type": "function",
      "constant": true
    },
    {
      "inputs": [
        {
          "internalType": "address",
          "name": "",
          "type": "address"
        },
        {
          "internalType": "address",
          "name": "",
          "type": "address"
        }
      ],
      "name": "assets",
      "outputs": [
        {
          "internalType": "uint256",
          "name": "",
          "type": "uint256"
        }
      ],
      "stateMutability": "view",
      "type": "function",
      "constant": true
    },
    {
      "inputs": [],
      "name": "busd",
      "outputs": [
        {
          "internalType": "contract IERC20",
          "name": "",
          "type": "address"
        }
      ],
      "stateMutability": "view",
      "type": "function",
      "constant": true
    },
    {
      "inputs": [],
      "name": "comptroller",
      "outputs": [
        {
          "internalType": "contract ComptrollerInterface",
          "name": "",
          "type": "address"
        }
      ],
      "stateMutability": "view",
      "type": "function",
      "constant": true
    },
    {
      "inputs": [
        {
          "internalType": "address",
          "name": "",
          "type": "address"
        }
      ],
      "name": "hasRedeemed",
      "outputs": [
        {
          "internalType": "bool",
          "name": "",
          "type": "bool"
        }
      ],
      "stateMutability": "view",
      "type": "function",
      "constant": true
    },
    {
      "inputs": [
        {
          "internalType": "address",
          "name": "",
          "type": "address"
        }
      ],
      "name": "isRegistered",
      "outputs": [
        {
          "internalType": "bool",
          "name": "",
          "type": "bool"
        }
      ],
      "stateMutability": "view",
      "type": "function",
      "constant": true
    },
    {
      "inputs": [],
      "name": "lastTimeStamp",
      "outputs": [
        {
          "internalType": "uint256",
          "name": "",
          "type": "uint256"
        }
      ],
      "stateMutability": "view",
      "type": "function",
      "constant": true
    },
    {
      "inputs": [
        {
          "internalType": "address",
          "name": "",
          "type": "address"
        }
      ],
      "name": "pensionServiceApplicant",
      "outputs": [
        {
          "internalType": "uint256",
          "name": "id",
          "type": "uint256"
        },
        {
          "internalType": "address payable",
          "name": "userAddress",
          "type": "address"
        },
        {
          "internalType": "string",
          "name": "userDetails",
          "type": "string"
        },
        {
          "components": [
            {
              "internalType": "address",
              "name": "underlyingAsset",
              "type": "address"
            },
            {
              "internalType": "uint256",
              "name": "depositedAmount",
              "type": "uint256"
            },
            {
              "internalType": "uint256",
              "name": "amountToSpend",
              "type": "uint256"
            },
            {
              "internalType": "uint256",
              "name": "approvedAmountToSpend",
              "type": "uint256"
            },
            {
              "internalType": "uint256",
              "name": "startTime",
              "type": "uint256"
            },
            {
              "internalType": "uint256",
              "name": "timeDurationOfdeposit",
              "type": "uint256"
            },
            {
              "internalType": "uint256",
              "name": "lockTime",
              "type": "uint256"
            },
            {
              "internalType": "string",
              "name": "ipfsHashOfUserPensionDetails",
              "type": "string"
            },
            {
              "internalType": "uint256",
              "name": "userLastRewardBlock",
              "type": "uint256"
            },
            {
              "internalType": "bool",
              "name": "hasPlan",
              "type": "bool"
            }
          ],
          "internalType": "struct Beima.Client",
          "name": "client",
          "type": "tuple"
        }
      ],
      "stateMutability": "view",
      "type": "function",
      "constant": true
    },
    {
      "inputs": [],
      "name": "priceOracle",
      "outputs": [
        {
          "internalType": "contract PriceOracleInterface",
          "name": "",
          "type": "address"
        }
      ],
      "stateMutability": "view",
      "type": "function",
      "constant": true
    },
    {
      "inputs": [],
      "name": "upKeepInterval",
      "outputs": [
        {
          "internalType": "uint256",
          "name": "",
          "type": "uint256"
        }
      ],
      "stateMutability": "view",
      "type": "function",
      "constant": true
    },
    {
      "inputs": [
        {
          "internalType": "uint256",
          "name": "",
          "type": "uint256"
        }
      ],
      "name": "users",
      "outputs": [
        {
          "internalType": "uint256",
          "name": "id",
          "type": "uint256"
        },
        {
          "internalType": "address payable",
          "name": "userAddress",
          "type": "address"
        },
        {
          "internalType": "string",
          "name": "userDetails",
          "type": "string"
        },
        {
          "components": [
            {
              "internalType": "address",
              "name": "underlyingAsset",
              "type": "address"
            },
            {
              "internalType": "uint256",
              "name": "depositedAmount",
              "type": "uint256"
            },
            {
              "internalType": "uint256",
              "name": "amountToSpend",
              "type": "uint256"
            },
            {
              "internalType": "uint256",
              "name": "approvedAmountToSpend",
              "type": "uint256"
            },
            {
              "internalType": "uint256",
              "name": "startTime",
              "type": "uint256"
            },
            {
              "internalType": "uint256",
              "name": "timeDurationOfdeposit",
              "type": "uint256"
            },
            {
              "internalType": "uint256",
              "name": "lockTime",
              "type": "uint256"
            },
            {
              "internalType": "string",
              "name": "ipfsHashOfUserPensionDetails",
              "type": "string"
            },
            {
              "internalType": "uint256",
              "name": "userLastRewardBlock",
              "type": "uint256"
            },
            {
              "internalType": "bool",
              "name": "hasPlan",
              "type": "bool"
            }
          ],
          "internalType": "struct Beima.Client",
          "name": "client",
          "type": "tuple"
        }
      ],
      "stateMutability": "view",
      "type": "function",
      "constant": true
    },
    {
      "inputs": [],
      "name": "xend",
      "outputs": [
        {
          "internalType": "contract IERC20",
          "name": "",
          "type": "address"
        }
      ],
      "stateMutability": "view",
      "type": "function",
      "constant": true
    },
    {
      "inputs": [],
      "name": "xendFinance",
      "outputs": [
        {
          "internalType": "contract XendFinanceInterface",
          "name": "",
          "type": "address"
        }
      ],
      "stateMutability": "view",
      "type": "function",
      "constant": true
    },
    {
      "stateMutability": "payable",
      "type": "receive",
      "payable": true
    },
    {
      "inputs": [
        {
          "internalType": "string",
          "name": "_userDetails",
          "type": "string"
        }
      ],
      "name": "register",
      "outputs": [],
      "stateMutability": "nonpayable",
      "type": "function"
    },
    {
      "inputs": [
        {
          "internalType": "address",
          "name": "_asset",
          "type": "address"
        },
        {
          "internalType": "uint256",
          "name": "_amount",
          "type": "uint256"
        }
      ],
      "name": "depositToken",
      "outputs": [],
      "stateMutability": "nonpayable",
      "type": "function"
    },
    {
      "inputs": [
        {
          "internalType": "address",
          "name": "_asset",
          "type": "address"
        },
        {
          "internalType": "uint256",
          "name": "_amount",
          "type": "uint256"
        }
      ],
      "name": "withdrawToken",
      "outputs": [],
      "stateMutability": "nonpayable",
      "type": "function"
    },
    {
      "inputs": [
        {
          "internalType": "address",
          "name": "cTokenaddress",
          "type": "address"
        }
      ],
      "name": "supply",
      "outputs": [
        {
          "internalType": "uint256",
          "name": "",
          "type": "uint256"
        }
      ],
      "stateMutability": "nonpayable",
      "type": "function"
    },
    {
      "inputs": [
        {
          "internalType": "uint256",
          "name": "amount",
          "type": "uint256"
        },
        {
          "internalType": "address",
          "name": "_cErc20Contract",
          "type": "address"
        }
      ],
      "name": "redeemCErc20Tokens",
      "outputs": [
        {
          "internalType": "bool",
          "name": "",
          "type": "bool"
        }
      ],
      "stateMutability": "nonpayable",
      "type": "function"
    },
    {
      "inputs": [
        {
          "internalType": "address",
          "name": "_underlyingAsset",
          "type": "address"
        },
        {
          "internalType": "string",
          "name": "_ipfsHashOfUserPensionDetails",
          "type": "string"
        },
        {
          "internalType": "uint256",
          "name": "_approvedAmountToSpend",
          "type": "uint256"
        },
        {
          "internalType": "uint256",
          "name": "_amountToSpend",
          "type": "uint256"
        },
        {
          "internalType": "uint256",
          "name": "_timeDurationOfDeposit",
          "type": "uint256"
        },
        {
          "internalType": "uint256",
          "name": "_lockTime",
          "type": "uint256"
        }
      ],
      "name": "setPlan",
      "outputs": [],
      "stateMutability": "nonpayable",
      "type": "function"
    },
    {
      "inputs": [
        {
          "internalType": "address",
          "name": "ctokenAddress",
          "type": "address"
        }
      ],
      "name": "getAssetAddress",
      "outputs": [
        {
          "internalType": "address",
          "name": "",
          "type": "address"
        }
      ],
      "stateMutability": "view",
      "type": "function",
      "constant": true
    }
  ],
  "bytecode": "0x60806040523480156200001157600080fd5b50604051620038f8380380620038f88339818101604052810190620000379190620001ef565b84600760006101000a81548173ffffffffffffffffffffffffffffffffffffffff021916908373ffffffffffffffffffffffffffffffffffffffff160217905550826000806101000a81548173ffffffffffffffffffffffffffffffffffffffff021916908373ffffffffffffffffffffffffffffffffffffffff16021790555081600160006101000a81548173ffffffffffffffffffffffffffffffffffffffff021916908373ffffffffffffffffffffffffffffffffffffffff16021790555083600660006101000a81548173ffffffffffffffffffffffffffffffffffffffff021916908373ffffffffffffffffffffffffffffffffffffffff1602179055506200015d600a6729a2241af62c00006200019360201b620023651790919060201c565b6005819055504260098190555080600a81905550620001886002620001ab60201b6200237b1760201c565b50505050506200034a565b60008183620001a3919062000271565b905092915050565b6001816000016000828254019250508190555050565b600081519050620001d28162000316565b92915050565b600081519050620001e98162000330565b92915050565b600080600080600060a086880312156200020857600080fd5b60006200021888828901620001c1565b95505060206200022b88828901620001c1565b94505060406200023e88828901620001c1565b93505060606200025188828901620001c1565b92505060806200026488828901620001d8565b9150509295509295909350565b60006200027e82620002dd565b91506200028b83620002dd565b9250826200029e576200029d620002e7565b5b828204905092915050565b6000620002b682620002bd565b9050919050565b600073ffffffffffffffffffffffffffffffffffffffff82169050919050565b6000819050919050565b7f4e487b7100000000000000000000000000000000000000000000000000000000600052601260045260246000fd5b6200032181620002a9565b81146200032d57600080fd5b50565b6200033b81620002dd565b81146200034757600080fd5b50565b61359e806200035a6000396000f3fe6080604052600436106101235760003560e01c80635bc9d2bf116100a0578063c3c5a54711610064578063c3c5a5471461043b578063db78b67c14610478578063de15f0da146104b5578063f2c298be146104de578063f5dd60651461050757610131565b80635bc9d2bf1461032d5780635fe3b5671461036d57806384fea667146103985780639e281a98146103d5578063c2fab635146103fe57610131565b80633245f228116100e75780633245f22814610243578063338b5dea1461026e578063365b98b2146102975780633ca5b234146102d75780633f3b3b271461030257610131565b806319ae58f0146101365780631a15687b146101735780632108234d1461019e5780632630c12f146101db5780632a1a60311461020657610131565b366101315734600381905550005b600080fd5b34801561014257600080fd5b5061015d6004803603810190610158919061253f565b610532565b60405161016a9190613121565b60405180910390f35b34801561017f57600080fd5b50610188610971565b6040516101959190613121565b60405180910390f35b3480156101aa57600080fd5b506101c560048036038101906101c09190612591565b610977565b6040516101d29190613121565b60405180910390f35b3480156101e757600080fd5b506101f061099c565b6040516101fd9190612f3d565b60405180910390f35b34801561021257600080fd5b5061022d6004803603810190610228919061253f565b6109c2565b60405161023a9190612e33565b60405180910390f35b34801561024f57600080fd5b50610258610a4e565b6040516102659190612f22565b60405180910390f35b34801561027a57600080fd5b506102956004803603810190610290919061266e565b610a74565b005b3480156102a357600080fd5b506102be60048036038101906102b99190612714565b611199565b6040516102ce949392919061313c565b60405180910390f35b3480156102e357600080fd5b506102ec6113d5565b6040516102f99190612f22565b60405180910390f35b34801561030e57600080fd5b506103176113fb565b6040516103249190613121565b60405180910390f35b34801561033957600080fd5b50610354600480360381019061034f919061253f565b611401565b604051610364949392919061313c565b60405180910390f35b34801561037957600080fd5b5061038261162d565b60405161038f9190612f07565b60405180910390f35b3480156103a457600080fd5b506103bf60048036038101906103ba9190612766565b611651565b6040516103cc9190612eec565b60405180910390f35b3480156103e157600080fd5b506103fc60048036038101906103f7919061266e565b611781565b005b34801561040a57600080fd5b506104256004803603810190610420919061253f565b611b30565b6040516104329190613121565b60405180910390f35b34801561044757600080fd5b50610462600480360381019061045d919061253f565b611b48565b60405161046f9190612eec565b60405180910390f35b34801561048457600080fd5b5061049f600480360381019061049a919061253f565b611b68565b6040516104ac9190612eec565b60405180910390f35b3480156104c157600080fd5b506104dc60048036038101906104d791906125cd565b611b88565b005b3480156104ea57600080fd5b50610505600480360381019061050091906126d3565b611e3b565b005b34801561051357600080fd5b5061051c61233f565b6040516105299190612f58565b60405180910390f35b60008082905060008173ffffffffffffffffffffffffffffffffffffffff16636f307dc36040518163ffffffff1660e01b815260040160206040518083038186803b15801561058057600080fd5b505afa158015610594573d6000803e3d6000fd5b505050506040513d601f19601f820116820180604052508101906105b89190612568565b90506000600d60003373ffffffffffffffffffffffffffffffffffffffff1673ffffffffffffffffffffffffffffffffffffffff168152602001908152602001600020541161063c576040517f08c379a000000000000000000000000000000000000000000000000000000000815260040161063390613061565b60405180910390fd5b8073ffffffffffffffffffffffffffffffffffffffff1663095ea7b385600d60003373ffffffffffffffffffffffffffffffffffffffff1673ffffffffffffffffffffffffffffffffffffffff168152602001908152602001600020546040518363ffffffff1660e01b81526004016106b6929190612ec3565b602060405180830381600087803b1580156106d057600080fd5b505af11580156106e4573d6000803e3d6000fd5b505050506040513d601f19601f8201168201806040525081019061070891906126aa565b5060008273ffffffffffffffffffffffffffffffffffffffff1663a0712d68600d60003373ffffffffffffffffffffffffffffffffffffffff1673ffffffffffffffffffffffffffffffffffffffff168152602001908152602001600020546040518263ffffffff1660e01b81526004016107839190613121565b602060405180830381600087803b15801561079d57600080fd5b505af11580156107b1573d6000803e3d6000fd5b505050506040513d601f19601f820116820180604052508101906107d5919061273d565b9050610868600d60003373ffffffffffffffffffffffffffffffffffffffff1673ffffffffffffffffffffffffffffffffffffffff16815260200190815260200160002054600d60003373ffffffffffffffffffffffffffffffffffffffff1673ffffffffffffffffffffffffffffffffffffffff1681526020019081526020016000205461239190919063ffffffff16565b600d60003373ffffffffffffffffffffffffffffffffffffffff1673ffffffffffffffffffffffffffffffffffffffff16815260200190815260200160002081905550600081146108ee576040517f08c379a00000000000000000000000000000000000000000000000000000000081526004016108e590612fa1565b60405180910390fd5b7fadacf827efe383160192c092d8658471945c074229a9746679b5e2b74adff19133600d60003373ffffffffffffffffffffffffffffffffffffffff1673ffffffffffffffffffffffffffffffffffffffff1681526020019081526020016000205460405161095e929190612ec3565b60405180910390a1809350505050919050565b600a5481565b600c602052816000526040600020602052806000526040600020600091509150505481565b600160009054906101000a900473ffffffffffffffffffffffffffffffffffffffff1681565b6000808290508073ffffffffffffffffffffffffffffffffffffffff16636f307dc36040518163ffffffff1660e01b815260040160206040518083038186803b158015610a0e57600080fd5b505afa158015610a22573d6000803e3d6000fd5b505050506040513d601f19601f82011682018060405250810190610a469190612568565b915050919050565b600760009054906101000a900473ffffffffffffffffffffffffffffffffffffffff1681565b6000600b60003373ffffffffffffffffffffffffffffffffffffffff1673ffffffffffffffffffffffffffffffffffffffff168152602001908152602001600020604051806080016040529081600082015481526020016001820160009054906101000a900473ffffffffffffffffffffffffffffffffffffffff1673ffffffffffffffffffffffffffffffffffffffff1673ffffffffffffffffffffffffffffffffffffffff168152602001600282018054610b3090613424565b80601f0160208091040260200160405190810160405280929190818152602001828054610b5c90613424565b8015610ba95780601f10610b7e57610100808354040283529160200191610ba9565b820191906000526020600020905b815481529060010190602001808311610b8c57829003601f168201915b5050505050815260200160038201604051806101400160405290816000820160009054906101000a900473ffffffffffffffffffffffffffffffffffffffff1673ffffffffffffffffffffffffffffffffffffffff1673ffffffffffffffffffffffffffffffffffffffff168152602001600182015481526020016002820154815260200160038201548152602001600482015481526020016005820154815260200160068201548152602001600782018054610c6590613424565b80601f0160208091040260200160405190810160405280929190818152602001828054610c9190613424565b8015610cde5780601f10610cb357610100808354040283529160200191610cde565b820191906000526020600020905b815481529060010190602001808311610cc157829003601f168201915b50505050508152602001600882015481526020016009820160009054906101000a900460ff161515151581525050815250509050600e60003373ffffffffffffffffffffffffffffffffffffffff1673ffffffffffffffffffffffffffffffffffffffff16815260200190815260200160002060009054906101000a900460ff16610d9e576040517f08c379a0000000000000000000000000000000000000000000000000000000008152600401610d9590613021565b60405180910390fd5b80606001516101200151610de7576040517f08c379a0000000000000000000000000000000000000000000000000000000008152600401610dde90612fe1565b60405180910390fd5b600073ffffffffffffffffffffffffffffffffffffffff168373ffffffffffffffffffffffffffffffffffffffff161415610e57576040517f08c379a0000000000000000000000000000000000000000000000000000000008152600401610e4e90613101565b60405180910390fd5b8273ffffffffffffffffffffffffffffffffffffffff166323b872dd3330856040518463ffffffff1660e01b8152600401610e9493929190612e4e565b602060405180830381600087803b158015610eae57600080fd5b505af1158015610ec2573d6000803e3d6000fd5b505050506040513d601f19601f82011682018060405250810190610ee691906126aa565b610f25576040517f08c379a0000000000000000000000000000000000000000000000000000000008152600401610f1c906130c1565b60405180910390fd5b610fb482600c60008673ffffffffffffffffffffffffffffffffffffffff1673ffffffffffffffffffffffffffffffffffffffff16815260200190815260200160002060003373ffffffffffffffffffffffffffffffffffffffff1673ffffffffffffffffffffffffffffffffffffffff168152602001908152602001600020546123a790919063ffffffff16565b600c60008573ffffffffffffffffffffffffffffffffffffffff1673ffffffffffffffffffffffffffffffffffffffff16815260200190815260200160002060003373ffffffffffffffffffffffffffffffffffffffff1673ffffffffffffffffffffffffffffffffffffffff1681526020019081526020016000208190555061108682600d60003373ffffffffffffffffffffffffffffffffffffffff1673ffffffffffffffffffffffffffffffffffffffff168152602001908152602001600020546123a790919063ffffffff16565b600d60003373ffffffffffffffffffffffffffffffffffffffff1673ffffffffffffffffffffffffffffffffffffffff16815260200190815260200160002081905550600c60008473ffffffffffffffffffffffffffffffffffffffff1673ffffffffffffffffffffffffffffffffffffffff16815260200190815260200160002060003373ffffffffffffffffffffffffffffffffffffffff1673ffffffffffffffffffffffffffffffffffffffff168152602001908152602001600020543373ffffffffffffffffffffffffffffffffffffffff167f5548c837ab068cf56a2c2479df0882a4922fd203edb7517321831d95078c5f628560405161118c9190612e33565b60405180910390a3505050565b601081815481106111a957600080fd5b90600052602060002090600d02016000915090508060000154908060010160009054906101000a900473ffffffffffffffffffffffffffffffffffffffff16908060020180546111f890613424565b80601f016020809104026020016040519081016040528092919081815260200182805461122490613424565b80156112715780601f1061124657610100808354040283529160200191611271565b820191906000526020600020905b81548152906001019060200180831161125457829003601f168201915b50505050509080600301604051806101400160405290816000820160009054906101000a900473ffffffffffffffffffffffffffffffffffffffff1673ffffffffffffffffffffffffffffffffffffffff1673ffffffffffffffffffffffffffffffffffffffff16815260200160018201548152602001600282015481526020016003820154815260200160048201548152602001600582015481526020016006820154815260200160078201805461132990613424565b80601f016020809104026020016040519081016040528092919081815260200182805461135590613424565b80156113a25780601f10611377576101008083540402835291602001916113a2565b820191906000526020600020905b81548152906001019060200180831161138557829003601f168201915b50505050508152602001600882015481526020016009820160009054906101000a900460ff161515151581525050905084565b600860009054906101000a900473ffffffffffffffffffffffffffffffffffffffff1681565b60095481565b600b6020528060005260406000206000915090508060000154908060010160009054906101000a900473ffffffffffffffffffffffffffffffffffffffff169080600201805461145090613424565b80601f016020809104026020016040519081016040528092919081815260200182805461147c90613424565b80156114c95780601f1061149e576101008083540402835291602001916114c9565b820191906000526020600020905b8154815290600101906020018083116114ac57829003601f168201915b50505050509080600301604051806101400160405290816000820160009054906101000a900473ffffffffffffffffffffffffffffffffffffffff1673ffffffffffffffffffffffffffffffffffffffff1673ffffffffffffffffffffffffffffffffffffffff16815260200160018201548152602001600282015481526020016003820154815260200160048201548152602001600582015481526020016006820154815260200160078201805461158190613424565b80601f01602080910402602001604051908101604052809291908181526020018280546115ad90613424565b80156115fa5780601f106115cf576101008083540402835291602001916115fa565b820191906000526020600020905b8154815290600101906020018083116115dd57829003601f168201915b50505050508152602001600882015481526020016009820160009054906101000a900460ff161515151581525050905084565b60008054906101000a900473ffffffffffffffffffffffffffffffffffffffff1681565b60008082905060008173ffffffffffffffffffffffffffffffffffffffff1663852a12e3866040518263ffffffff1660e01b81526004016116929190613121565b602060405180830381600087803b1580156116ac57600080fd5b505af11580156116c0573d6000803e3d6000fd5b505050506040513d601f19601f820116820180604052508101906116e4919061273d565b90506001600f60003373ffffffffffffffffffffffffffffffffffffffff1673ffffffffffffffffffffffffffffffffffffffff16815260200190815260200160002060006101000a81548160ff0219169083151502179055507f8d1cced004452bd270777a8c670f9f7e7c4fdde56f2db331fe289d39dc2624ad8160405161176d9190612f73565b60405180910390a160019250505092915050565b600f60003373ffffffffffffffffffffffffffffffffffffffff1673ffffffffffffffffffffffffffffffffffffffff16815260200190815260200160002060009054906101000a900460ff1661180d576040517f08c379a0000000000000000000000000000000000000000000000000000000008152600401611804906130a1565b60405180910390fd5b80600c60008473ffffffffffffffffffffffffffffffffffffffff1673ffffffffffffffffffffffffffffffffffffffff16815260200190815260200160002060003373ffffffffffffffffffffffffffffffffffffffff1673ffffffffffffffffffffffffffffffffffffffff16815260200190815260200160002054101561189657600080fd5b600073ffffffffffffffffffffffffffffffffffffffff168273ffffffffffffffffffffffffffffffffffffffff1614156118d057600080fd5b61195f81600c60008573ffffffffffffffffffffffffffffffffffffffff1673ffffffffffffffffffffffffffffffffffffffff16815260200190815260200160002060003373ffffffffffffffffffffffffffffffffffffffff1673ffffffffffffffffffffffffffffffffffffffff1681526020019081526020016000205461239190919063ffffffff16565b600c60008473ffffffffffffffffffffffffffffffffffffffff1673ffffffffffffffffffffffffffffffffffffffff16815260200190815260200160002060003373ffffffffffffffffffffffffffffffffffffffff1673ffffffffffffffffffffffffffffffffffffffff168152602001908152602001600020819055508173ffffffffffffffffffffffffffffffffffffffff1663a9059cbb33836040518363ffffffff1660e01b8152600401611a1a929190612ec3565b602060405180830381600087803b158015611a3457600080fd5b505af1158015611a48573d6000803e3d6000fd5b505050506040513d601f19601f82011682018060405250810190611a6c91906126aa565b611a7557600080fd5b7f9b1bfa7fa9ee420a16e124f794c35ac9f90472acc99140eb2f6447c714cad8eb3033600c60008673ffffffffffffffffffffffffffffffffffffffff1673ffffffffffffffffffffffffffffffffffffffff16815260200190815260200160002060003373ffffffffffffffffffffffffffffffffffffffff1673ffffffffffffffffffffffffffffffffffffffff16815260200190815260200160002054604051611b2493929190612e4e565b60405180910390a15050565b600d6020528060005260406000206000915090505481565b600e6020528060005260406000206000915054906101000a900460ff1681565b600f6020528060005260406000206000915054906101000a900460ff1681565b828411611bca576040517f08c379a0000000000000000000000000000000000000000000000000000000008152600401611bc1906130e1565b60405180910390fd5b60008311611c0d576040517f08c379a0000000000000000000000000000000000000000000000000000000008152600401611c0490613081565b60405180910390fd5b600e60003373ffffffffffffffffffffffffffffffffffffffff1673ffffffffffffffffffffffffffffffffffffffff16815260200190815260200160002060009054906101000a900460ff16611c99576040517f08c379a0000000000000000000000000000000000000000000000000000000008152600401611c9090613041565b60405180910390fd5b6000600b60003373ffffffffffffffffffffffffffffffffffffffff1673ffffffffffffffffffffffffffffffffffffffff16815260200190815260200160002090506000816003016006015414611d26576040517f08c379a0000000000000000000000000000000000000000000000000000000008152600401611d1d90613001565b60405180910390fd5b868160030160000160006101000a81548173ffffffffffffffffffffffffffffffffffffffff021916908373ffffffffffffffffffffffffffffffffffffffff160217905550818160030160060181905550611d8b83426123a790919063ffffffff16565b816003016005018190555085816003016007019080519060200190611db19291906123cb565b5084816003016003018190555083816003016002018190555060018160030160090160006101000a81548160ff0219169083151502179055507f0a342f2e207c3c328a10158ad0b71a9e64a10e319c5d635be24f8c7e418ea6e433826003016007018360030160060154604051611e2a93929190612e85565b60405180910390a150505050505050565b600e60003373ffffffffffffffffffffffffffffffffffffffff1673ffffffffffffffffffffffffffffffffffffffff16815260200190815260200160002060009054906101000a900460ff1615611ec8576040517f08c379a0000000000000000000000000000000000000000000000000000000008152600401611ebf90612fc1565b60405180910390fd5b6000604051806101400160405280600073ffffffffffffffffffffffffffffffffffffffff168152602001600081526020016000815260200160008152602001428152602001600081526020016000815260200160405180602001604052806000815250815260200143815260200160001515815250905060006040518060800160405280611f5760026123bd565b81526020013373ffffffffffffffffffffffffffffffffffffffff16815260200184815260200183815250905080600b60003373ffffffffffffffffffffffffffffffffffffffff1673ffffffffffffffffffffffffffffffffffffffff1681526020019081526020016000206000820151816000015560208201518160010160006101000a81548173ffffffffffffffffffffffffffffffffffffffff021916908373ffffffffffffffffffffffffffffffffffffffff16021790555060408201518160020190805190602001906120319291906123cb565b5060608201518160030160008201518160000160006101000a81548173ffffffffffffffffffffffffffffffffffffffff021916908373ffffffffffffffffffffffffffffffffffffffff1602179055506020820151816001015560408201518160020155606082015181600301556080820151816004015560a0820151816005015560c0820151816006015560e08201518160070190805190602001906120da9291906123cb565b5061010082015181600801556101208201518160090160006101000a81548160ff021916908315150217905550505090505060108190806001815401808255809150506001900390600052602060002090600d02016000909190919091506000820151816000015560208201518160010160006101000a81548173ffffffffffffffffffffffffffffffffffffffff021916908373ffffffffffffffffffffffffffffffffffffffff16021790555060408201518160020190805190602001906121a59291906123cb565b5060608201518160030160008201518160000160006101000a81548173ffffffffffffffffffffffffffffffffffffffff021916908373ffffffffffffffffffffffffffffffffffffffff1602179055506020820151816001015560408201518160020155606082015181600301556080820151816004015560a0820151816005015560c0820151816006015560e082015181600701908051906020019061224e9291906123cb565b5061010082015181600801556101208201518160090160006101000a81548160ff021916908315150217905550505050506001600e60003373ffffffffffffffffffffffffffffffffffffffff1673ffffffffffffffffffffffffffffffffffffffff16815260200190815260200160002060006101000a81548160ff0219169083151502179055506122e1600261237b565b826040516122ef9190612e1c565b60405180910390203373ffffffffffffffffffffffffffffffffffffffff167f6ba0831d2f62ae5cbf7214bcc1d79c5da1d705f12811efda0beaa840006f874e60405160405180910390a3505050565b600660009054906101000a900473ffffffffffffffffffffffffffffffffffffffff1681565b600081836123739190613293565b905092915050565b6001816000016000828254019250508190555050565b6000818361239f91906132c4565b905092915050565b600081836123b5919061323d565b905092915050565b600081600001549050919050565b8280546123d790613424565b90600052602060002090601f0160209004810192826123f95760008555612440565b82601f1061241257805160ff1916838001178555612440565b82800160010185558215612440579182015b8281111561243f578251825591602001919060010190612424565b5b50905061244d9190612451565b5090565b5b8082111561246a576000816000905550600101612452565b5090565b600061248161247c846131c0565b61318f565b90508281526020810184848401111561249957600080fd5b6124a48482856133e2565b509392505050565b6000813590506124bb81613523565b92915050565b6000815190506124d081613523565b92915050565b6000815190506124e58161353a565b92915050565b600082601f8301126124fc57600080fd5b813561250c84826020860161246e565b91505092915050565b60008135905061252481613551565b92915050565b60008151905061253981613551565b92915050565b60006020828403121561255157600080fd5b600061255f848285016124ac565b91505092915050565b60006020828403121561257a57600080fd5b6000612588848285016124c1565b91505092915050565b600080604083850312156125a457600080fd5b60006125b2858286016124ac565b92505060206125c3858286016124ac565b9150509250929050565b60008060008060008060c087890312156125e657600080fd5b60006125f489828a016124ac565b965050602087013567ffffffffffffffff81111561261157600080fd5b61261d89828a016124eb565b955050604061262e89828a01612515565b945050606061263f89828a01612515565b935050608061265089828a01612515565b92505060a061266189828a01612515565b9150509295509295509295565b6000806040838503121561268157600080fd5b600061268f858286016124ac565b92505060206126a085828601612515565b9150509250929050565b6000602082840312156126bc57600080fd5b60006126ca848285016124d6565b91505092915050565b6000602082840312156126e557600080fd5b600082013567ffffffffffffffff8111156126ff57600080fd5b61270b848285016124eb565b91505092915050565b60006020828403121561272657600080fd5b600061273484828501612515565b91505092915050565b60006020828403121561274f57600080fd5b600061275d8482850161252a565b91505092915050565b6000806040838503121561277957600080fd5b600061278785828601612515565b9250506020612798858286016124ac565b9150509250929050565b6127ab8161330a565b82525050565b6127ba816132f8565b82525050565b6127c9816132f8565b82525050565b6127d88161331c565b82525050565b6127e78161331c565b82525050565b6127f681613352565b82525050565b61280581613376565b82525050565b6128148161339a565b82525050565b612823816133be565b82525050565b600061283482613205565b61283e8185613210565b935061284e8185602086016133f1565b61285781613512565b840191505092915050565b600061286d82613205565b6128778185613221565b93506128878185602086016133f1565b61289081613512565b840191505092915050565b60006128a682613205565b6128b08185613232565b93506128c08185602086016133f1565b80840191505092915050565b600081546128d981613424565b6128e38186613221565b945060018216600081146128fe576001811461291057612943565b60ff1983168652602086019350612943565b612919856131f0565b60005b8381101561293b5781548189015260018201915060208101905061291c565b808801955050505b50505092915050565b6000612959602483613221565b91507f49662074686973206973206e6f7420302c2074686572652077617320616e206560008301527f72726f72000000000000000000000000000000000000000000000000000000006020830152604082019050919050565b60006129bf603483613221565b91507f63546f6b656e236d696e742829206661696c65642e2073656520436f6d706f7560008301527f6e64204572726f725265706f727465722e736f6c0000000000000000000000006020830152604082019050919050565b6000612a25601d83613221565b91507f43616c6c6572206164647265737320616c7265616479206578697374730000006000830152602082019050919050565b6000612a65601283613221565b91507f43616c6c657220686173206e6f20706c616e00000000000000000000000000006000830152602082019050919050565b6000612aa5602283613221565b91507f43616c6c657220616c7265616479206861732061206c6f636b2054696d65205360008301527f65740000000000000000000000000000000000000000000000000000000000006020830152604082019050919050565b6000612b0b601583613221565b91507f43616c6c6572206e6f74207265676973746572656400000000000000000000006000830152602082019050919050565b6000612b4b601b83613221565b91507f43616c6c65722068617320746f206265205265676973746572656400000000006000830152602082019050919050565b6000612b8b601283613221565b91507f416d6f756e742063616e6e6f74206265203000000000000000000000000000006000830152602082019050919050565b6000612bcb602083613221565b91507f617070726f766520616e20616d6f756e742067726561746572207468616e20306000830152602082019050919050565b6000612c0b601e83613221565b91507f52656465656d2066756e6473206265666f7265207769746864726177616c00006000830152602082019050919050565b6000612c4b601283613221565b91507f4465706f73697420686173206661696c656400000000000000000000000000006000830152602082019050919050565b6000612c8b602f83613221565b91507f53657420616e20616d6f756e742067726561746572207468616e20746865207260008301527f6563757272696e6720616d6f756e7400000000000000000000000000000000006020830152604082019050919050565b6000612cf1601283613221565b91507f4164647265737320697320696e76616c696400000000000000000000000000006000830152602082019050919050565b600061014083016000830151612d3d60008601826127b1565b506020830151612d506020860182612dfe565b506040830151612d636040860182612dfe565b506060830151612d766060860182612dfe565b506080830151612d896080860182612dfe565b5060a0830151612d9c60a0860182612dfe565b5060c0830151612daf60c0860182612dfe565b5060e083015184820360e0860152612dc78282612829565b915050610100830151612dde610100860182612dfe565b50610120830151612df36101208601826127cf565b508091505092915050565b612e0781613348565b82525050565b612e1681613348565b82525050565b6000612e28828461289b565b915081905092915050565b6000602082019050612e4860008301846127c0565b92915050565b6000606082019050612e6360008301866127c0565b612e7060208301856127c0565b612e7d6040830184612e0d565b949350505050565b6000606082019050612e9a60008301866127c0565b8181036020830152612eac81856128cc565b9050612ebb6040830184612e0d565b949350505050565b6000604082019050612ed860008301856127c0565b612ee56020830184612e0d565b9392505050565b6000602082019050612f0160008301846127de565b92915050565b6000602082019050612f1c60008301846127ed565b92915050565b6000602082019050612f3760008301846127fc565b92915050565b6000602082019050612f52600083018461280b565b92915050565b6000602082019050612f6d600083018461281a565b92915050565b60006040820190508181036000830152612f8c8161294c565b9050612f9b6020830184612e0d565b92915050565b60006020820190508181036000830152612fba816129b2565b9050919050565b60006020820190508181036000830152612fda81612a18565b9050919050565b60006020820190508181036000830152612ffa81612a58565b9050919050565b6000602082019050818103600083015261301a81612a98565b9050919050565b6000602082019050818103600083015261303a81612afe565b9050919050565b6000602082019050818103600083015261305a81612b3e565b9050919050565b6000602082019050818103600083015261307a81612b7e565b9050919050565b6000602082019050818103600083015261309a81612bbe565b9050919050565b600060208201905081810360008301526130ba81612bfe565b9050919050565b600060208201905081810360008301526130da81612c3e565b9050919050565b600060208201905081810360008301526130fa81612c7e565b9050919050565b6000602082019050818103600083015261311a81612ce4565b9050919050565b60006020820190506131366000830184612e0d565b92915050565b60006080820190506131516000830187612e0d565b61315e60208301866127a2565b81810360408301526131708185612862565b905081810360608301526131848184612d24565b905095945050505050565b6000604051905081810181811067ffffffffffffffff821117156131b6576131b56134e3565b5b8060405250919050565b600067ffffffffffffffff8211156131db576131da6134e3565b5b601f19601f8301169050602081019050919050565b60008190508160005260206000209050919050565b600081519050919050565b600082825260208201905092915050565b600082825260208201905092915050565b600081905092915050565b600061324882613348565b915061325383613348565b9250827fffffffffffffffffffffffffffffffffffffffffffffffffffffffffffffffff0382111561328857613287613456565b5b828201905092915050565b600061329e82613348565b91506132a983613348565b9250826132b9576132b8613485565b5b828204905092915050565b60006132cf82613348565b91506132da83613348565b9250828210156132ed576132ec613456565b5b828203905092915050565b600061330382613328565b9050919050565b600061331582613328565b9050919050565b60008115159050919050565b600073ffffffffffffffffffffffffffffffffffffffff82169050919050565b6000819050919050565b600061335d82613364565b9050919050565b600061336f82613328565b9050919050565b600061338182613388565b9050919050565b600061339382613328565b9050919050565b60006133a5826133ac565b9050919050565b60006133b782613328565b9050919050565b60006133c9826133d0565b9050919050565b60006133db82613328565b9050919050565b82818337600083830152505050565b60005b8381101561340f5780820151818401526020810190506133f4565b8381111561341e576000848401525b50505050565b6000600282049050600182168061343c57607f821691505b602082108114156134505761344f6134b4565b5b50919050565b7f4e487b7100000000000000000000000000000000000000000000000000000000600052601160045260246000fd5b7f4e487b7100000000000000000000000000000000000000000000000000000000600052601260045260246000fd5b7f4e487b7100000000000000000000000000000000000000000000000000000000600052602260045260246000fd5b7f4e487b7100000000000000000000000000000000000000000000000000000000600052604160045260246000fd5b6000601f19601f8301169050919050565b61352c816132f8565b811461353757600080fd5b50565b6135438161331c565b811461354e57600080fd5b50565b61355a81613348565b811461356557600080fd5b5056fea2646970667358221220e3e01f320b0b2d1f955b1bf6ec0f1f95a57ab910b4e56b0acfd533067af8941d64736f6c63430008000033",
  "immutableReferences": {},
  "source": "//SPDX-License-Identifier: Unlicense\r\npragma solidity ^0.8.0;\r\n\r\n\r\nimport \"@openzeppelin/contracts/utils/math/SafeMath.sol\";\r\nimport '@openzeppelin/contracts/token/ERC20/IERC20.sol';\r\nimport \"@openzeppelin/contracts/utils/Counters.sol\";\r\nimport './CTokenInterface.sol';\r\nimport './ComptrollerInterface.sol';\r\nimport './PriceOracleInterface.sol';\r\nimport \"./XendFinanceInterface.sol\";\r\n\r\n\r\n\r\ncontract Beima{\r\n    using SafeMath for uint;\r\n    using Counters for Counters.Counter;\r\n\r\n    // variables\r\n    ComptrollerInterface public comptroller;\r\n\tPriceOracleInterface public priceOracle;\r\n    Counters.Counter private id;\r\n    uint balance;\r\n\r\n    uint accXendTokens;\r\n    uint256 ccInterest;\r\n    XendFinanceInterface public xendFinance;\r\n    IERC20 public xend;\r\n    IERC20 public busd;\r\n\r\n    uint public lastTimeStamp;\r\n    uint public upKeepInterval;\r\n\r\n\r\n\r\n    \r\n\r\n\r\n\r\n    struct Client {\r\n        address underlyingAsset;\r\n        uint256 depositedAmount;\r\n        uint256 amountToSpend;\r\n        uint256 approvedAmountToSpend;\r\n        uint256 startTime;\r\n        uint256 timeDurationOfdeposit;\r\n        uint256 lockTime;\r\n        string ipfsHashOfUserPensionDetails;\r\n        uint256 userLastRewardBlock;\r\n        bool hasPlan;\r\n    }\r\n\r\n\r\n    // A user Object\r\n    struct User {\r\n        uint256 id;\r\n        address payable userAddress;\r\n        string  userDetails;\r\n        Client client;\r\n\r\n    }\r\n\r\n\r\n\r\n    \r\n\r\n    \r\n\r\n\r\n    event Register(address indexed applicant, string indexed applicantDetails);\r\n    event Withdraw(address from, address to, uint amount);\r\n    event Deposit(address indexed sender, address receiver, uint indexed amountSpent);\r\n    event Upkeep(address sender, bool upkeep);\r\n    event Plan(address user, string planDetails, uint lockTime);\r\n    event Update(uint256 timeDuration);\r\n    event Transfer(address indexed sender, uint amount, address indexed receiver);\r\n    event Supply(address sender, uint amount);\r\n    event MyLog(string, uint256);\r\n\r\n    mapping(address => User) public pensionServiceApplicant;\r\n    address constant ETHER = address(0); // Stores ether in the tokens mapping\r\n\tmapping(address => mapping(address => uint256)) public assets;\r\n    mapping(address => uint) public amountSupplied;\r\n\r\n    // keep track of registered users\r\n    mapping(address => bool) public isRegistered;\r\n    mapping(address => bool) public hasRedeemed;\r\n\r\n    User[] public users;\r\n\r\n\r\n    constructor(address _xend, address _xendFinanceIndividual_Yearn_V1,  address _comptroller, address _priceOracle, uint _upKeepInterval)  {\r\n        xend = IERC20(_xend);\r\n        comptroller = ComptrollerInterface(_comptroller);\r\n\t\tpriceOracle = PriceOracleInterface(_priceOracle);\r\n        xendFinance = XendFinanceInterface(_xendFinanceIndividual_Yearn_V1);\r\n        ccInterest = uint256(3 ether).div(10); // .3% \r\n        lastTimeStamp = block.timestamp;\r\n        upKeepInterval = _upKeepInterval;\r\n\r\n        id.increment();\r\n        \r\n    }\r\n\r\n\r\n    receive() external payable {\r\n        balance = msg.value;\r\n    }\r\n\r\n\r\n\r\n    function register(\r\n        string memory _userDetails\r\n        ) \r\n        public  {\r\n        require(!isRegistered[msg.sender], \"Caller address already exists\");\r\n\r\n        Client memory client = Client({\r\n            underlyingAsset: address(0),\r\n            depositedAmount: 0,\r\n            amountToSpend: 0,\r\n            approvedAmountToSpend: 0,\r\n            startTime: block.timestamp,\r\n            timeDurationOfdeposit: 0,\r\n            lockTime: 0,\r\n            ipfsHashOfUserPensionDetails: \"\",\r\n            userLastRewardBlock: block.number,\r\n            hasPlan: false\r\n        });\r\n\r\n        User memory user = User({\r\n            id: id.current(),\r\n            userAddress: payable(msg.sender),\r\n            userDetails: _userDetails,\r\n            client: client\r\n        });\r\n\r\n       \r\n\r\n        pensionServiceApplicant[msg.sender] = user;\r\n        users.push(user);\r\n        isRegistered[msg.sender] = true;\r\n\r\n        id.increment();\r\n\r\n        emit Register(msg.sender, _userDetails);\r\n    }\r\n\r\n\r\n    function depositToken (address _asset, uint _amount)public {\r\n        User memory user = pensionServiceApplicant[msg.sender];\r\n        require(isRegistered[msg.sender], \"Caller not registered\");\r\n        require(user.client.hasPlan, \"Caller has no plan\");\r\n\t\trequire(_asset != ETHER, \"Address is invalid\");\r\n\t\trequire(IERC20(_asset).transferFrom(msg.sender, address(this), _amount), \"Deposit has failed\");\r\n\t\tassets[_asset][msg.sender] = assets[_asset][msg.sender].add(_amount);\r\n        amountSupplied[msg.sender] = amountSupplied[msg.sender].add(_amount);\r\n\t\temit Deposit (msg.sender, _asset, assets[_asset][msg.sender]);\r\n\t}\r\n\r\n\r\n\r\n    function withdrawToken (address _asset, uint _amount) public {\r\n        require(hasRedeemed[msg.sender], \"Redeem funds before withdrawal\");\r\n\t\trequire(assets[_asset][msg.sender] >= _amount);\r\n\t\trequire(_asset != ETHER);\r\n\t\tassets[_asset][msg.sender] = assets[_asset][msg.sender].sub(_amount);\r\n\t\trequire(IERC20(_asset).transfer(msg.sender, _amount));\r\n\t\temit Withdraw(address(this), msg.sender, assets[_asset][msg.sender]);\r\n\r\n\t}\r\n\r\n\r\n    function supply(address cTokenaddress) external returns(uint) {\r\n\t\tCTokenInterface cToken = CTokenInterface(cTokenaddress);\r\n\t\taddress underlyingAddress = cToken.underlying();\r\n        require(amountSupplied[msg.sender] > 0, \"Amount cannot be 0\");\r\n\t\tIERC20(underlyingAddress).approve(cTokenaddress, amountSupplied[msg.sender]);\r\n\r\n\t\tuint result = cToken.mint(amountSupplied[msg.sender]);\r\n        amountSupplied[msg.sender] = amountSupplied[msg.sender].sub(amountSupplied[msg.sender]);\r\n\t\trequire(result == 0, 'cToken#mint() failed. see Compound ErrorReporter.sol');\r\n        emit Supply(msg.sender, amountSupplied[msg.sender]);\r\n        return result;\r\n\t}\r\n\r\n\r\n    function redeemCErc20Tokens(\r\n        uint256 amount,\r\n        address _cErc20Contract\r\n    ) public returns (bool) {\r\n        // Create a reference to the corresponding cToken contract, like cDAI\r\n        CTokenInterface cToken = CTokenInterface(_cErc20Contract);\r\n\r\n        // `amount` is scaled up, see decimal table here:\r\n        // https://compound.finance/docs#protocol-math\r\n\r\n        uint256 redeemResult;\r\n\r\n        // Retrieve your asset based on an amount of the asset\r\n        redeemResult = cToken.redeemUnderlying(amount);\r\n        hasRedeemed[msg.sender] = true;        \r\n\r\n        // Error codes are listed here:\r\n        // https://compound.finance/docs/ctokens#error-codes\r\n        emit MyLog(\"If this is not 0, there was an error\", redeemResult);\r\n\r\n        return true;\r\n    }\r\n\r\n    function setPlan(\r\n        address _underlyingAsset, \r\n        string memory _ipfsHashOfUserPensionDetails, \r\n        uint _approvedAmountToSpend, \r\n        uint _amountToSpend, \r\n        uint _timeDurationOfDeposit, \r\n        uint _lockTime) \r\n        public {\r\n        require(_approvedAmountToSpend > _amountToSpend, \"Set an amount greater than the recurring amount\");\r\n        require(_amountToSpend > 0, \"approve an amount greater than 0\");\r\n        require(isRegistered[msg.sender], \"Caller has to be Registered\");\r\n        User storage user = pensionServiceApplicant[msg.sender];\r\n        require(user.client.lockTime == 0, \"Caller already has a lock Time Set\");\r\n        user.client.underlyingAsset = _underlyingAsset;\r\n        user.client.lockTime = _lockTime;\r\n        user.client.timeDurationOfdeposit = block.timestamp.add(_timeDurationOfDeposit);\r\n        user.client.ipfsHashOfUserPensionDetails = _ipfsHashOfUserPensionDetails;\r\n        user.client.approvedAmountToSpend = _approvedAmountToSpend;\r\n        user.client.amountToSpend = _amountToSpend;\r\n        user.client.hasPlan = true;\r\n\r\n        emit Plan(msg.sender, user.client.ipfsHashOfUserPensionDetails, user.client.lockTime);\r\n    }\r\n\r\n    function getAssetAddress(address ctokenAddress) public view returns(address) {\r\n        CTokenInterface cToken = CTokenInterface(ctokenAddress);\r\n        return cToken.underlying();\r\n\r\n    }\r\n}",
  "sourcePath": "/mnt/c/Users/chuks/Desktop/Project/beima_project/beima_core/contracts/Beima.sol",
  "compiler": {
    "name": "solc",
    "version": "0.8.0+commit.c7dfd78e.Emscripten.clang"
  },
  "schemaVersion": "3.4.3",
  "updatedAt": "2021-12-08T16:46:02.578Z",
  "networkType": "ethereum",
  "devdoc": {
    "kind": "dev",
    "methods": {},
    "version": 1
  },
  "userdoc": {
    "kind": "user",
    "methods": {},
    "version": 1
  }
}