{
  "contractName": "Beima",
  "abi": [
    {
      "inputs": [
        {
          "internalType": "address",
          "name": "_xend",
          "type": "address"
        },
        {
          "internalType": "address",
          "name": "_xendFinanceIndividual_Yearn_V1",
          "type": "address"
        },
        {
          "internalType": "address",
          "name": "_comptroller",
          "type": "address"
        },
        {
          "internalType": "address",
          "name": "_priceOracle",
          "type": "address"
        },
        {
          "internalType": "uint256",
          "name": "_upKeepInterval",
          "type": "uint256"
        }
      ],
      "stateMutability": "nonpayable",
      "type": "constructor"
    },
    {
      "anonymous": false,
      "inputs": [
        {
          "indexed": true,
          "internalType": "address",
          "name": "sender",
          "type": "address"
        },
        {
          "indexed": false,
          "internalType": "address",
          "name": "receiver",
          "type": "address"
        },
        {
          "indexed": true,
          "internalType": "uint256",
          "name": "amountSpent",
          "type": "uint256"
        }
      ],
      "name": "Deposit",
      "type": "event"
    },
    {
      "anonymous": false,
      "inputs": [
        {
          "indexed": false,
          "internalType": "string",
          "name": "",
          "type": "string"
        },
        {
          "indexed": false,
          "internalType": "uint256",
          "name": "",
          "type": "uint256"
        }
      ],
      "name": "MyLog",
      "type": "event"
    },
    {
      "anonymous": false,
      "inputs": [
        {
          "indexed": false,
          "internalType": "address",
          "name": "user",
          "type": "address"
        },
        {
          "indexed": false,
          "internalType": "string",
          "name": "planDetails",
          "type": "string"
        },
        {
          "indexed": false,
          "internalType": "uint256",
          "name": "lockTime",
          "type": "uint256"
        }
      ],
      "name": "Plan",
      "type": "event"
    },
    {
      "anonymous": false,
      "inputs": [
        {
          "indexed": true,
          "internalType": "address",
          "name": "applicant",
          "type": "address"
        },
        {
          "indexed": true,
          "internalType": "string",
          "name": "applicantDetails",
          "type": "string"
        }
      ],
      "name": "Register",
      "type": "event"
    },
    {
      "anonymous": false,
      "inputs": [
        {
          "indexed": true,
          "internalType": "address",
          "name": "sender",
          "type": "address"
        },
        {
          "indexed": false,
          "internalType": "uint256",
          "name": "amount",
          "type": "uint256"
        },
        {
          "indexed": true,
          "internalType": "address",
          "name": "receiver",
          "type": "address"
        }
      ],
      "name": "Transfer",
      "type": "event"
    },
    {
      "anonymous": false,
      "inputs": [
        {
          "indexed": false,
          "internalType": "uint256",
          "name": "timeDuration",
          "type": "uint256"
        }
      ],
      "name": "Update",
      "type": "event"
    },
    {
      "anonymous": false,
      "inputs": [
        {
          "indexed": false,
          "internalType": "address",
          "name": "sender",
          "type": "address"
        },
        {
          "indexed": false,
          "internalType": "bool",
          "name": "upkeep",
          "type": "bool"
        }
      ],
      "name": "Upkeep",
      "type": "event"
    },
    {
      "anonymous": false,
      "inputs": [
        {
          "indexed": false,
          "internalType": "address",
          "name": "from",
          "type": "address"
        },
        {
          "indexed": false,
          "internalType": "address",
          "name": "to",
          "type": "address"
        },
        {
          "indexed": false,
          "internalType": "uint256",
          "name": "amount",
          "type": "uint256"
        }
      ],
      "name": "Withdraw",
      "type": "event"
    },
    {
      "inputs": [
        {
          "internalType": "address",
          "name": "",
          "type": "address"
        },
        {
          "internalType": "address",
          "name": "",
          "type": "address"
        }
      ],
      "name": "assets",
      "outputs": [
        {
          "internalType": "uint256",
          "name": "",
          "type": "uint256"
        }
      ],
      "stateMutability": "view",
      "type": "function",
      "constant": true
    },
    {
      "inputs": [],
      "name": "busd",
      "outputs": [
        {
          "internalType": "contract IERC20",
          "name": "",
          "type": "address"
        }
      ],
      "stateMutability": "view",
      "type": "function",
      "constant": true
    },
    {
      "inputs": [],
      "name": "comptroller",
      "outputs": [
        {
          "internalType": "contract ComptrollerInterface",
          "name": "",
          "type": "address"
        }
      ],
      "stateMutability": "view",
      "type": "function",
      "constant": true
    },
    {
      "inputs": [
        {
          "internalType": "address",
          "name": "",
          "type": "address"
        }
      ],
      "name": "hasRedeemed",
      "outputs": [
        {
          "internalType": "bool",
          "name": "",
          "type": "bool"
        }
      ],
      "stateMutability": "view",
      "type": "function",
      "constant": true
    },
    {
      "inputs": [
        {
          "internalType": "address",
          "name": "",
          "type": "address"
        }
      ],
      "name": "isRegistered",
      "outputs": [
        {
          "internalType": "bool",
          "name": "",
          "type": "bool"
        }
      ],
      "stateMutability": "view",
      "type": "function",
      "constant": true
    },
    {
      "inputs": [],
      "name": "lastTimeStamp",
      "outputs": [
        {
          "internalType": "uint256",
          "name": "",
          "type": "uint256"
        }
      ],
      "stateMutability": "view",
      "type": "function",
      "constant": true
    },
    {
      "inputs": [
        {
          "internalType": "address",
          "name": "",
          "type": "address"
        }
      ],
      "name": "pensionServiceApplicant",
      "outputs": [
        {
          "internalType": "uint256",
          "name": "id",
          "type": "uint256"
        },
        {
          "internalType": "address payable",
          "name": "userAddress",
          "type": "address"
        },
        {
          "internalType": "string",
          "name": "userDetails",
          "type": "string"
        },
        {
          "components": [
            {
              "internalType": "address",
              "name": "underlyingAsset",
              "type": "address"
            },
            {
              "internalType": "uint256",
              "name": "depositedAmount",
              "type": "uint256"
            },
            {
              "internalType": "uint256",
              "name": "amountToSpend",
              "type": "uint256"
            },
            {
              "internalType": "uint256",
              "name": "approvedAmountToSpend",
              "type": "uint256"
            },
            {
              "internalType": "uint256",
              "name": "startTime",
              "type": "uint256"
            },
            {
              "internalType": "uint256",
              "name": "timeDurationOfdeposit",
              "type": "uint256"
            },
            {
              "internalType": "uint256",
              "name": "lockTime",
              "type": "uint256"
            },
            {
              "internalType": "string",
              "name": "ipfsHashOfUserPensionDetails",
              "type": "string"
            },
            {
              "internalType": "uint256",
              "name": "userLastRewardBlock",
              "type": "uint256"
            },
            {
              "internalType": "bool",
              "name": "hasPlan",
              "type": "bool"
            }
          ],
          "internalType": "struct Beima.Client",
          "name": "client",
          "type": "tuple"
        }
      ],
      "stateMutability": "view",
      "type": "function",
      "constant": true
    },
    {
      "inputs": [],
      "name": "priceOracle",
      "outputs": [
        {
          "internalType": "contract PriceOracleInterface",
          "name": "",
          "type": "address"
        }
      ],
      "stateMutability": "view",
      "type": "function",
      "constant": true
    },
    {
      "inputs": [],
      "name": "upKeepInterval",
      "outputs": [
        {
          "internalType": "uint256",
          "name": "",
          "type": "uint256"
        }
      ],
      "stateMutability": "view",
      "type": "function",
      "constant": true
    },
    {
      "inputs": [
        {
          "internalType": "uint256",
          "name": "",
          "type": "uint256"
        }
      ],
      "name": "users",
      "outputs": [
        {
          "internalType": "uint256",
          "name": "id",
          "type": "uint256"
        },
        {
          "internalType": "address payable",
          "name": "userAddress",
          "type": "address"
        },
        {
          "internalType": "string",
          "name": "userDetails",
          "type": "string"
        },
        {
          "components": [
            {
              "internalType": "address",
              "name": "underlyingAsset",
              "type": "address"
            },
            {
              "internalType": "uint256",
              "name": "depositedAmount",
              "type": "uint256"
            },
            {
              "internalType": "uint256",
              "name": "amountToSpend",
              "type": "uint256"
            },
            {
              "internalType": "uint256",
              "name": "approvedAmountToSpend",
              "type": "uint256"
            },
            {
              "internalType": "uint256",
              "name": "startTime",
              "type": "uint256"
            },
            {
              "internalType": "uint256",
              "name": "timeDurationOfdeposit",
              "type": "uint256"
            },
            {
              "internalType": "uint256",
              "name": "lockTime",
              "type": "uint256"
            },
            {
              "internalType": "string",
              "name": "ipfsHashOfUserPensionDetails",
              "type": "string"
            },
            {
              "internalType": "uint256",
              "name": "userLastRewardBlock",
              "type": "uint256"
            },
            {
              "internalType": "bool",
              "name": "hasPlan",
              "type": "bool"
            }
          ],
          "internalType": "struct Beima.Client",
          "name": "client",
          "type": "tuple"
        }
      ],
      "stateMutability": "view",
      "type": "function",
      "constant": true
    },
    {
      "inputs": [],
      "name": "xend",
      "outputs": [
        {
          "internalType": "contract IERC20",
          "name": "",
          "type": "address"
        }
      ],
      "stateMutability": "view",
      "type": "function",
      "constant": true
    },
    {
      "inputs": [],
      "name": "xendFinance",
      "outputs": [
        {
          "internalType": "contract XendFinanceInterface",
          "name": "",
          "type": "address"
        }
      ],
      "stateMutability": "view",
      "type": "function",
      "constant": true
    },
    {
      "stateMutability": "payable",
      "type": "receive",
      "payable": true
    },
    {
      "inputs": [
        {
          "internalType": "string",
          "name": "_userDetails",
          "type": "string"
        }
      ],
      "name": "register",
      "outputs": [],
      "stateMutability": "nonpayable",
      "type": "function"
    },
    {
      "inputs": [
        {
          "internalType": "address",
          "name": "_asset",
          "type": "address"
        },
        {
          "internalType": "uint256",
          "name": "_amount",
          "type": "uint256"
        }
      ],
      "name": "depositToken",
      "outputs": [],
      "stateMutability": "nonpayable",
      "type": "function"
    },
    {
      "inputs": [
        {
          "internalType": "address",
          "name": "_asset",
          "type": "address"
        },
        {
          "internalType": "uint256",
          "name": "_amount",
          "type": "uint256"
        }
      ],
      "name": "withdrawToken",
      "outputs": [],
      "stateMutability": "nonpayable",
      "type": "function"
    },
    {
      "inputs": [
        {
          "internalType": "address",
          "name": "cTokenaddress",
          "type": "address"
        },
        {
          "internalType": "uint256",
          "name": "underlyingAmount",
          "type": "uint256"
        }
      ],
      "name": "supply",
      "outputs": [
        {
          "internalType": "uint256",
          "name": "",
          "type": "uint256"
        }
      ],
      "stateMutability": "nonpayable",
      "type": "function"
    },
    {
      "inputs": [
        {
          "internalType": "uint256",
          "name": "amount",
          "type": "uint256"
        },
        {
          "internalType": "bool",
          "name": "redeemType",
          "type": "bool"
        },
        {
          "internalType": "address",
          "name": "_cErc20Contract",
          "type": "address"
        }
      ],
      "name": "redeemCErc20Tokens",
      "outputs": [
        {
          "internalType": "bool",
          "name": "",
          "type": "bool"
        }
      ],
      "stateMutability": "nonpayable",
      "type": "function"
    },
    {
      "inputs": [
        {
          "internalType": "address",
          "name": "_underlyingAsset",
          "type": "address"
        },
        {
          "internalType": "string",
          "name": "_ipfsHashOfUserPensionDetails",
          "type": "string"
        },
        {
          "internalType": "uint256",
          "name": "_approvedAmountToSpend",
          "type": "uint256"
        },
        {
          "internalType": "uint256",
          "name": "_amountToSpend",
          "type": "uint256"
        },
        {
          "internalType": "uint256",
          "name": "_timeDurationOfDeposit",
          "type": "uint256"
        },
        {
          "internalType": "uint256",
          "name": "_lockTime",
          "type": "uint256"
        }
      ],
      "name": "setPlan",
      "outputs": [],
      "stateMutability": "nonpayable",
      "type": "function"
    }
  ],
  "bytecode": "0x60806040523480156200001157600080fd5b50604051620035f0380380620035f08339818101604052810190620000379190620001ef565b84600760006101000a81548173ffffffffffffffffffffffffffffffffffffffff021916908373ffffffffffffffffffffffffffffffffffffffff160217905550826000806101000a81548173ffffffffffffffffffffffffffffffffffffffff021916908373ffffffffffffffffffffffffffffffffffffffff16021790555081600160006101000a81548173ffffffffffffffffffffffffffffffffffffffff021916908373ffffffffffffffffffffffffffffffffffffffff16021790555083600660006101000a81548173ffffffffffffffffffffffffffffffffffffffff021916908373ffffffffffffffffffffffffffffffffffffffff1602179055506200015d600a6729a2241af62c00006200019360201b620020351790919060201c565b6005819055504260098190555080600a81905550620001886002620001ab60201b6200204b1760201c565b50505050506200034a565b60008183620001a3919062000271565b905092915050565b6001816000016000828254019250508190555050565b600081519050620001d28162000316565b92915050565b600081519050620001e98162000330565b92915050565b600080600080600060a086880312156200020857600080fd5b60006200021888828901620001c1565b95505060206200022b88828901620001c1565b94505060406200023e88828901620001c1565b93505060606200025188828901620001c1565b92505060806200026488828901620001d8565b9150509295509295909350565b60006200027e82620002dd565b91506200028b83620002dd565b9250826200029e576200029d620002e7565b5b828204905092915050565b6000620002b682620002bd565b9050919050565b600073ffffffffffffffffffffffffffffffffffffffff82169050919050565b6000819050919050565b7f4e487b7100000000000000000000000000000000000000000000000000000000600052601260045260246000fd5b6200032181620002a9565b81146200032d57600080fd5b50565b6200033b81620002dd565b81146200034757600080fd5b50565b613296806200035a6000396000f3fe60806040526004361061010d5760003560e01c80635fe3b56711610095578063db78b67c11610064578063db78b67c146103ab578063de15f0da146103e8578063f2b9fdb814610411578063f2c298be1461044e578063f5dd6065146104775761011b565b80635fe3b567146102dd5780639e281a9814610308578063c3c5a54714610331578063d0ace48e1461036e5761011b565b8063338b5dea116100dc578063338b5dea146101de578063365b98b2146102075780633ca5b234146102475780633f3b3b27146102725780635bc9d2bf1461029d5761011b565b80631a15687b146101205780632108234d1461014b5780632630c12f146101885780633245f228146101b35761011b565b3661011b5734600381905550005b600080fd5b34801561012c57600080fd5b506101356104a2565b6040516101429190612e19565b60405180910390f35b34801561015757600080fd5b50610172600480360381019061016d9190612276565b6104a8565b60405161017f9190612e19565b60405180910390f35b34801561019457600080fd5b5061019d6104cd565b6040516101aa9190612c35565b60405180910390f35b3480156101bf57600080fd5b506101c86104f3565b6040516101d59190612c1a565b60405180910390f35b3480156101ea57600080fd5b5061020560048036038101906102009190612353565b610519565b005b34801561021357600080fd5b5061022e600480360381019061022991906123f9565b610ba9565b60405161023e9493929190612e34565b60405180910390f35b34801561025357600080fd5b5061025c610de5565b6040516102699190612c1a565b60405180910390f35b34801561027e57600080fd5b50610287610e0b565b6040516102949190612e19565b60405180910390f35b3480156102a957600080fd5b506102c460048036038101906102bf9190612224565b610e11565b6040516102d49493929190612e34565b60405180910390f35b3480156102e957600080fd5b506102f261103d565b6040516102ff9190612bff565b60405180910390f35b34801561031457600080fd5b5061032f600480360381019061032a9190612353565b611061565b005b34801561033d57600080fd5b5061035860048036038101906103539190612224565b611410565b6040516103659190612be4565b60405180910390f35b34801561037a57600080fd5b506103956004803603810190610390919061244b565b611430565b6040516103a29190612be4565b60405180910390f35b3480156103b757600080fd5b506103d260048036038101906103cd9190612224565b611601565b6040516103df9190612be4565b60405180910390f35b3480156103f457600080fd5b5061040f600480360381019061040a91906122b2565b611621565b005b34801561041d57600080fd5b5061043860048036038101906104339190612353565b6118d4565b6040516104459190612e19565b60405180910390f35b34801561045a57600080fd5b50610475600480360381019061047091906123b8565b611b0b565b005b34801561048357600080fd5b5061048c61200f565b6040516104999190612c50565b60405180910390f35b600a5481565b600c602052816000526040600020602052806000526040600020600091509150505481565b600160009054906101000a900473ffffffffffffffffffffffffffffffffffffffff1681565b600760009054906101000a900473ffffffffffffffffffffffffffffffffffffffff1681565b6000600b60003373ffffffffffffffffffffffffffffffffffffffff1673ffffffffffffffffffffffffffffffffffffffff168152602001908152602001600020604051806080016040529081600082015481526020016001820160009054906101000a900473ffffffffffffffffffffffffffffffffffffffff1673ffffffffffffffffffffffffffffffffffffffff1673ffffffffffffffffffffffffffffffffffffffff1681526020016002820180546105d59061311c565b80601f01602080910402602001604051908101604052809291908181526020018280546106019061311c565b801561064e5780601f106106235761010080835404028352916020019161064e565b820191906000526020600020905b81548152906001019060200180831161063157829003601f168201915b5050505050815260200160038201604051806101400160405290816000820160009054906101000a900473ffffffffffffffffffffffffffffffffffffffff1673ffffffffffffffffffffffffffffffffffffffff1673ffffffffffffffffffffffffffffffffffffffff16815260200160018201548152602001600282015481526020016003820154815260200160048201548152602001600582015481526020016006820154815260200160078201805461070a9061311c565b80601f01602080910402602001604051908101604052809291908181526020018280546107369061311c565b80156107835780601f1061075857610100808354040283529160200191610783565b820191906000526020600020905b81548152906001019060200180831161076657829003601f168201915b50505050508152602001600882015481526020016009820160009054906101000a900460ff161515151581525050815250509050600d60003373ffffffffffffffffffffffffffffffffffffffff1673ffffffffffffffffffffffffffffffffffffffff16815260200190815260200160002060009054906101000a900460ff16610843576040517f08c379a000000000000000000000000000000000000000000000000000000000815260040161083a90612d39565b60405180910390fd5b8060600151610120015161088c576040517f08c379a000000000000000000000000000000000000000000000000000000000815260040161088390612cf9565b60405180910390fd5b600073ffffffffffffffffffffffffffffffffffffffff168373ffffffffffffffffffffffffffffffffffffffff1614156108fc576040517f08c379a00000000000000000000000000000000000000000000000000000000081526004016108f390612df9565b60405180910390fd5b8273ffffffffffffffffffffffffffffffffffffffff166323b872dd3330856040518463ffffffff1660e01b815260040161093993929190612b46565b602060405180830381600087803b15801561095357600080fd5b505af1158015610967573d6000803e3d6000fd5b505050506040513d601f19601f8201168201806040525081019061098b919061238f565b6109ca576040517f08c379a00000000000000000000000000000000000000000000000000000000081526004016109c190612db9565b60405180910390fd5b610a5982600c60008673ffffffffffffffffffffffffffffffffffffffff1673ffffffffffffffffffffffffffffffffffffffff16815260200190815260200160002060003373ffffffffffffffffffffffffffffffffffffffff1673ffffffffffffffffffffffffffffffffffffffff1681526020019081526020016000205461206190919063ffffffff16565b600c60008573ffffffffffffffffffffffffffffffffffffffff1673ffffffffffffffffffffffffffffffffffffffff16815260200190815260200160002060003373ffffffffffffffffffffffffffffffffffffffff1673ffffffffffffffffffffffffffffffffffffffff16815260200190815260200160002081905550600c60008473ffffffffffffffffffffffffffffffffffffffff1673ffffffffffffffffffffffffffffffffffffffff16815260200190815260200160002060003373ffffffffffffffffffffffffffffffffffffffff1673ffffffffffffffffffffffffffffffffffffffff168152602001908152602001600020543373ffffffffffffffffffffffffffffffffffffffff167f5548c837ab068cf56a2c2479df0882a4922fd203edb7517321831d95078c5f6285604051610b9c9190612b2b565b60405180910390a3505050565b600f8181548110610bb957600080fd5b90600052602060002090600d02016000915090508060000154908060010160009054906101000a900473ffffffffffffffffffffffffffffffffffffffff1690806002018054610c089061311c565b80601f0160208091040260200160405190810160405280929190818152602001828054610c349061311c565b8015610c815780601f10610c5657610100808354040283529160200191610c81565b820191906000526020600020905b815481529060010190602001808311610c6457829003601f168201915b50505050509080600301604051806101400160405290816000820160009054906101000a900473ffffffffffffffffffffffffffffffffffffffff1673ffffffffffffffffffffffffffffffffffffffff1673ffffffffffffffffffffffffffffffffffffffff168152602001600182015481526020016002820154815260200160038201548152602001600482015481526020016005820154815260200160068201548152602001600782018054610d399061311c565b80601f0160208091040260200160405190810160405280929190818152602001828054610d659061311c565b8015610db25780601f10610d8757610100808354040283529160200191610db2565b820191906000526020600020905b815481529060010190602001808311610d9557829003601f168201915b50505050508152602001600882015481526020016009820160009054906101000a900460ff161515151581525050905084565b600860009054906101000a900473ffffffffffffffffffffffffffffffffffffffff1681565b60095481565b600b6020528060005260406000206000915090508060000154908060010160009054906101000a900473ffffffffffffffffffffffffffffffffffffffff1690806002018054610e609061311c565b80601f0160208091040260200160405190810160405280929190818152602001828054610e8c9061311c565b8015610ed95780601f10610eae57610100808354040283529160200191610ed9565b820191906000526020600020905b815481529060010190602001808311610ebc57829003601f168201915b50505050509080600301604051806101400160405290816000820160009054906101000a900473ffffffffffffffffffffffffffffffffffffffff1673ffffffffffffffffffffffffffffffffffffffff1673ffffffffffffffffffffffffffffffffffffffff168152602001600182015481526020016002820154815260200160038201548152602001600482015481526020016005820154815260200160068201548152602001600782018054610f919061311c565b80601f0160208091040260200160405190810160405280929190818152602001828054610fbd9061311c565b801561100a5780601f10610fdf5761010080835404028352916020019161100a565b820191906000526020600020905b815481529060010190602001808311610fed57829003601f168201915b50505050508152602001600882015481526020016009820160009054906101000a900460ff161515151581525050905084565b60008054906101000a900473ffffffffffffffffffffffffffffffffffffffff1681565b600e60003373ffffffffffffffffffffffffffffffffffffffff1673ffffffffffffffffffffffffffffffffffffffff16815260200190815260200160002060009054906101000a900460ff166110ed576040517f08c379a00000000000000000000000000000000000000000000000000000000081526004016110e490612d99565b60405180910390fd5b80600c60008473ffffffffffffffffffffffffffffffffffffffff1673ffffffffffffffffffffffffffffffffffffffff16815260200190815260200160002060003373ffffffffffffffffffffffffffffffffffffffff1673ffffffffffffffffffffffffffffffffffffffff16815260200190815260200160002054101561117657600080fd5b600073ffffffffffffffffffffffffffffffffffffffff168273ffffffffffffffffffffffffffffffffffffffff1614156111b057600080fd5b61123f81600c60008573ffffffffffffffffffffffffffffffffffffffff1673ffffffffffffffffffffffffffffffffffffffff16815260200190815260200160002060003373ffffffffffffffffffffffffffffffffffffffff1673ffffffffffffffffffffffffffffffffffffffff1681526020019081526020016000205461207790919063ffffffff16565b600c60008473ffffffffffffffffffffffffffffffffffffffff1673ffffffffffffffffffffffffffffffffffffffff16815260200190815260200160002060003373ffffffffffffffffffffffffffffffffffffffff1673ffffffffffffffffffffffffffffffffffffffff168152602001908152602001600020819055508173ffffffffffffffffffffffffffffffffffffffff1663a9059cbb33836040518363ffffffff1660e01b81526004016112fa929190612bbb565b602060405180830381600087803b15801561131457600080fd5b505af1158015611328573d6000803e3d6000fd5b505050506040513d601f19601f8201168201806040525081019061134c919061238f565b61135557600080fd5b7f9b1bfa7fa9ee420a16e124f794c35ac9f90472acc99140eb2f6447c714cad8eb3033600c60008673ffffffffffffffffffffffffffffffffffffffff1673ffffffffffffffffffffffffffffffffffffffff16815260200190815260200160002060003373ffffffffffffffffffffffffffffffffffffffff1673ffffffffffffffffffffffffffffffffffffffff1681526020019081526020016000205460405161140493929190612b46565b60405180910390a15050565b600d6020528060005260406000206000915054906101000a900460ff1681565b60008082905060006001151585151514156114d7578173ffffffffffffffffffffffffffffffffffffffff1663db006a75876040518263ffffffff1660e01b815260040161147e9190612e19565b602060405180830381600087803b15801561149857600080fd5b505af11580156114ac573d6000803e3d6000fd5b505050506040513d601f19601f820116820180604052508101906114d09190612422565b90506115bd565b8173ffffffffffffffffffffffffffffffffffffffff1663852a12e3876040518263ffffffff1660e01b81526004016115109190612e19565b602060405180830381600087803b15801561152a57600080fd5b505af115801561153e573d6000803e3d6000fd5b505050506040513d601f19601f820116820180604052508101906115629190612422565b90506001600e60003373ffffffffffffffffffffffffffffffffffffffff1673ffffffffffffffffffffffffffffffffffffffff16815260200190815260200160002060006101000a81548160ff0219169083151502179055505b7f8d1cced004452bd270777a8c670f9f7e7c4fdde56f2db331fe289d39dc2624ad816040516115ec9190612c6b565b60405180910390a16001925050509392505050565b600e6020528060005260406000206000915054906101000a900460ff1681565b828411611663576040517f08c379a000000000000000000000000000000000000000000000000000000000815260040161165a90612dd9565b60405180910390fd5b600083116116a6576040517f08c379a000000000000000000000000000000000000000000000000000000000815260040161169d90612d79565b60405180910390fd5b600d60003373ffffffffffffffffffffffffffffffffffffffff1673ffffffffffffffffffffffffffffffffffffffff16815260200190815260200160002060009054906101000a900460ff16611732576040517f08c379a000000000000000000000000000000000000000000000000000000000815260040161172990612d59565b60405180910390fd5b6000600b60003373ffffffffffffffffffffffffffffffffffffffff1673ffffffffffffffffffffffffffffffffffffffff168152602001908152602001600020905060008160030160060154146117bf576040517f08c379a00000000000000000000000000000000000000000000000000000000081526004016117b690612d19565b60405180910390fd5b868160030160000160006101000a81548173ffffffffffffffffffffffffffffffffffffffff021916908373ffffffffffffffffffffffffffffffffffffffff160217905550818160030160060181905550611824834261206190919063ffffffff16565b81600301600501819055508581600301600701908051906020019061184a92919061209b565b5084816003016003018190555083816003016002018190555060018160030160090160006101000a81548160ff0219169083151502179055507f0a342f2e207c3c328a10158ad0b71a9e64a10e319c5d635be24f8c7e418ea6e4338260030160070183600301600601546040516118c393929190612b7d565b60405180910390a150505050505050565b6000808211611918576040517f08c379a000000000000000000000000000000000000000000000000000000000815260040161190f90612cb9565b60405180910390fd5b600083905060008173ffffffffffffffffffffffffffffffffffffffff16636f307dc36040518163ffffffff1660e01b815260040160206040518083038186803b15801561196557600080fd5b505afa158015611979573d6000803e3d6000fd5b505050506040513d601f19601f8201168201806040525081019061199d919061224d565b90508073ffffffffffffffffffffffffffffffffffffffff1663095ea7b386866040518363ffffffff1660e01b81526004016119da929190612bbb565b602060405180830381600087803b1580156119f457600080fd5b505af1158015611a08573d6000803e3d6000fd5b505050506040513d601f19601f82011682018060405250810190611a2c919061238f565b5060008273ffffffffffffffffffffffffffffffffffffffff1663a0712d68866040518263ffffffff1660e01b8152600401611a689190612e19565b602060405180830381600087803b158015611a8257600080fd5b505af1158015611a96573d6000803e3d6000fd5b505050506040513d601f19601f82011682018060405250810190611aba9190612422565b905060008114611aff576040517f08c379a0000000000000000000000000000000000000000000000000000000008152600401611af690612c99565b60405180910390fd5b80935050505092915050565b600d60003373ffffffffffffffffffffffffffffffffffffffff1673ffffffffffffffffffffffffffffffffffffffff16815260200190815260200160002060009054906101000a900460ff1615611b98576040517f08c379a0000000000000000000000000000000000000000000000000000000008152600401611b8f90612cd9565b60405180910390fd5b6000604051806101400160405280600073ffffffffffffffffffffffffffffffffffffffff168152602001600081526020016000815260200160008152602001428152602001600081526020016000815260200160405180602001604052806000815250815260200143815260200160001515815250905060006040518060800160405280611c27600261208d565b81526020013373ffffffffffffffffffffffffffffffffffffffff16815260200184815260200183815250905080600b60003373ffffffffffffffffffffffffffffffffffffffff1673ffffffffffffffffffffffffffffffffffffffff1681526020019081526020016000206000820151816000015560208201518160010160006101000a81548173ffffffffffffffffffffffffffffffffffffffff021916908373ffffffffffffffffffffffffffffffffffffffff1602179055506040820151816002019080519060200190611d0192919061209b565b5060608201518160030160008201518160000160006101000a81548173ffffffffffffffffffffffffffffffffffffffff021916908373ffffffffffffffffffffffffffffffffffffffff1602179055506020820151816001015560408201518160020155606082015181600301556080820151816004015560a0820151816005015560c0820151816006015560e0820151816007019080519060200190611daa92919061209b565b5061010082015181600801556101208201518160090160006101000a81548160ff0219169083151502179055505050905050600f8190806001815401808255809150506001900390600052602060002090600d02016000909190919091506000820151816000015560208201518160010160006101000a81548173ffffffffffffffffffffffffffffffffffffffff021916908373ffffffffffffffffffffffffffffffffffffffff1602179055506040820151816002019080519060200190611e7592919061209b565b5060608201518160030160008201518160000160006101000a81548173ffffffffffffffffffffffffffffffffffffffff021916908373ffffffffffffffffffffffffffffffffffffffff1602179055506020820151816001015560408201518160020155606082015181600301556080820151816004015560a0820151816005015560c0820151816006015560e0820151816007019080519060200190611f1e92919061209b565b5061010082015181600801556101208201518160090160006101000a81548160ff021916908315150217905550505050506001600d60003373ffffffffffffffffffffffffffffffffffffffff1673ffffffffffffffffffffffffffffffffffffffff16815260200190815260200160002060006101000a81548160ff021916908315150217905550611fb1600261204b565b82604051611fbf9190612b14565b60405180910390203373ffffffffffffffffffffffffffffffffffffffff167f6ba0831d2f62ae5cbf7214bcc1d79c5da1d705f12811efda0beaa840006f874e60405160405180910390a3505050565b600660009054906101000a900473ffffffffffffffffffffffffffffffffffffffff1681565b600081836120439190612f8b565b905092915050565b6001816000016000828254019250508190555050565b6000818361206f9190612f35565b905092915050565b600081836120859190612fbc565b905092915050565b600081600001549050919050565b8280546120a79061311c565b90600052602060002090601f0160209004810192826120c95760008555612110565b82601f106120e257805160ff1916838001178555612110565b82800160010185558215612110579182015b8281111561210f5782518255916020019190600101906120f4565b5b50905061211d9190612121565b5090565b5b8082111561213a576000816000905550600101612122565b5090565b600061215161214c84612eb8565b612e87565b90508281526020810184848401111561216957600080fd5b6121748482856130da565b509392505050565b60008135905061218b8161321b565b92915050565b6000815190506121a08161321b565b92915050565b6000813590506121b581613232565b92915050565b6000815190506121ca81613232565b92915050565b600082601f8301126121e157600080fd5b81356121f184826020860161213e565b91505092915050565b60008135905061220981613249565b92915050565b60008151905061221e81613249565b92915050565b60006020828403121561223657600080fd5b60006122448482850161217c565b91505092915050565b60006020828403121561225f57600080fd5b600061226d84828501612191565b91505092915050565b6000806040838503121561228957600080fd5b60006122978582860161217c565b92505060206122a88582860161217c565b9150509250929050565b60008060008060008060c087890312156122cb57600080fd5b60006122d989828a0161217c565b965050602087013567ffffffffffffffff8111156122f657600080fd5b61230289828a016121d0565b955050604061231389828a016121fa565b945050606061232489828a016121fa565b935050608061233589828a016121fa565b92505060a061234689828a016121fa565b9150509295509295509295565b6000806040838503121561236657600080fd5b60006123748582860161217c565b9250506020612385858286016121fa565b9150509250929050565b6000602082840312156123a157600080fd5b60006123af848285016121bb565b91505092915050565b6000602082840312156123ca57600080fd5b600082013567ffffffffffffffff8111156123e457600080fd5b6123f0848285016121d0565b91505092915050565b60006020828403121561240b57600080fd5b6000612419848285016121fa565b91505092915050565b60006020828403121561243457600080fd5b60006124428482850161220f565b91505092915050565b60008060006060848603121561246057600080fd5b600061246e868287016121fa565b935050602061247f868287016121a6565b92505060406124908682870161217c565b9150509250925092565b6124a381613002565b82525050565b6124b281612ff0565b82525050565b6124c181612ff0565b82525050565b6124d081613014565b82525050565b6124df81613014565b82525050565b6124ee8161304a565b82525050565b6124fd8161306e565b82525050565b61250c81613092565b82525050565b61251b816130b6565b82525050565b600061252c82612efd565b6125368185612f08565b93506125468185602086016130e9565b61254f8161320a565b840191505092915050565b600061256582612efd565b61256f8185612f19565b935061257f8185602086016130e9565b6125888161320a565b840191505092915050565b600061259e82612efd565b6125a88185612f2a565b93506125b88185602086016130e9565b80840191505092915050565b600081546125d18161311c565b6125db8186612f19565b945060018216600081146125f657600181146126085761263b565b60ff198316865260208601935061263b565b61261185612ee8565b60005b8381101561263357815481890152600182019150602081019050612614565b808801955050505b50505092915050565b6000612651602483612f19565b91507f49662074686973206973206e6f7420302c2074686572652077617320616e206560008301527f72726f72000000000000000000000000000000000000000000000000000000006020830152604082019050919050565b60006126b7603483612f19565b91507f63546f6b656e236d696e742829206661696c65642e2073656520436f6d706f7560008301527f6e64204572726f725265706f727465722e736f6c0000000000000000000000006020830152604082019050919050565b600061271d601283612f19565b91507f416d6f756e742043616e6e6f74206265203000000000000000000000000000006000830152602082019050919050565b600061275d601d83612f19565b91507f43616c6c6572206164647265737320616c7265616479206578697374730000006000830152602082019050919050565b600061279d601283612f19565b91507f43616c6c657220686173206e6f20706c616e00000000000000000000000000006000830152602082019050919050565b60006127dd602283612f19565b91507f43616c6c657220616c7265616479206861732061206c6f636b2054696d65205360008301527f65740000000000000000000000000000000000000000000000000000000000006020830152604082019050919050565b6000612843601583612f19565b91507f43616c6c6572206e6f74207265676973746572656400000000000000000000006000830152602082019050919050565b6000612883601b83612f19565b91507f43616c6c65722068617320746f206265205265676973746572656400000000006000830152602082019050919050565b60006128c3602083612f19565b91507f617070726f766520616e20616d6f756e742067726561746572207468616e20306000830152602082019050919050565b6000612903601e83612f19565b91507f52656465656d2066756e6473206265666f7265207769746864726177616c00006000830152602082019050919050565b6000612943601283612f19565b91507f4465706f73697420686173206661696c656400000000000000000000000000006000830152602082019050919050565b6000612983602f83612f19565b91507f53657420616e20616d6f756e742067726561746572207468616e20746865207260008301527f6563757272696e6720616d6f756e7400000000000000000000000000000000006020830152604082019050919050565b60006129e9601283612f19565b91507f4164647265737320697320696e76616c696400000000000000000000000000006000830152602082019050919050565b600061014083016000830151612a3560008601826124a9565b506020830151612a486020860182612af6565b506040830151612a5b6040860182612af6565b506060830151612a6e6060860182612af6565b506080830151612a816080860182612af6565b5060a0830151612a9460a0860182612af6565b5060c0830151612aa760c0860182612af6565b5060e083015184820360e0860152612abf8282612521565b915050610100830151612ad6610100860182612af6565b50610120830151612aeb6101208601826124c7565b508091505092915050565b612aff81613040565b82525050565b612b0e81613040565b82525050565b6000612b208284612593565b915081905092915050565b6000602082019050612b4060008301846124b8565b92915050565b6000606082019050612b5b60008301866124b8565b612b6860208301856124b8565b612b756040830184612b05565b949350505050565b6000606082019050612b9260008301866124b8565b8181036020830152612ba481856125c4565b9050612bb36040830184612b05565b949350505050565b6000604082019050612bd060008301856124b8565b612bdd6020830184612b05565b9392505050565b6000602082019050612bf960008301846124d6565b92915050565b6000602082019050612c1460008301846124e5565b92915050565b6000602082019050612c2f60008301846124f4565b92915050565b6000602082019050612c4a6000830184612503565b92915050565b6000602082019050612c656000830184612512565b92915050565b60006040820190508181036000830152612c8481612644565b9050612c936020830184612b05565b92915050565b60006020820190508181036000830152612cb2816126aa565b9050919050565b60006020820190508181036000830152612cd281612710565b9050919050565b60006020820190508181036000830152612cf281612750565b9050919050565b60006020820190508181036000830152612d1281612790565b9050919050565b60006020820190508181036000830152612d32816127d0565b9050919050565b60006020820190508181036000830152612d5281612836565b9050919050565b60006020820190508181036000830152612d7281612876565b9050919050565b60006020820190508181036000830152612d92816128b6565b9050919050565b60006020820190508181036000830152612db2816128f6565b9050919050565b60006020820190508181036000830152612dd281612936565b9050919050565b60006020820190508181036000830152612df281612976565b9050919050565b60006020820190508181036000830152612e12816129dc565b9050919050565b6000602082019050612e2e6000830184612b05565b92915050565b6000608082019050612e496000830187612b05565b612e56602083018661249a565b8181036040830152612e68818561255a565b90508181036060830152612e7c8184612a1c565b905095945050505050565b6000604051905081810181811067ffffffffffffffff82111715612eae57612ead6131db565b5b8060405250919050565b600067ffffffffffffffff821115612ed357612ed26131db565b5b601f19601f8301169050602081019050919050565b60008190508160005260206000209050919050565b600081519050919050565b600082825260208201905092915050565b600082825260208201905092915050565b600081905092915050565b6000612f4082613040565b9150612f4b83613040565b9250827fffffffffffffffffffffffffffffffffffffffffffffffffffffffffffffffff03821115612f8057612f7f61314e565b5b828201905092915050565b6000612f9682613040565b9150612fa183613040565b925082612fb157612fb061317d565b5b828204905092915050565b6000612fc782613040565b9150612fd283613040565b925082821015612fe557612fe461314e565b5b828203905092915050565b6000612ffb82613020565b9050919050565b600061300d82613020565b9050919050565b60008115159050919050565b600073ffffffffffffffffffffffffffffffffffffffff82169050919050565b6000819050919050565b60006130558261305c565b9050919050565b600061306782613020565b9050919050565b600061307982613080565b9050919050565b600061308b82613020565b9050919050565b600061309d826130a4565b9050919050565b60006130af82613020565b9050919050565b60006130c1826130c8565b9050919050565b60006130d382613020565b9050919050565b82818337600083830152505050565b60005b838110156131075780820151818401526020810190506130ec565b83811115613116576000848401525b50505050565b6000600282049050600182168061313457607f821691505b60208210811415613148576131476131ac565b5b50919050565b7f4e487b7100000000000000000000000000000000000000000000000000000000600052601160045260246000fd5b7f4e487b7100000000000000000000000000000000000000000000000000000000600052601260045260246000fd5b7f4e487b7100000000000000000000000000000000000000000000000000000000600052602260045260246000fd5b7f4e487b7100000000000000000000000000000000000000000000000000000000600052604160045260246000fd5b6000601f19601f8301169050919050565b61322481612ff0565b811461322f57600080fd5b50565b61323b81613014565b811461324657600080fd5b50565b61325281613040565b811461325d57600080fd5b5056fea264697066735822122089a4e261d4d7fe796a951248c2344d884a68e361902035107e87b9847ad3f36164736f6c63430008000033",
  "immutableReferences": {},
  "source": "//SPDX-License-Identifier: Unlicense\r\npragma solidity ^0.8.0;\r\n\r\n\r\nimport \"@openzeppelin/contracts/utils/math/SafeMath.sol\";\r\nimport '@openzeppelin/contracts/token/ERC20/IERC20.sol';\r\nimport \"@openzeppelin/contracts/utils/Counters.sol\";\r\nimport './CTokenInterface.sol';\r\nimport './ComptrollerInterface.sol';\r\nimport './PriceOracleInterface.sol';\r\nimport \"./XendFinanceInterface.sol\";\r\n\r\n\r\n\r\ncontract Beima{\r\n    using SafeMath for uint;\r\n    using Counters for Counters.Counter;\r\n\r\n    // variables\r\n    ComptrollerInterface public comptroller;\r\n\tPriceOracleInterface public priceOracle;\r\n    Counters.Counter private id;\r\n    uint balance;\r\n\r\n    uint accXendTokens;\r\n    uint256 ccInterest;\r\n    XendFinanceInterface public xendFinance;\r\n    IERC20 public xend;\r\n    IERC20 public busd;\r\n\r\n    uint public lastTimeStamp;\r\n    uint public upKeepInterval;\r\n\r\n\r\n\r\n    \r\n\r\n\r\n\r\n    struct Client {\r\n        address underlyingAsset;\r\n        uint256 depositedAmount;\r\n        uint256 amountToSpend;\r\n        uint256 approvedAmountToSpend;\r\n        uint256 startTime;\r\n        uint256 timeDurationOfdeposit;\r\n        uint256 lockTime;\r\n        string ipfsHashOfUserPensionDetails;\r\n        uint256 userLastRewardBlock;\r\n        bool hasPlan;\r\n    }\r\n\r\n\r\n    // A user Object\r\n    struct User {\r\n        uint256 id;\r\n        address payable userAddress;\r\n        string  userDetails;\r\n        Client client;\r\n\r\n    }\r\n\r\n\r\n\r\n    \r\n\r\n    \r\n\r\n\r\n    event Register(address indexed applicant, string indexed applicantDetails);\r\n    event Withdraw(address from, address to, uint amount);\r\n    event Deposit(address indexed sender, address receiver, uint indexed amountSpent);\r\n    event Upkeep(address sender, bool upkeep);\r\n    event Plan(address user, string planDetails, uint lockTime);\r\n    event Update(uint256 timeDuration);\r\n    event Transfer(address indexed sender, uint amount, address indexed receiver);\r\n    event MyLog(string, uint256);\r\n\r\n    mapping(address => User) public pensionServiceApplicant;\r\n    address constant ETHER = address(0); // Stores ether in the tokens mapping\r\n\tmapping(address => mapping(address => uint256)) public assets;\r\n\r\n    // keep track of registered users\r\n    mapping(address => bool) public isRegistered;\r\n    mapping(address => bool) public hasRedeemed;\r\n\r\n    User[] public users;\r\n\r\n\r\n    constructor(address _xend, address _xendFinanceIndividual_Yearn_V1,  address _comptroller, address _priceOracle, uint _upKeepInterval)  {\r\n        xend = IERC20(_xend);\r\n        comptroller = ComptrollerInterface(_comptroller);\r\n\t\tpriceOracle = PriceOracleInterface(_priceOracle);\r\n        xendFinance = XendFinanceInterface(_xendFinanceIndividual_Yearn_V1);\r\n        ccInterest = uint256(3 ether).div(10); // .3% \r\n        lastTimeStamp = block.timestamp;\r\n        upKeepInterval = _upKeepInterval;\r\n\r\n        id.increment();\r\n        \r\n    }\r\n\r\n\r\n    receive() external payable {\r\n        balance = msg.value;\r\n    }\r\n\r\n    function register(\r\n        string memory _userDetails\r\n        ) \r\n        public  {\r\n        require(!isRegistered[msg.sender], \"Caller address already exists\");\r\n\r\n        Client memory client = Client({\r\n            underlyingAsset: address(0),\r\n            depositedAmount: 0,\r\n            amountToSpend: 0,\r\n            approvedAmountToSpend: 0,\r\n            startTime: block.timestamp,\r\n            timeDurationOfdeposit: 0,\r\n            lockTime: 0,\r\n            ipfsHashOfUserPensionDetails: \"\",\r\n            userLastRewardBlock: block.number,\r\n            hasPlan: false\r\n        });\r\n\r\n        User memory user = User({\r\n            id: id.current(),\r\n            userAddress: payable(msg.sender),\r\n            userDetails: _userDetails,\r\n            client: client\r\n        });\r\n\r\n       \r\n\r\n        pensionServiceApplicant[msg.sender] = user;\r\n        users.push(user);\r\n        isRegistered[msg.sender] = true;\r\n\r\n        id.increment();\r\n\r\n        emit Register(msg.sender, _userDetails);\r\n    }\r\n\r\n    function depositToken (address _asset, uint _amount)public {\r\n        User memory user = pensionServiceApplicant[msg.sender];\r\n        require(isRegistered[msg.sender], \"Caller not registered\");\r\n        require(user.client.hasPlan, \"Caller has no plan\");\r\n\t\trequire(_asset != ETHER, \"Address is invalid\");\r\n\t\trequire(IERC20(_asset).transferFrom(msg.sender, address(this), _amount), \"Deposit has failed\");\r\n\t\tassets[_asset][msg.sender] = assets[_asset][msg.sender].add(_amount);\r\n\t\temit Deposit (msg.sender, _asset, assets[_asset][msg.sender]);\r\n\t}\r\n\r\n    function withdrawToken (address _asset, uint _amount) public {\r\n        require(hasRedeemed[msg.sender], \"Redeem funds before withdrawal\");\r\n\t\trequire(assets[_asset][msg.sender] >= _amount);\r\n\t\trequire(_asset != ETHER);\r\n\t\tassets[_asset][msg.sender] = assets[_asset][msg.sender].sub(_amount);\r\n\t\trequire(IERC20(_asset).transfer(msg.sender, _amount));\r\n\t\temit Withdraw(address(this), msg.sender, assets[_asset][msg.sender]);\r\n\r\n\t}\r\n\r\n    function supply(address cTokenaddress, uint underlyingAmount) external returns(uint) {\r\n        require(underlyingAmount > 0, \"Amount Cannot be 0\");\r\n        // _enterMarket(cTokenaddress);\r\n\t\tCTokenInterface cToken = CTokenInterface(cTokenaddress);\r\n\t\taddress underlyingAddress = cToken.underlying();\r\n\t\tIERC20(underlyingAddress).approve(cTokenaddress, underlyingAmount);\r\n\r\n\t\tuint result = cToken.mint(underlyingAmount);\r\n\t\trequire(result == 0, 'cToken#mint() failed. see Compound ErrorReporter.sol');\r\n        return result;\r\n\t}\r\n\r\n    function redeemCErc20Tokens(\r\n        uint256 amount,\r\n        bool redeemType,\r\n        address _cErc20Contract\r\n    ) public returns (bool) {\r\n        // Create a reference to the corresponding cToken contract, like cDAI\r\n        CTokenInterface cToken = CTokenInterface(_cErc20Contract);\r\n\r\n        // `amount` is scaled up, see decimal table here:\r\n        // https://compound.finance/docs#protocol-math\r\n\r\n        uint256 redeemResult;\r\n\r\n        if (redeemType == true) {\r\n            // Retrieve your asset based on a cToken amount\r\n            redeemResult = cToken.redeem(amount);\r\n        } else {\r\n            // Retrieve your asset based on an amount of the asset\r\n            redeemResult = cToken.redeemUnderlying(amount);\r\n            hasRedeemed[msg.sender] = true;\r\n        }\r\n\r\n        // Error codes are listed here:\r\n        // https://compound.finance/docs/ctokens#error-codes\r\n        emit MyLog(\"If this is not 0, there was an error\", redeemResult);\r\n\r\n        return true;\r\n    }\r\n\r\n    function setPlan(\r\n        address _underlyingAsset, \r\n        string memory _ipfsHashOfUserPensionDetails, \r\n        uint _approvedAmountToSpend, \r\n        uint _amountToSpend, \r\n        uint _timeDurationOfDeposit, \r\n        uint _lockTime) \r\n        public {\r\n        require(_approvedAmountToSpend > _amountToSpend, \"Set an amount greater than the recurring amount\");\r\n        require(_amountToSpend > 0, \"approve an amount greater than 0\");\r\n        require(isRegistered[msg.sender], \"Caller has to be Registered\");\r\n        User storage user = pensionServiceApplicant[msg.sender];\r\n        require(user.client.lockTime == 0, \"Caller already has a lock Time Set\");\r\n        user.client.underlyingAsset = _underlyingAsset;\r\n        user.client.lockTime = _lockTime;\r\n        user.client.timeDurationOfdeposit = block.timestamp.add(_timeDurationOfDeposit);\r\n        user.client.ipfsHashOfUserPensionDetails = _ipfsHashOfUserPensionDetails;\r\n        user.client.approvedAmountToSpend = _approvedAmountToSpend;\r\n        user.client.amountToSpend = _amountToSpend;\r\n        user.client.hasPlan = true;\r\n\r\n        emit Plan(msg.sender, user.client.ipfsHashOfUserPensionDetails, user.client.lockTime);\r\n    }\r\n}",
  "sourcePath": "/mnt/c/Users/chuks/Desktop/Project/beima_project/beima_core/contracts/Beima.sol",
  "compiler": {
    "name": "solc",
    "version": "0.8.0+commit.c7dfd78e.Emscripten.clang"
  },
  "schemaVersion": "3.4.3",
  "updatedAt": "2021-12-07T19:19:18.171Z",
  "networkType": "ethereum",
  "devdoc": {
    "kind": "dev",
    "methods": {},
    "version": 1
  },
  "userdoc": {
    "kind": "user",
    "methods": {},
    "version": 1
  }
}